:020000040800F2
:1000000098D9002065010008710200086902000803
:100010006D02000849020008D1020008000000003B
:100020000000000000000000000000007502000851
:100030004D0200080000000073020008770200086B
:100040007F0100087F0100087F0100087F01000890
:100050007F0100087F0100087F0100087F01000880
:100060007F0100087F0100087F0100087F01000870
:100070007F0100087F0100087F0100087F01000860
:100080007F0100087F0100087F0100087F01000850
:100090007F0100087F0100087F0100087F01000840
:1000A0007F0100087F0100087F0100087F01000830
:1000B0007F0100087F0100087F0100087F01000820
:1000C0007F0100087F0100087F0100087F01000810
:1000D0007F0100087F0100087F0100087F01000800
:1000E0004F0200087F0100087F0100087F0100081F
:1000F0007F0100087F0100087F0100080000000068
:100100007F010008000000007F0100087F01000857
:100110007F0100087F0100087F0100087F010008BF
:100120007F0100087F0100087F0100087F010008AF
:100130007F0100087F0100087F0100087F0100089F
:100140007F0100087F0100087F0100087F0100088F
:10015000DFF80CD000F066F8004800473D4A000880
:1001600098D900200648804706480047FEE7FEE78A
:10017000FEE7FEE7FEE7FEE7FEE7FEE7FEE7FEE757
:10018000810200085101000840EA01039B0703D0E7
:1001900009E008C9121F08C0042AFAD203E011F8C6
:1001A000013B00F8013B521EF9D27047D2B201E088
:1001B00000F8012B491EFBD270470022F6E710B56C
:1001C00013460A4604461946FFF7F0FF204610BDC5
:1001D000421C10F8011B0029FBD1801A704730B572
:1001E00004460020034600E05B1C934203D2E05C1F
:1001F000CD5C401BF8D030BD30B50B460146002029
:100200002022012409E021FA02F59D4205D303FAD8
:1002100002F5491B04FA02F52844151EA2F1010259
:10022000F1DC30BD064C074D06E0E06840F001030C
:1002300094E8070098471034AC42F6D3FFF78CFFE0
:1002400048BE000868BE000800BFFEE7704710B552
:100250004FF4005002F052FD28B14FF4005002F06C
:1002600047FD06F02BFF10BD00BFFEE700BFFEE715
:1002700070477047704710B50BF036F910BD00009D
:1002800010B51048006840F470000E4908600E4830
:10029000006840F001000C49086000204860C86216
:1002A0000846006809490840074908604FF47F0084
:1002B00088600846006820F48020086006F022FD6F
:1002C00010BD000088ED00E000100240FFFFF6EADC
:1002D00000BFFEE70FB4054B10B503A9044A02980E
:1002E00000F02CF810BC5DF814FB0000152D000880
:1002F000CC0000200FB4084B10B504A902AA039843
:1003000000F01CF8044602A9002000F0F3F8204693
:1003100010BC5DF814FB0000F504000802E008C8FA
:10032000121F08C1002AFAD170477047002001E06F
:1003300001C1121F002AFBD1704700002DE9FF4FB9
:100340008BB09A460F460546002606E025280BD0BE
:1003500052460D9990476D1C761C28780028F5D1DF
:100360000FB03046BDE8F08F0024A046012260495E
:1003700000E0044315F8013F203B02FA03F0084275
:10038000F7D128782E2817D115F8010F44F004046E
:100390002A280ED06FF02F022878A0F13001092909
:1003A0000AD808EB880102EB410100EB01086D1C43
:1003B000F2E757F8048B6D1C287869283ED006DCDC
:1003C0000028CDD063280BD0642804D136E07328F0
:1003D00010D075284BD052460D999047761C85E079
:1003E00017F8040B8DF8000000208DF80100E94695
:1003F000012003E057F8049B4FF0FF3061074FF0F6
:10040000000401D40AE0641C44450DDA8442FADB9E
:1004100019F804100029F6D106E0641C8442FCDBC4
:1004200019F804100029F8D1264404E019F8010B4A
:1004300052460D999047641EF8D257E001CF4FF015
:100440000A0B002802DA40422D2102E0210504D5E2
:100450002B218DF82410012103E0E10705D0202194
:10046000F7E70DF1200908910CE00021F9E701CF31
:100470004FF00A0BF9E75946FFF7BEFE01F13002D3
:1004800009F8012D0028F6D1ADEB090000F1200B91
:10049000600701D44FF00108D84502DDA8EB0B003E
:1004A00000E000208046002406E009A85246005DD6
:1004B0000D999047641C761C08988442F5DB04E093
:1004C000302052460D999047761CB8F10001A8F1F2
:1004D0000108F5DC05E019F8010B52460D9990472B
:1004E000761CBBF10001ABF1010BF4DC6D1C34E7B1
:1004F000092801000A68531C0B6010707047000047
:1005000070B504460D4600BF002C09D100BF10A3F2
:1005100040F225321AA11EA0FFF7DCFE00BF70BD1D
:1005200000BF00BF00BF606A78B1606A007B082826
:100530000BD100BF00BF2868616A496A884204D1B4
:1005400000BF00BF204600F0AFF900BFE7E70000A2
:100550002E2E5C2E2E5C2E2E5C54686972645F70A9
:10056000617274795C6C7769702D312E342E315C38
:100570007372635C636F72655C646863702E6300A2
:100580006E6574696620213D204E554C4C0000007C
:10059000417373657274696F6E2022257322206621
:1005A00061696C6564206174206C696E65202564E6
:1005B00020696E2025730D0A000000002DE9F0412E
:1005C00006460C46174600BF002E0CD100BF69A39B
:1005D00040F27C6273A17BA0FFF77CFE00BF6FF04E
:1005E0000D00BDE8F08100BF00BF002C0AD100BFA4
:1005F00060A340F27D627EA172A0FFF76BFE00BF98
:10060000A01FEEE700BF00BF2069002808D000BF90
:1006100058A340F27E627EA16AA0FFF75BFE00BF96
:1006200000BF00BF6069002808D000BF51A340F29E
:100630007F6281A163A0FFF74DFE00BF00BF0022D3
:100640004FF49A71104604F061FF2061206920B9CF
:1006500000BF00BF4FF0FF30C3E700BF20694089F3
:10066000B0F59A7F08D200BF42A340F286627CA117
:1006700054A0FFF72FFE00BF00BF607B20B9884861
:100680000068401C8649086085480068206000BFFB
:1006900000BF20694068606101206169087061697C
:1006A000487096F82A006169887000206169C870F6
:1006B000206804F00DF961694860002061690881D3
:1006C000616948816169C860082F09D0042F07D08B
:1006D000032F08D1207B052802D0207B042802D1DB
:1006E00070686169C860002061690861616948617A
:1006F0006169886100250DE096F82A00A84203DDB3
:1007000006F12B00405D00E0002061691C31485576
:10071000681C85B2102DEFD3002505E0002160692B
:100720002C304155681C85B2402DF7D3002505E0DB
:10073000002160696C304155681C85B2802DF7D36B
:1007400058486169C1F8EC0000202083002504E0CE
:100750006069F0304555681C85B2442DF8D30122FC
:100760003521204600F086F93946204600F0D4F9BC
:10077000002036E72E2E5C2E2E5C2E2E5C546869EF
:1007800072645F70617274795C6C7769702D312E60
:10079000342E315C7372635C636F72655C64686392
:1007A000702E6300646863705F6372656174655F77
:1007B0006D73673A206E6574696620213D204E5541
:1007C0004C4C0000417373657274696F6E20222572
:1007D0007322206661696C6564206174206C696EA7
:1007E0006520256420696E2025730D0A0000000035
:1007F000646863705F6372656174655F6D73673AA7
:10080000206468637020213D204E554C4C00000050
:10081000646863705F6372656174655F6D73673A86
:1008200020646863702D3E705F6F7574203D3D20BD
:100830004E554C4C00000000646863705F63726545
:100840006174655F6D73673A20646863702D3E6DF7
:1008500073675F6F7574203D3D204E554C4C000012
:10086000646863705F6372656174655F6D73673A36
:1008700020636865636B20746861742066697273B5
:100880007420706275662063616E20686F6C6420EE
:1008900073747275637420646863705F6D7367004E
:1008A00038000020638253632DE9F84305466C6AE3
:1008B000002600BF00BF0C21204600F0CDFA042224
:1008C00021462846FFF77AFE06460EBB0422322157
:1008D000204600F0CFF8606A04F01BF880464146DD
:1008E000204600F07DF9204600F0F8F9228BF03226
:1008F00091B2206905F0CCFC009543230E4A216992
:1009000060680BF04FF8204600F018F800BF01E0D7
:1009100000BF00BF607B401C607342F2107707F29B
:10092000F3104FF4FA7190FBF1F0608300BF00BF49
:100930003046BDE8F8830000E8BB000810B5044667
:1009400000BF002C09D100BF17A340F2C96222A149
:1009500029A0FFF7BFFC00BF10BD00BF00BF20698A
:10096000002808D100BF10A340F2CA622DA122A026
:10097000FFF7B0FC00BF00BF00BF6069002808D1CE
:1009800000BF09A340F2CB6230A11BA0FFF7A2FC7D
:1009900000BF00BF206910B1206905F0E7FA002010
:1009A0002061606100BFD7E72E2E5C2E2E5C2E2EBC
:1009B0005C54686972645F70617274795C6C7769A9
:1009C000702D312E342E315C7372635C636F7265EF
:1009D0005C646863702E6300646863705F64656C58
:1009E0006574655F6D73673A206468637020213DAC
:1009F000204E554C4C000000417373657274696F52
:100A00006E2022257322206661696C656420617402
:100A1000206C696E6520256420696E2025730D0A9F
:100A200000000000646863705F64656C6574655FF6
:100A30006D73673A20646863702D3E705F6F7574E4
:100A400020213D204E554C4C00000000646863702E
:100A50005F64656C6574655F6D73673A2064686395
:100A6000702D3E6D73675F6F757420213D204E556C
:100A70004C4C000070B504460E46154600BF208B56
:100A8000801C2844442808D900BF0BA340F2F6423A
:100A9000154916A0FFF71EFC00BF00BF218B481CA4
:100AA00020836069F0304654218B481C20836069A4
:100AB000F030455470BD00002E2E5C2E2E5C2E2E84
:100AC0005C54686972645F70617274795C6C776998
:100AD000702D312E342E315C7372635C636F7265DE
:100AE0005C646863702E6300A8BC00084173736582
:100AF0007274696F6E2022257322206661696C65AD
:100B000064206174206C696E6520256420696E2004
:100B100025730D0A0000000070B504460D4600BFA5
:100B2000208B442808D300BF07A340F2015212A132
:100B300020A0FFF7CFFB00BF00BF218B481C208304
:100B40006069F030455470BD2E2E5C2E2E5C2E2E2A
:100B50005C54686972645F70617274795C6C776907
:100B6000702D312E342E315C7372635C636F72654D
:100B70005C646863702E6300646863705F6F707498
:100B8000696F6E5F627974653A20646863702D3EA8
:100B90006F7074696F6E735F6F75745F6C656E20D4
:100BA0003C20444843505F4F5054494F4E535F4C94
:100BB000454E0000417373657274696F6E20222583
:100BC0007322206661696C6564206174206C696EB3
:100BD0006520256420696E2025730D0A0000000041
:100BE00070B504460D4600BF208B001D442808D96F
:100BF00000BF13A34FF4A2621DA12DA0FFF76AFB53
:100C000000BF00BF290E228B501C20836069F0308A
:100C10008154C5F30741228B501C20836069F0305A
:100C20008154C5F30721228B501C20836069F0306A
:100C30008154228B501C20836069F030855470BD34
:100C40002E2E5C2E2E5C2E2E5C54686972645F70B2
:100C5000617274795C6C7769702D312E342E315C41
:100C60007372635C636F72655C646863702E6300AB
:100C7000646863705F6F7074696F6E5F6C6F6E67CE
:100C80003A20646863702D3E6F7074696F6E735F95
:100C90006F75745F6C656E202B2034203C3D2044C2
:100CA0004843505F4F5054494F4E535F4C454E00A0
:100CB000417373657274696F6E20222573222066FA
:100CC00061696C6564206174206C696E65202564BF
:100CD00020696E2025730D0A0000000010B504463F
:100CE00000BF002C09D100BF20A340F2DE622BA17F
:100CF00033A0FFF7EFFA00BF10BD00BF00BF60696F
:100D0000002808D100BF19A340F2DF6237A12CA050
:100D1000FFF7E0FA00BF00BF00BF208B442808D3D4
:100D200000BF12A34FF4DC623BA125A0FFF7D2FA6B
:100D300000BF00BFFF21228B501C20836069F03070
:100D4000815406E00021228B501C20836069F03022
:100D50008154208B442803D3207E00F0030010B17F
:100D6000208B4428EED300BFC6E700002E2E5C2E59
:100D70002E5C2E2E5C54686972645F7061727479A7
:100D80005C6C7769702D312E342E315C7372635C2C
:100D9000636F72655C646863702E6300646863707F
:100DA0005F6F7074696F6E5F747261696C65723ABF
:100DB000206468637020213D204E554C4C0000009B
:100DC000417373657274696F6E20222573222066E9
:100DD00061696C6564206174206C696E65202564AE
:100DE00020696E2025730D0A00000000646863709E
:100DF0005F6F7074696F6E5F747261696C65723A6F
:100E000020646863702D3E6D73675F6F7574202179
:100E10003D204E554C4C0A00646863705F6F7074DF
:100E2000696F6E5F747261696C65723A20646863A1
:100E3000702D3E6F7074696F6E735F6F75745F6C49
:100E4000656E203C20444843505F4F5054494F4EFC
:100E5000535F4C454E0A0000027B8A4203D0017367
:100E600000224273428370470020144908681449E5
:100E7000084000BF114908600021104A516091608C
:100E8000D160114688694FF64171084040F08000FA
:100E9000114688614FF4A8510A4A11600021074A9F
:100EA000D16140F0087007498039886108680649B7
:100EB00008400648034980390860704700800240B6
:100EC0000F8130FD809002407D0000F80060C1027B
:100ED00010B540F60E2005F0AFFD40F60E2005F0EF
:100EE0009BFD00F0E9FB10BD08B5002100910090CA
:100EF00002E00099491E009100990029F9D108BD2E
:100F000002464FF0FF30062927D2DFE801F0222009
:100F10000B03071E9388C3F30C001FE05368C3F351
:100F20000C401BE01368C3F30D4004280BD9001FCD
:100F30000B4B1B6803F0007333B1137803F02003ED
:100F400013B1001D00E0002008E0906806E0906802
:100F500004E01378C3F3C30000E000BF00BF704794
:100F6000008002402DE9F0430446002100250026C0
:100F700000278C46B4F5E00F0FD12348234B0525FD
:100F800040F2F4564FF48017DFF88480C8F8100060
:100F9000DFF88080C8F800000FE01F481F4B0525D0
:100FA00040F2F456EF0744F2F45CDFF86480C8F8CE
:100FB0000C00DFF86C80C8F800004FF00008DFF884
:100FC0006490C9F80080DFF86090C9F800800021C3
:100FD00015E000EB01121760C2F804C001FB0638EF
:100FE000C2F80880A5F10108884506D900EB011870
:100FF00008F11008C2F80C8000E0D060491CA9423A
:10100000E7D3BDE8F0830000580100206C1F0020EA
:10101000009002402400002008010020A8010020C8
:1010200028000020300000202C00002000B500F037
:1010300065FD00F045FC00BD30B503460C460021BF
:10104000002238480068006800F0004008B1002025
:1010500030BD002B34D033480068008800F40040D5
:1010600060BB30480068008800F4807030B32D48C1
:101070000068008800F4007000B32A480068006827
:10108000C0F30D42121F2848006800F0007030B114
:1010900024480068007800F0200000B1121DA24230
:1010A00001D90020D4E7002105E01E4800688068CF
:1010B000405C5854491C9142F7D301E00020C7E737
:1010C0004FF00040174D2D6828601848406900F027
:1010D000800020B18020154D68610020A860114873
:1010E0000068808800F4804028B10E480068C0681D
:1010F0000C4D286014E00B480068808800F4004024
:1011000020B10A48C068074D286009E00748006818
:10111000C0F384050348006810302844014D28605E
:10112000012095E728000020008002400090024046
:1011300070B5034600222F480068006800F00040A8
:1011400008B1002070BD40F2F450814201D9002066
:10115000F8E74BB1002205E0985C264E3668B66889
:10116000B054521C8A42F7D322480068416021489B
:101170000068006840F040501E4E366830601D48E0
:101180000068006840F000401A4E366830601A4827
:10119000406900F004051848406900F0200405B9D2
:1011A0002CB145EA0400144E7061002070601148B3
:1011B0000068006800F4801028B10E480068C0681C
:1011C0000C4E306014E00B480068006800F400101A
:1011D00020B109480069074E306009E00648006800
:1011E000C0F384060348006810303044014E30607C
:1011F0000120A7E7240000200090024010B540F233
:10120000026005F0F9FB40F2036005F0F5FB40F2E7
:10121000046005F0F1FB40F2056005F0EDFB40F2E3
:10122000066005F0E9FB4FF4C06005F0E5FB012125
:101230004FF0201001F0E4FD4FF4807303221821D9
:101240003D4801F07FFD4023032210213B4801F07F
:1012500079FD402039491431086000203849086080
:1012600004E037480068401C35490860344800688D
:1012700034498842F5D340203049103108600020BD
:101280002F49086004E02E480068401C2C49086083
:101290002B4800682B498842F5D34FF4004005F0F5
:1012A000DBFB1C2005F0ECFA1C2005F0F9FA4FF0EE
:1012B000306005F0F7F94FF4000001F035FD02232E
:1012C000032204211C4801F03DFD042303221821C0
:1012D000194801F037FD4FF40063032218211A4822
:1012E00001F030FD4FF4805303221821164801F01D
:1012F00029FD4FF4005303221821134801F022FD69
:10130000022303221821114801F01CFD4FF48073C1
:10131000032204210E4801F015FD4FF4007303224F
:1013200004210B4801F00EFD4FF4806303220421D9
:10133000074801F007FD10BD0008014000180140FA
:1013400020000020FFFF0500000C014000100140BC
:10135000001401402DE9F74F82B081468A460024EF
:10136000002500260027A04600200190834600901B
:1013700000F0F0F948B9C548FFF7B6FD00F0EAF90A
:1013800018B9009805B0BDE8F08FFFF76DFD4F4626
:10139000012F5CD100BF01AB01221146002000F0FB
:1013A0003BFABDF8040000F00400019008F10108C8
:1013B000BDF8040010B9B6488045ECD3B448804568
:1013C00001D10098DEE74FF000084FF48050019003
:1013D00001AB00220121022000F01EFA8346BBF17E
:1013E000000F01D10098CDE700BF01AB01221146EB
:1013F000002000F011FABDF8040000F02000019078
:1014000008F10108BDF8040010B9A1488045ECD3EB
:101410009F48804501D10098B4E74FF0000801AB28
:1014200000220121104600F0F7F9BDF8040000F495
:10143000807010B14FF4006700E00027BDF8040091
:1014400000F4005010B147F480471BE01AE007F4A5
:101450000060C008019007F48040BDF8041041EA24
:101460005000019001AB00220121022000F0D4F9CC
:101470008346BBF1000F01D1009883E76FF07F40F6
:10148000FFF732FD8348046824F4B0443C43046011
:101490000AF4806070B17F48006840F480607D4944
:1014A00008607D48846924F080640AF08060044309
:1014B00079488461774840680499084375494860D1
:1014C0007648007800F00100A8B1744845680846E5
:1014D00004682E4672480440C04306403443084620
:1014E00004606D4884692E4624F0C00406F44076FA
:1014F00044EA960484616948007800F0020040B133
:101500006648866864480468664804403443624814
:1015100004606248007800F0040040B15F48C6688B
:101520005D4804686048044034435B4804605B489D
:10153000007800F0080048B1584806695648046829
:101540004CF202008443344353480460534800780B
:1015500000F0100040B1514846694F488469534833
:10156000044034434C4884614C48007800F020002B
:1015700098B14A488569484884692E464C480440D9
:10158000C043064034434448846104682E4624F036
:10159000800406F08006344304604048007800F080
:1015A000400038B13D48C5693A48C4696FF310043A
:1015B0002C43C4613948007800F08000C0B137483E
:1015C000056A344884692E464FF6417004408643CC
:1015D0003443304884613048803004682E4624F01B
:1015E000770406F4EE4644EA16242B48C0F88040FF
:1015F0002A48008800F4807018B12848406A2549BC
:1016000088602648008800F4007018B12348806A7A
:101610002049C8602148008800F4806048B11F4814
:10162000C56A1C48446840F2DE7084432C43194864
:1016300044601A48008800F4006040B11748056B08
:10164000144804681B4804402C43124804601348A3
:10165000008800F4805038B11048456B0D4804688C
:1016600024F440042C4304600C48008800F400502B
:1016700038B10A48856B0748046824F460242C4379
:1016800004600120009000987CE60000FFFF8F00BE
:10169000FFFF04000080024000900240303D002027
:1016A0007FFFFFFDFFFFFEF8FFC001FFE73FDEFD0C
:1016B000FBFFFFFE8FDDFEFF002008490860486049
:1016C0008860C860086148618861C86108624862D2
:1016D0008862C8620863486388637047303D0020B1
:1016E0000A794B7942EA0322084B03441A64CA7808
:1016F00012068B7842EA03424B7842EA03220B78C7
:101700001A43024B03445A647047000000800240B1
:1017100010B5002440F20E5005F06EF940F20F5063
:1017200005F06AF94FF4A26005F066F9FFF7D0FB07
:1017300000F07AF904460CB900BFFEE700224FF42E
:1017400080610120FFF706FE0149086010BD00001E
:101750001C000020F8B500262848056925F01C0566
:10176000012004F0ABFF04462548844205D32548F8
:10177000844202D245F008051DE02248844205D388
:101780002148844202D245F00C0514E01E488442F0
:1017900003D31E48844200D20DE01C48844202D389
:1017A0001B48844202D31A48844202D145F0040502
:1017B00001E03046F8BD114805614FF4004000904B
:1017C0006B4600220121022000F026F808B93046BD
:1017D000F0E71048FFF788FB6B4600220121104616
:1017E00000F01AF808B93046E4E7BDF8000000F44C
:1017F000004000B901263046DCE7000000800240CE
:10180000002D3101C00E16020087930300E1F5059B
:10181000007A030AFFFF04002DE9F04104460D465B
:1018200000270020DFF884C0DCF810104FF6C37CDE
:1018300021EA0C014FF4F86C0CEA821C4CEA040C0F
:101840004FF4784808EAC5284CEA080C4CF0010C23
:101850004CEA0101022C05D1B3F800C0DFF84C803E
:10186000C8F814C0DFF844C0CCF8101000BFDFF88F
:101870003CC0DCF810C00CF001067F1C1EB1DFF884
:1018800030C06745F3D1DFF824C0DCF810C00CF09D
:10189000010CBCF1000F00D101202CB9DFF80CC005
:1018A000DCF814C0A3F800C0BDE8F081008002405D
:1018B000FFFF0400416821F00041416070470000D3
:1018C0000648006840F00400044908600448806944
:1018D00040F0020002498861704700000080024029
:1018E000009002404FF000402649096808602548F2
:1018F0000068808800F48040E8B123480068A0B107
:1019000021480068C0681F4908601F4800680068D7
:1019100028B11D48006800681B49086030E01A487B
:1019200000681030184908602AE016480068C0684E
:101930001449086024E013480068808800F40040DF
:1019400060B11248C0680F4908600F480068B8B11C
:101950000D48006800680C49086011E00B480068F9
:10196000C0F3840107480068103008440549086046
:101970000548006820B1044800681030024908603A
:101980007047000028000020300000200090024036
:1019900000B5002321480068026802F0004008B149
:1019A000002000BD02F4004028B902F4807010B19C
:1019B00002F4007018B9FFF795FF0120F1E702F07B
:1019C000200030B102F0010018B1FFF78BFF0120B9
:1019D000E7E702F00040A8B902F4004090B902F431
:1019E000807078B102F4007060B1C2F30D431B1F28
:1019F0000B48006800F0007068B102F0200050B1A0
:101A00001B1D08E007480068401C06490860FFF7F6
:101A100069FF0120C5E71846C3E700002800002041
:101A2000008002403400002010B5002100200B4B44
:101A30001B6843F00103094C236000BF074B1B6880
:101A400003F00102491C12B1054B9942F6D1034B38
:101A50001B6803F0010303B9012010BD0090024090
:101A6000FFFF040070B50024FFF7C8FBFFF750FE2E
:101A70001848006808B900BFFEE7042005F046F9E1
:101A8000012004F01BFE04466420B4FBF0F1481E64
:101A9000B0F1807F00D31BE0481E4FF0E022506180
:101AA00050170F22002804DB13071D0E0A4B1D548C
:101AB00006E013071E0E094B00F00F052D1F5E55A3
:101AC00000BF00204FF0E02290610720106100BFAE
:101AD00070BD00001C00002000E400E018ED00E0F4
:101AE000024642B1106820F44000106010680843BC
:101AF0001060012070470020FCE7000000B5074897
:101B0000006840F008000549086000F00BF8044840
:101B1000806940F400500249886100BD00800240A5
:101B20000090024010B500220020094B9B6943F44D
:101B30008013074CA36100BF054B9B6903F4801120
:101B4000521C11B1034B9A42F6D301B9012010BDCA
:101B500000900240FFFF04002DE9FC47054688463F
:101B6000164600BF002D0AD100BF53A340F2BB228E
:101B70005EA162A0FEF7AEFB00BFBDE8FC8700BF20
:101B800070892A2805DA00BF00BF304604F0EEF95C
:101B9000F3E7776807F10E042088B0F5807F08D15D
:101BA0002079062805D16079042802D160880828A8
:101BB00005D000BF00BF304604F0D8F9DDE7D4F807
:101BC0000E000190A0690090281D08B1686810B946
:101BD0004FF0000907E000986968884201D10120B0
:101BE00000E000208146B9F1000F01D0012000E0A3
:101BF0000220034604F1080201A9284600F0C2FEB3
:101C0000E088B0F5807F03D0B0F5007F4BD143E092
:101C100000BF00BFB9F1000F35D000BF00BF0220E8
:101C200002F063FEE080D4F80E00A0616868C4F89A
:101C30000E0000BF95F82A00062808D000BF1EA39A
:101C400040F2113238492DA0FEF744FB00BF00BF1F
:101C5000A068C4F81200A089E082A0683860A0895A
:101C6000B880D8F80000A060B8F80400A081D8F8C7
:101C70000000C7F80600B8F804007881314628460D
:101C8000AA69904707E0281D08B1686808B900BF35
:101C900001E000BF00BF09E000BF00BF01A9284666
:101CA000FEF72EFC02E000BF00BF00BF00BF3046C1
:101CB00004F05CF900BF60E72E2E5C2E2E5C2E2E09
:101CC0005C54686972645F70617274795C6C776986
:101CD000702D312E342E315C7372635C6E657469C5
:101CE000665C6574686172702E6300006E6574696D
:101CF0006620213D204E554C4C0000004173736519
:101D00007274696F6E2022257322206661696C658A
:101D100064206174206C696E6520256420696E20E2
:101D200025730D0A00000000C0BD00082DE9FE4F1C
:101D3000064688464FF00A09CA460A2700240020B2
:101D400002900190BB46009000BF6FE004EB84005E
:101D5000764901EB8000857C0A2F04D11DB900BFB4
:101D600000BF67B260E0002D5ED000BF012D0AD039
:101D7000022D08DA00BF6EA340F22B1279A189A0D0
:101D8000FEF7A8FA00BF00BF6EB104EB8401674AFA
:101D900002EB810130684968884204D100BF00BF6E
:101DA00060B2BDE8FE8F012D2AD104EB84005F49AB
:101DB00051F8200088B104EB840001EB8000C17C65
:101DC0000098814230DB4FFA84FB04EB84005749D2
:101DD00001EB8000C07C009026E004EB84005349B6
:101DE00001EB8000C17C029881421DDB4FFA84F92F
:101DF00004EB84004D4901EB8000C07C029013E0AD
:101E0000022D11DB04EB8400484901EB8000C17C0A
:101E10000198814208DB4FFA84FA04EB84004349BD
:101E200001EB8000C07C0190601CC4B20A2C8DDBE9
:101E300008F0020020B90A2F07D108F0010020B9EC
:101E400000BF00BF4FF0FF30ABE70A2F02DAFCB251
:101E500000BF3AE0BAF10A0F14DA0AF0FF0400BF3B
:101E600000BF00BF04EB8400304951F8200040B1AE
:101E700000BF2FA340F2711255A14AA0FEF72AFA23
:101E800000BF12E0B9F10A0F03DA09F0FF0400BF46
:101E90000BE0BBF10A0F03DA0BF0FF0400BF04E014
:101EA00000BF00BF4FF0FF307BE700BF0A2C08DB0C
:101EB00000BF1FA340F283124BA13AA0FEF70AFA1B
:101EC00000BF00BF204600F0AFF800BF0A2C08DBBF
:101ED00000BF17A340F2871243A132A0FEF7FAF920
:101EE00000BF00BF00BF04EB8400104901EB80007D
:101EF000807C40B100BF0EA34FF4C4723FA129A063
:101F0000FEF7E8F900BF00BF36B104EB8401074AD1
:101F100002EB810130684860002004EB8401034A31
:101F200002EB8101C87460B23BE70000D0D400200E
:101F30002E2E5C2E2E5C2E2E5C54686972645F70AF
:101F4000617274795C6C7769702D312E342E315C3E
:101F50007372635C6E657469665C657468617270E7
:101F60002E6300007374617465203D3D2045544824
:101F70004152505F53544154455F50454E44494E81
:101F800047207C7C207374617465203E3D2045545D
:101F9000484152505F53544154455F535441424C61
:101FA00045000000417373657274696F6E202225CD
:101FB0007322206661696C6564206174206C696EAF
:101FC0006520256420696E2025730D0A000000003D
:101FD0006172705F7461626C655B695D2E71203D3A
:101FE0003D204E554C4C000069203C204152505F32
:101FF0005441424C455F53495A4500006172705F3D
:102000007461626C655B695D2E7374617465203DFB
:102010003D204554484152505F53544154455F451B
:102020004D5054590000000010B5044604EB8400E4
:10203000194951F8200070B100BF00BF04EB8401C2
:10204000154A52F8210003F091FF002004EB8401AF
:10205000114A42F82100002004EB84010E4A02EBF1
:102060008101887404EB840102EB8101C87404EBE4
:10207000840102EB8101886004EB840102EB8101A1
:10208000486004EB8400114601EB800003490A68B4
:10209000C2608988018210BDD0D40020F2BB000844
:1020A0002DE9FC4704460F461546A94600BF002C03
:1020B00008D100BF59A340F2753265A168A0FEF7B0
:1020C00009F900BF00BF00BF47B900BF53A340F2EA
:1020D00076326EA162A0FEF7FDF800BF00BF00BF20
:1020E00045B900BF4DA340F277326BA15CA0FEF76B
:1020F000F1F800BF00BF0E21384604F019F828B1EE
:1021000000BF00BF6FF00100BDE8FC8721462868D2
:1021100001F0D0FA10B1DFF8908177E0287800F074
:10212000F000E02815D101208DF8000000208DF886
:1021300001005E208DF80200687800F07F008DF8C5
:102140000300A8788DF80400E8788DF80500E846CB
:102150005BE02868A1680840D4E901121140884278
:1021600010D0288880B24FF6A96188420AD004F1C5
:102170000C0020B1E06810B104F10C0902E06FF02E
:102180000300C1E74948007800EB8000484901EBB3
:102190008000807C022812DB4449097801EB810130
:1021A000434A02EB8101D9F800004968884206D110
:1021B0003E4802783946204600F07CF8A4E7002625
:1021C0001BE006EB86003A4901EB8000807C022888
:1021D00011DB06EB8601364A02EB8101D9F80000DB
:1021E0004968884207D131490E70F2B2394620461B
:1021F00000F060F888E7701C46B20A2EE1DB3A4630
:102200004946204600F0E6F87EE700BF434604F169
:102210002B023946204600F00DFB75E72E2E5C2E72
:102220002E5C2E2E5C54686972645F7061727479E2
:102230005C6C7769702D312E342E315C7372635C67
:102240006E657469665C6574686172702E63000007
:102250006E6574696620213D204E554C4C0000008F
:10226000417373657274696F6E2022257322206634
:1022700061696C6564206174206C696E65202564F9
:1022800020696E2025730D0A000000007120213D99
:10229000204E554C4C00000069706164647220212E
:1022A0003D204E554C4C0000ECBB0008CA000020FD
:1022B000D0D4002070B505460E46144600BF04EB8E
:1022C00084001F4901EB8000807C022808DA00BFEF
:1022D0001CA34FF4537228A133A0FDF7FBFF00BFEE
:1022E00000BF04EB8400164901EB8000807C0228CB
:1022F00017D104EB840001EB8000C07CE42810DBE4
:1023000004EB84000A4602EB8000011D284600F021
:1023100079FA30B9032004EB8401094A02EB810108
:10232000887404EB8400064901EB800000F10C0383
:1023300005F12B023146284600F07CFA70BD000002
:10234000D0D400202E2E5C2E2E5C2E2E5C5468697C
:1023500072645F70617274795C6C7769702D312E74
:10236000342E315C7372635C6E657469665C65748F
:10237000686172702E6300006172705F7461626CDC
:10238000655B6172705F6964785D2E7374617465FA
:10239000203E3D204554484152505F5354415445DE
:1023A0005F535441424C4500417373657274696FC9
:1023B0006E2022257322206661696C656420617439
:1023C000206C696E6520256420696E2025730D0AD6
:1023D000000000002DE9F05F80460F46164608F128
:1023E0002B094FF0FF3A4146386801F063F938B9DC
:1023F000387800F0F000E02802D00FB1386828B932
:1024000000BF00BF6FF00D00BDE8F09F012138460E
:10241000FFF78CFC0446002C06DA00BF00BF0EB1AB
:1024200000BF00BF2046EFE704EB84005C4901EBEE
:102430008000807C30B9012004EB8401584A02EB13
:102440008101887400BF04EB8400554901EB8000D2
:10245000807C01280FD004EB840001EB8000807C9D
:10246000022808DA00BF4FA340F219425AA164A023
:10247000FDF730FF00BF00BF04EB8400484901EBCB
:102480008000807C012800D03EB93946404600F0EB
:10249000B9F982460EB95046B6E700BF46B900BF4B
:1024A00040A340F22D4261A155A0FDF713FF00BFEC
:1024B00000BF04EB84003A4901EB8000807C0228D5
:1024C0000FDB5D490C7004EB8400354901EB8000A3
:1024D00000F10C034A463146404600F0ABF9824613
:1024E0005CE004EB84002E4901EB8000807C012835
:1024F00054D14FF0000B354617E000BF6889298999
:1025000088420AD1286840B100BF26A340F23E426B
:102510004AA13BA0FDF7DEFE00BF00BF287B0128DB
:1025200002D04FF0010B02E02D68002DE5D100BF75
:10253000BBF1000F10D029890022032002F0E6FF32
:1025400005466DB13146284603F042FB40B12846AE
:1025500003F00CFD002503E03546284603F082FF1A
:10256000BDB104EB84000E4951F8200040B100BF1A
:1025700000BF04EB84010A4A52F8210003F0F6FC84
:1025800004EB8400064941F820504FF0000A00BFD8
:1025900003E000BF00BF4FF0FF3A00BF504633E7F3
:1025A000D0D400202E2E5C2E2E5C2E2E5C5468691A
:1025B00072645F70617274795C6C7769702D312E12
:1025C000342E315C7372635C6E657469665C65742D
:1025D000686172702E6300006172705F7461626C7A
:1025E000655B695D2E7374617465203D3D205045C7
:1025F0004E44494E47206F7220535441424C45008F
:10260000417373657274696F6E2022257322206690
:1026100061696C6564206174206C696E6520256455
:1026200020696E2025730D0A000000007120213DF5
:10263000204E554C4C000000CA0000206E6F2070E8
:1026400061636B65742071756575657320616C6C71
:102650006F776564210000002DE9F84F0746884632
:1026600091469A46DDF828B00020009000BF002F68
:1026700008D100BF39A340F2A54245A148A0FDF70B
:1026800029FE00BF00BF00222A21032002F03EFFE6
:1026900005462DB900BF00BF4FF0FF30BDE8F88FF1
:1026A00000BF68892A2808DA00BF2CA34FF496627D
:1026B00046A13BA0FDF70EFE00BF00BF6E6806F10D
:1026C0000E0400BF00BF0D9802F00FF9E08000BFBC
:1026D00097F82A00062808D000BF20A34FF497627D
:1026E00047492FA0FDF7F6FD00BF00BFDAF8000054
:1026F000A060BAF80400A0810B980168C4F8121019
:102700008088E082D9F800003060B9F80400B08019
:10271000D8F80000C6F80600B8F804007081DBF8AD
:102720000000C4F80E000C980068A0614FF480709F
:1027300020800820608006202071042060714FF402
:10274000C160B08129463846BA6990470090284652
:1027500003F00CFC00250098A0E700002E2E5C2E54
:102760002E5C2E2E5C54686972645F70617274799D
:102770005C6C7769702D312E342E315C7372635C22
:102780006E657469665C6574686172702E630000C2
:102790006E6574696620213D204E554C4C0000004A
:1027A000417373657274696F6E20222573222066EF
:1027B00061696C6564206174206C696E65202564B4
:1027C00020696E2025730D0A0000000063686563B0
:1027D0006B2074686174206669727374207062750E
:1027E000662063616E20686F6C6420737472756319
:1027F00074206574686172705F6864720000000024
:10280000C0BD00087FB504460D4600BF00BF0121D2
:10281000064A201D04F12B038DE825000391044A8C
:1028200019462046FFF718FF04B070BDF2BB000840
:10283000ECBB00082DE9F04104460E4617469846C9
:10284000756800BF94F82A00062808D000BF0FA3BF
:1028500040F2A3121A491BA0FDF73CFD00BF00BFC8
:10286000D8F800002860B8F80400A8803868C5F8D7
:102870000600B88868810820A88100BF00BF3146E3
:102880002046A2699047BDE8F08100002E2E5C2E04
:102890002E5C2E2E5C54686972645F70617274796C
:1028A0005C6C7769702D312E342E315C7372635CF1
:1028B0006E657469665C6574686172702E63000091
:1028C000C0BD0008417373657274696F6E20222564
:1028D0007322206661696C6564206174206C696E86
:1028E0006520256420696E2025730D0A0000000014
:1028F00070B500BF00BF00243FE004EB8400204916
:1029000001EB8000857C35B304EB840001EB800093
:10291000C07C401C04EB8401194A02EB8101C8749D
:1029200004EB8400114601EB8000C07CF0280DDA36
:1029300004EB840001EB8000807C01280CD104EBC7
:10294000840001EB8000C07C022805DB00BF00BFD3
:102950002046FFF769FB0EE004EB8400084901EB19
:102960008000807C032806D1022004EB8401044A05
:1029700002EB81018874601CC4B20A2CBDDB70BDFF
:10298000D0D400202DE9F04706460D46174698465C
:1029900000BF96F82A00062808D000BF2FA340F2F7
:1029A000C3123BA144A0FDF795FC00BF00BF00BFD0
:1029B00000BF5DB1286848B13146286800F07AFE52
:1029C00020B9287800F0F000E02805D100BF00BF52
:1029D0006FF00D00BDE8F08741462846FFF7A6F9E5
:1029E0000446002C01DA2046F4E7022004EB8401BF
:1029F0003C4A02EB8101887404EB8400114601EB30
:102A00008000866000BF00BF04EB840001EB800003
:102A10003968C160B9880182002004EB840102EBAF
:102A20008101C87404EB8400114651F8200098B16C
:102A300004EB840051F82090002004EB840142F85C
:102A400021003B4606F12B0249463046FFF7F2FED5
:102A5000484603F08BFA00BF0020BBE72E2E5C2E09
:102A60002E5C2E2E5C54686972645F70617274799A
:102A70005C6C7769702D312E342E315C7372635C1F
:102A80006E657469665C6574686172702E630000BF
:102A90006E657469662D3E6877616464725F6C650B
:102AA0006E203D3D204554484152505F48574144B7
:102AB00044525F4C454E0000417373657274696FF8
:102AC0006E2022257322206661696C656420617422
:102AD000206C696E6520256420696E2025730D0ABF
:102AE00000000000D0D400202DE9F04104460E463D
:102AF0004FF00E0860890E2800DC55E0656800BFC5
:102B000000BFAF89287800F00100B0B12878012813
:102B100009D1687888B9A8785E280ED1607B40F02A
:102B20001000607309E0062222492846FDF757FB92
:102B300018B9607B40F008006073082F03D0B7F528
:102B4000C16F2CD11EE096F8310000F0200000B9D2
:102B50002AE0C8F1000001B2204603F0E9FA00289B
:102B60000BD000BF00BF14A340F24F521FA128A0FA
:102B7000FDF7B0FB00BF00BF16E03146204600F075
:102B800037FF0DE096F8310000F0200000B90BE0AF
:102B9000224606F12B013046FEF7DEFF00E003E09F
:102BA00000BF0020BDE8F081204603F0DFF90020DF
:102BB000F8E70000ECBB00082E2E5C2E2E5C2E2EBB
:102BC0005C54686972645F70617274795C6C776977
:102BD000702D312E342E315C7372635C6E657469B6
:102BE000665C6574686172702E63000043616E27D5
:102BF00074206D6F7665206F7665722068656164FC
:102C0000657220696E207061636B6574000000005E
:102C1000417373657274696F6E202225732220667A
:102C200061696C6564206174206C696E652025643F
:102C300020696E2025730D0A0000000010B50446BF
:102C400000BF44B900BF0C4B40F20F120BA10FA004
:102C5000FDF740FB00BF00BF472084F8320044214D
:102C600033200155144860611448A061204601F0EA
:102C700091FD002010BD000004BE00086E6574695F
:102C80006620213D204E554C4C0000004173736579
:102C90007274696F6E2022257322206661696C65EB
:102CA00064206174206C696E6520256420696E2043
:102CB00025730D0A00000000A120000881480008CB
:102CC00070B50446204601F0ADFD064616B94FF03A
:102CD000FF3070BD214630462269904705462DB130
:102CE00000BF00BF304603F041F900262846F0E758
:102CF000014908607047000014040140014604487F
:102D00000068084008B1012070470020FCE700007F
:102D10001404014038B504468DF8000069460320CC
:102D2000ABBE204638BD00000549496821F40001CA
:102D3000034A5160114649680143516070470000E1
:102D400000000140F0B5044616460025002201F0BF
:102D50000F0501F0100747B1042E05D145F003051A
:102D6000E76B1F43E76300E0354300201EE00127C7
:102D700087401F40C7B122684FEA800C0F2707FA2F
:102D80000CF7BA43870005FA07F73A43282904D11C
:102D9000012787401F40676105E0482903D10127CB
:102DA00087401F4027612260471CB8B20828DED345
:102DB000082022E0012787401F40E7B16268A0F1A8
:102DC00008074FEA870C0F2707FA0CF7BA43A0F160
:102DD0000807BF0005FA07F73A43282904D101275D
:102DE00087401F40676105E0482903D101278740DC
:102DF0001F4027616260471CB8B21028DAD3F0BDCB
:102E0000F0B50A46002300240021002500F000460A
:102E1000B6F1004F02D11D4EF16901E01B4E716801
:102E2000C0F3034583B200F44016B6F5401F08D145
:102E300021F0E061154E766826F0E066134F7E6063
:102E400012E000F48016B6F5801F06D1032606FABC
:102E500005F4A14341F0E06106E0460D360103FAB6
:102E600006F6B14341F0E06122B1460D360103FAA6
:102E700006F6314300F00046B6F1004F02D1034E92
:102E8000F16101E0014E7160F0BD00000000014001
:102E90002DE9F04190B007460D4690466C683549E3
:102EA000200ECDE90001E1B2C4F30743C4F30722C9
:102EB00031A0FDF70FFA200E8DF80800200C8DF8D8
:102EC0000900200A8DF80A00E0B28DF80B009DF889
:102ED00008009DF80910CDE900109DF80A309DF812
:102EE0000B2032A103A8FDF705FA03A935A0FDF7D1
:102EF000F1F90121242001F0C3FD064631462846A0
:102F000004F028F83149284604F05CFD3049284691
:102F100006F09CFF03A8FDF75BF986B20123324659
:102F200003A9284607F00EFE9DF808009DF8091039
:102F3000CDE900109DF80A309DF80B2025A103A8CB
:102F4000FDF7D8F903A91FA0FDF7C4F92C48FDF738
:102F50003FF986B2012332462949284607F0F2FD9F
:102F60000123AD220349284607F0ECFD002010B0F4
:102F7000BDE8F081F8BB00080A0D54656C6E6574FD
:102F80002068656C6C6F5F6769676164657669630B
:102F9000655F6163636570743A25642E25642E2530
:102FA000642E2564202025730000000054656C6E9B
:102FB00065743A25642E25642E25642E2564202010
:102FC0002000000025730D0A0000000005300008F5
:102FD00045300008596F752074656C6E6574206308
:102FE0006F6D707574657227732049502069733A4C
:102FF0002025642E25642E25642E25640A000000F9
:1030000038BB000870B504460E462546284601F038
:1030100049FD70BD10B505F099FA04464FF4FA5217
:103020000649204603F098FFFF21204605F0D8F915
:1030300004460349204603F024FF10BDE4BB00080A
:10304000912E00082DE9FF5F824615469B465446A7
:10305000002D7DD02989019806F066FF3CB92846ED
:1030600002F084FF6FF00D0004B0BDE8F09F4FF058
:1030700000092E4621E0D6F80480002716E018F853
:1030800007000D2803D018F807000A2801D10120F5
:1030900000E0002081462068202806DA18F8071092
:1030A0002268501C2060201D81547F1C7089B8420A
:1030B00002DDB9F1000FE2D03668002EDBD1B9F1A4
:1030C000000F44D02068801E211D085C0D2804D10B
:1030D0002068401E085C0A2825D02068401E211D5B
:1030E000085C0D2804D02068401E085C0A2807D11F
:1030F0002068401C202803DC2068401C206009E078
:103100002068801C202803DC2068801C206001E0EF
:10311000202020600D222068801E211D0A540A22D2
:103120002068401E0A5401231F2212A1019807F0B3
:1031300009FD208882B20123211D019807F002FDBC
:10314000221D0CA113A0FDF7C5F80020206000E0AF
:1031500003E0284602F00AFF09E0BBF1000F06D1A8
:10316000204601F09FFC019804F02AF87CE700203B
:103170007AE700000A0D476967614465766963650F
:10318000A1BE38303030A1BF504F52542048656C3A
:103190006C6F20000A0D4769676144657669636555
:1031A0000A0D54656C6E657420257320257300002C
:1031B00070B505460C4622460321284600F0A4F9C6
:1031C00070BD00002DE9FE4F0446894666683078E0
:1031D0000007870E7942204602F0AAFF10B9208925
:1031E000042802D200BF00BFD9E0606890F800A0B8
:1031F000606890F801B0BAF1000F03D0BAF1080F7F
:1032000076D100E0C6E001256948007800F0F000C2
:10321000E02800D1002566490868494600F04AFACE
:1032200000B1002535B900BF00BF204602F09EFE68
:10323000BDE8FE8F00BF00BF2089082802D200BF72
:1032400000BFACE0204600F00AFA28B100BF00BF82
:10325000204602F08BFEEBE72221204602F068FFB9
:10326000002852D03946204602F062FF00280AD0DA
:1032700000BF00BF4FA398225CA169A0FDF72AF808
:1032800000BF00BF8FE021890022022002F03EF93A
:10329000054615B900BF00BF85E000BF698907F189
:1032A0000800814207D200BF42A3A12267A15CA00F
:1032B000FDF710F800BF00BF2146284602F088FC49
:1032C00050B100BF00BF3BA3A5226EA154A0FDF7E3
:1032D00001F800BF00BF66E06E68784201B2284680
:1032E00002F026FF60B100BF00BF32A3AB2200E0B6
:1032F0004DE06EA14AA0FCF7EDFF00BF00BF52E019
:10330000204602F033FE2C4610E06FF021012046EB
:1033100002F00EFF50B100BF00BF26A3B52263A18B
:103320003FA0FCF7D7FF00BF00BF3CE0D4F804800B
:103330001F480068F0606A4800683061002088F823
:103340000000A8F80200FF2030720020708139468A
:10335000204602F0EDFE48B100BF00BF15A3DA22FF
:1033600060A12FA0FCF7B6FF00BF0FE001200021F5
:10337000FF230A46CDE9010900910D49204600F0DE
:1033800093FC05460DB100BF00BF00BF02E000BFC7
:1033900000BF00BF00BF204602F0E8FD48E720461E
:1033A00002F0E4FD44E7204602F0E0FD00BF3FE705
:1033B000BC0000202E2E5C2E2E5C2E2E5C546869E4
:1033C00072645F70617274795C6C7769702D312EF4
:1033D000342E315C7372635C636F72655C69707606
:1033E000345C69636D702E630000000069636D706A
:1033F0005F696E7075743A206D6F76696E672070C4
:103400002D3E7061796C6F616420746F206970204B
:10341000686561646572206661696C65640A0000B4
:10342000417373657274696F6E2022257322206662
:1034300061696C6564206174206C696E6520256427
:1034400020696E2025730D0A000000006368656323
:103450006B20746861742066697273742070627581
:10346000662063616E20686F6C642073747275638C
:1034700074207468652049434D5020686561646517
:103480007200000069636D705F696E7075743A2038
:10349000636F7079696E6720746F206E6577207036
:1034A000627566206661696C65640A0069636D70A7
:1034B0005F696E7075743A20726573746F72696EAD
:1034C00067206F726967696E616C20702D3E706154
:1034D000796C6F6164206661696C65640A00000044
:1034E000B800002043616E2774206D6F7665206FF1
:1034F0007665722068656164657220696E2070610E
:10350000636B6574000000002DE9FE4306460F461C
:10351000904600222421012001F0F8FF05461DB944
:1035200000BF00BFBDE8FE8300BF6889242808D221
:1035300000BF1DA34FF4997229A134A0FCF7CAFE65
:1035400000BF00BFD6F8049000BF00BF00BF00BF9F
:1035500000BF00BF00BF00BF00BF00BF6C68277086
:1035600084F801800020A080E08071686A6802F120
:1035700008001C22FCF708FE0020608069892046B4
:1035800000F063F86080D9F80C000290012000215F
:10359000FF2302AACDE90010284600F025FB2846AB
:1035A00002F0E4FC00BFBDE72E2E5C2E2E5C2E2E1A
:1035B0005C54686972645F70617274795C6C77697D
:1035C000702D312E342E315C7372635C636F7265C3
:1035D0005C697076345C69636D702E630000000076
:1035E000636865636B2074686174206669727374C4
:1035F00020706275662063616E20686F6C6420695C
:10360000636D70206D6573736167650041737365E9
:103610007274696F6E2022257322206661696C6561
:1036200064206174206C696E6520256420696E20B9
:1036300025730D0A0000000070B505460C462246B1
:103640000B212846FFF760FF70BD70B504460D469C
:103650002946204601F0C2F9C04380B270BD2DE971
:10366000F041064600240027354617E0698968685E
:1036700001F0B4F90444A0B200EB1444688900EBF3
:10368000D0714910A0EB410139B1C7F10100C7B2B7
:10369000E0B2C4F3072141EA00242D68002DE5D1F2
:1036A00027B1E0B2C4F3072141EA0024E04380B22D
:1036B000BDE8F08118B502460092D04300B10AB9C6
:1036C000012018BD91F8310000F0020008B9002077
:1036D000F7E74868904201D10020F2E700988B6834
:1036E0001840D1E901342340984208D1886822EA81
:1036F00000008C68E343984201D10120E1E70020FB
:10370000DFE700002DE9F74F8CB004468946B9F891
:1037100028000890142004904FF0000860680B9077
:103720000B9EF08801F0FBF803900398C0F30C00A7
:103730000790039800F4005006902089143880B256
:1037400009900899A1F11400C11700EB5171C1F360
:10375000CF010A91B0E0089814380999884201DB3A
:10376000012000E0002005900798C0F30C000699A6
:1037700008430390059818B9039840F4005003904B
:10378000059808B1099801E00A98C0001FFA80FB6B
:1037900000221421022001F0B9FE054625B94FF0A0
:1037A000FF300FB0BDE8F08F00BF6089142808DA41
:1037B00000BF44A340F2FB2250A158A0FCF78AFDB1
:1037C00000BF00BF142268680B99FCF7DDFC6E682F
:1037D000616804980844606061890498081A6081EF
:1037E000CDF808B03FE061890298814201DD02987E
:1037F00000E060898046B8F1000F01D1246832E012
:1038000000F0A4F807462FB9284602F0AFFB4FF0AE
:10381000FF30C6E760683B4602224146CDE900081A
:10382000032002F08BF88246BAF1000F08D1384627
:1038300000F092F8284602F099FB4FF0FF30B0E715
:10384000204602F00FFE7C613F4838615146284611
:1038500002F0FEF80298A0EB080080B202900298F5
:1038600000B1246800BF02980028BCD1CDF81080B8
:10387000039801F03AF8F0800BF1140188B201F0DE
:1038800034F870800020708114213046FFF7DDFE8F
:103890007081D9F81430294648460E9A9847284630
:1038A00002F064FB0998A0EB0B0080B209900A9922
:1038B0000798084480B20790099800287FF44BAF1E
:1038C00000BF6EE72E2E5C2E2E5C2E2E5C54686997
:1038D00072645F70617274795C6C7769702D312EDF
:1038E000342E315C7372635C636F72655C697076F1
:1038F000345C69705F667261672E63007468697317
:10390000206E656564732061207062756620696E43
:10391000206F6E6520706965636521004173736572
:103920007274696F6E2022257322206661696C654E
:1039300064206174206C696E6520256420696E20A6
:1039400025730D0A00000000CD46000810B50620C2
:1039500001F03CFC10BD000010B5044600BF002C77
:1039600008D100BF06A340F2792213A115A0FCF7ED
:10397000B1FC00BF00BF2146062001F097FB10BD3F
:103980002E2E5C2E2E5C2E2E5C54686972645F7045
:10399000617274795C6C7769702D312E342E315CD4
:1039A0007372635C636F72655C697076345C6970B6
:1039B0005F667261672E63007020213D204E554C7A
:1039C0004C000000417373657274696F6E2022258C
:1039D0007322206661696C6564206174206C696E75
:1039E0006520256420696E2025730D0A0000000003
:1039F0002DE9F05F06460F464FF0010A75682878FA
:103A00000421B1EB201F07D000BF00BF304602F0F9
:103A1000ADFA0020BDE8F09F287800F00F084FF6BF
:103A2000FF7000EA8808688800F079FF8146708995
:103A3000404502DB308948450EDA7089404501DA9D
:103A400000BF00BF3089484501DA00BF00BF3046E3
:103A500002F08CFA0020DDE74946304602F018FCFF
:103A600028695C490860E8685B4908604FF0010B11
:103A70003C4600BF00BF00BF94F8310000F00100D9
:103A800088B1201D78B1606868B1524800686168EB
:103A9000884205D04F4908682146FFF70BFE10B158
:103AA00000BF00BF0DE0BBF1000F04D04FF0000BD2
:103AB0004A48046800E02468BC4200D12468002C15
:103AC000D8D100BF84B9687A11280DD105EB080060
:103AD00000BF00BF4188B1F5884F04D100BF00BFCF
:103AE0003C464FF0000A00BFBAF1000F15D03A482B
:103AF000006890B1384908683946FFF7DBFD28B9FE
:103B00003548007800F0F000E02806D100BF00BF83
:103B1000304602F02BFA00207CE734B900BF00BF2A
:103B2000304602F023FA002074E7E8884FF63F7130
:103B3000084048B100BF00BF304600F083F9064698
:103B40000EB9002066E7756800BF00BF00BF00BF68
:103B500023480760234805603946304602F068FD77
:103B600068BB687A01280DD0062806D011280ED12E
:103B70003946304607F076FD20E03946304603F0FE
:103B8000B7FF1BE039463046FFF71CFB16E0114932
:103B900008683946FFF78EFD50B90E48007800F0EE
:103BA000F000E02804D0756002213046FFF700FBEA
:103BB000304602F0DBF900BF00BF00BF00BF0020AD
:103BC000074908600749086003490860014908601F
:103BD00000BF1FE7BC000020B800002054000020F8
:103BE000B0000020B40000202DE9FE4F05460F462E
:103BF00016469846DDE90C9A00BFE889012808D0EE
:103C000000BF0EA340F2393219A11CA0FCF762FBE1
:103C100000BF00BF304600F02DFD041E04D100BFE0
:103C200000BF001FBDE8FE8F434632463946284696
:103C3000CDE9009A029400F037F8F3E72E2E5C2EBF
:103C40002E5C2E2E5C54686972645F7061727479A8
:103C50005C6C7769702D312E342E315C7372635C2D
:103C6000636F72655C697076345C69702E63000006
:103C7000702D3E726566203D3D20310041737365B5
:103C80007274696F6E2022257322206661696C65EB
:103C900064206174206C696E6520256420696E2043
:103CA00025730D0A000000002DE9F84F05460F4668
:103CB00090469A46DDF828B00C9E00BFE88901289E
:103CC00008D000BF37A34FF4277243A145A0FCF7EB
:103CD00001FB00BF00BFB8F1000F49D04FF014093D
:103CE0001421284602F024FA28B100BF00BF6FF06B
:103CF0000100BDE8F88F6C6800BF6889142808D2FD
:103D000000BF28A340F2C92241A136A0FCF7E2FA85
:103D100000BF00BF84F808A00B986072D8F80000BC
:103D2000206148464FEAE97109EB9171C1F38701BF
:103D300041F04001217084F801B0288900F0D5FDE0
:103D400060800020E0803E48008800F0CEFDA0802A
:103D50003B480088401C3A4908800FB1386810B9C8
:103D60007068E06001E03868E0600020608103E096
:103D70006C6820690090E84600BF00BF308D48B1F4
:103D80002889318D884205DD424631462846FFF7B5
:103D9000B9FCAEE700BF00BF424629463046736912
:103DA0009847A6E72E2E5C2E2E5C2E2E5C5468695A
:103DB00072645F70617274795C6C7769702D312EFA
:103DC000342E315C7372635C636F72655C6970760C
:103DD000345C69702E630000702D3E726566203D74
:103DE0003D203100417373657274696F6E20222526
:103DF0007322206661696C6564206174206C696E51
:103E00006520256420696E2025730D0A00000000DE
:103E1000636865636B20746861742066697273748B
:103E200020706275662063616E20686F6C64207319
:103E300074727563742069705F68647200000000BA
:103E4000C00000202DE9F84F804600200090D8F8EF
:103E50000450287800F00F001421B1EB800F02D03D
:103E600000BF00BFB4E0E88800F059FDC0F30C00CB
:103E70004FF6FF7101EAC00A688800F050FD29780A
:103E800001F00F01A0EB81001FFA80FB404601F01A
:103E900096FE06465248018888190A280CDD3146EC
:103EA000284600F0A9FB20B14D48008830440A287C
:103EB00002DD00BF00BF8BE04A48046814E060697F
:103EC000E968884209D1A0692969884205D1A08999
:103ED000A988884201D1012000E0002010B100BF74
:103EE00000BF03E000942468002CE8D100BF34B97F
:103EF0003146284600F068FA044694B968E0E8883C
:103F000000F00DFDC0F30C0058B9E08900F007FD8A
:103F1000C0F30C0028B11422294604F10800FCF774
:103F200033F92F48008830442D490880A87900F0E3
:103F3000200040B9A07F40F00100A0770AEB0B0001
:103F4000A08300BF00BF4146204600F04DF8D0B32B
:103F5000A08B1430A083606840680768606845687B
:103F6000142204F108012846FCF70EF9A08B00F09A
:103F7000BCFC68800020E880688114212846FFF797
:103F800064FB6881D4F804800CE0D7F804906FF0EB
:103F90001301384602F0CCF83946404601F058FD8E
:103FA000D9F80070002FF0D12046009900F0AAF94E
:103FB000404601F004FE0A490988081A08490880A9
:103FC0004046BDE8F88FFFE700BF00BF0020F8E7DC
:103FD00000BF00BF404601F0C9FF0020F1E700002C
:103FE000C8000020C40000202DE9FC5F06460F46F3
:103FF00000254FF0010BD7F804A0BAF8020000F03A
:104000008EFC9AF8001001F00F01A0EB810080B245
:104010000090BAF8060000F082FCC0F30C004FF6E6
:10402000FF7101EAC000019000BF00BF7C68002062
:1040300020600198A080DDE900100844E080D6F8F7
:1040400004902EE0D9F80480A088B8F804108842C3
:1040500010DAC4F800905DB1A088E988884204DBDA
:10406000E088B8F80410884200DDACE02F6000E082
:10407000776019E0A088B8F80410884200D1A2E067
:10408000A088B8F80610884200DA9CE035B1E888CC
:10409000B8F80410884201D04FF0000BD8F8009017
:1040A0004546B9F1000FCDD100BFB9F1000F27D1BE
:1040B000002D16D000BFE888A188884208DD00BF27
:1040C00047A340F2931254A15BA0FCF703F900BF91
:1040D00000BF2F60E888A188884211D04FF0000B04
:1040E0000EE000BF7068002808D000BF3CA340F27B
:1040F0009B125CA150A0FCF7EDF800BF00BF7760F9
:10410000B07F00F0010000285BD0BBF1000F55D05C
:1041100070684068808810B14FF0000B4EE0254673
:10412000D4F800900BE0D9F80440E888A1888842D0
:1041300002D04FF0000B05E02546D4F80090B9F10D
:10414000000FF0D100BFBBF1000F37D000BF706887
:1041500040B900BF22A34FF4DE7250A136A0FCF795
:10416000B9F800BF00BF00BF70684068A04208D126
:1041700000BF1BA340F2BD1248A12FA0FCF7AAF874
:1041800000BF00BF00BF206840B100BF14A340F2D1
:10419000BF1246A128A0FCF79DF800BF00BF00BFDA
:1041A000E088B18B884208D000BF0DA340F2C11255
:1041B00047A121A0FCF78EF800BF00BF5846BDE81C
:1041C000FC9F0020FBE7384601F0F9FC4C490988C8
:1041D000081A4B490880384601F0C8FE0020EEE777
:1041E0002E2E5C2E2E5C2E2E5C54686972645F70DD
:1041F000617274795C6C7769702D312E342E315C6C
:104200007372635C636F72655C697076345C69704D
:104210005F667261672E6300636865636B20667218
:1042200061676D656E747320646F6E2774206F769E
:1042300065726C6170000000417373657274696F20
:104240006E2022257322206661696C65642061748A
:10425000206C696E6520256420696E2025730D0A27
:10426000000000006E6F2070726576696F757320B4
:10427000667261676D656E742C2074686973206D59
:104280007573742062652074686520666972737442
:1042900020667261676D656E7421000073616E69DE
:1042A000747920636865636B0000000076616C6957
:1042B000646174655F646174616772616D3A6E65B3
:1042C00078745F70627566213D4E554C4C0000005D
:1042D00076616C69646174655F6461746167726161
:1042E0006D3A646174616772616D20656E64213D31
:1042F000646174616772616D206C656E000000001E
:10430000C800002070B504460D460E480068A04263
:1043100003D10C49206808600EE000BF002D08D1D1
:1043200000BF09A340F2391215A11CA0FBF7D2FF70
:1043300000BF00BF206828602146052000F0B6FEBF
:1043400070BD0000C40000202E2E5C2E2E5C2E2E90
:104350005C54686972645F70617274795C6C7769CF
:10436000702D312E342E315C7372635C636F726515
:104370005C697076345C69705F667261672E630099
:1043800073616E69747920636865636B206C696E14
:104390006B6564206C697374000000004173736581
:1043A0007274696F6E2022257322206661696C65C4
:1043B00064206174206C696E6520256420696E201C
:1043C00025730D0A0000000070B505460E46052055
:1043D00000F0FCFE044674B93146284600F00CF9A2
:1043E000B04203DB052000F0F1FE04461CB900BF1B
:1043F00000BF002070BD20212046FBF7DEFE032019
:10440000E0770648006820600448046014222946CA
:1044100004F10800FBF7B8FE2046EBE7C4000020DB
:104420002DE9F04704468846002500BFA04507D186
:1044300000BF40A3A5224DA14FA0FBF74BFF00BF3B
:1044400000BFB8F1000F0DD000BFD8F80000A042A7
:1044500007D000BF37A3A72252A147A0FBF73AFF1E
:1044600000BF00BF6068D0F80490B9F804000028CD
:1044700024D16768D9F800006060142204F10801B3
:104480007868FBF781FE01213846FFF7D5F83846FA
:1044900001F095FB064600BFA819B0F5803F07DB89
:1044A00000BF24A3B62244A133A0FBF713FF00BF33
:1044B00000BFA81985B2384601F058FD67681CE0B6
:1044C000D7F80490BA46D9F80070504601F077FB4F
:1044D000064600BFA819B0F5803F07DB00BF15A353
:1044E000C62235A124A0FBF7F5FE00BF00BFA81926
:1044F00085B2504601F03AFD00BF002FE0D14146A1
:104500002046FFF7FFFE00BF33480088A84207DAC5
:1045100000BF08A3CC2231A117A0FBF7DBFE00BF30
:1045200000BF2D480088401B2B4908802846BDE865
:10453000F08700002E2E5C2E2E5C2E2E5C546869B7
:1045400072645F70617274795C6C7769702D312E62
:10455000342E315C7372635C636F72655C69707674
:10456000345C69705F667261672E63007072657695
:1045700020213D2069707200417373657274696F08
:104580006E2022257322206661696C656420617447
:10459000206C696E6520256420696E2025730D0AE4
:1045A00000000000707265762D3E6E657874203DC7
:1045B0003D2069707200000070627566735F6672FC
:1045C000656564202B20636C656E203C3D2030784F
:1045D0006666666600000000C800002069705F72B1
:1045E000656173735F70627566636F756E74203E8C
:1045F0003D20636C656E00002DE9F05F054689463D
:10460000002700BF0026B346B246194804681DE0E3
:104610006069E968884207D1A0692969884203D1A5
:10462000A089A988884201D0012000E0002048B17B
:104630000AF1010A0EB9264604E0E07FF17F8842C4
:1046400000DC2646206800B1A3462468002CDFD198
:104650002EB159463046FFF7E3FE804647444F45AA
:1046600002DABAF1010FCDDC3846BDE8F09F000058
:10467000C400002010B50246124801680FE091F80E
:10468000310000F0010048B110688B681840D1E992
:1046900001342340984201D1084610BD0968002921
:1046A000EDD10948006830B10748006890F8310042
:1046B00000F0010018B900BF00BF0020EDE702487C
:1046C0000068EAE7540000205800002070B5054655
:1046D0002C4600BF002C08D100BF0FA340F283225C
:1046E0001BA11EA0FBF7F6FD00BF00BF00BFAC4240
:1046F00008D000BF08A34FF4217223A117A0FBF735
:10470000E9FD00BF00BF606910B1606901F02EFCD7
:104710002046FFF721F970BD2E2E5C2E2E5C2E2E2A
:104720005C54686972645F70617274795C6C7769FB
:10473000702D312E342E315C7372635C636F726541
:104740005C697076345C69705F667261672E6300C5
:1047500070637220213D204E554C4C0041737365AF
:104760007274696F6E2022257322206661696C6500
:1047700064206174206C696E6520256420696E2058
:1047800025730D0A00000000706372203D3D20700B
:104790000000000070B50446062084F82A000220BC
:1047A00084F82B000A212C2001550F212D200155C2
:1047B0000E212E2001550D212F20015506213020DC
:1047C000015504F12B010020FCF78AFF40F2DC5078
:1047D0002085322084F831004FF4E000FCF7C2FB62
:1047E0004FF46020FCF7BEFB002605E00B4901EB0F
:1047F0000610FDF75FF8761C052EF7D3002507E0BD
:10480000074901EB05104FF44001FDF769F96D1CF4
:10481000052DF5D3FCF70AFC70BD0000080100204F
:10482000580100202DE9F04781460026002502218D
:1048300012480068FCF764FB87B205210F48006846
:10484000FCF75EFB804603223946104600F05EFE10
:10485000054665B12C4608E0628908EB06016068F0
:10486000FBF792FC608906442468002CF4D10021F7
:104870000846FCF7E1FB2846BDE8F0872800002049
:104880002DE9F04180460F46002500BF0F48006823
:10489000006800F000400028F8D101210B480068B2
:1048A000FCF72EFB06463C4607E0628970196168FA
:1048B000FBF76AFC608905442468002CF5D1294681
:1048C0000020FCF735FC0020BDE8F081240000202A
:1048D0000146080601F47F4240EA022001F47F020B
:1048E00040EA122040EA1160704701460806000CB9
:1048F00040EA1120704710B5044694F8310000F0EA
:10490000010028B1FEF786FB02F0D8FB06F080FE1E
:1049100010BD00B503461846FFF7DAFF00BD00B52D
:1049200002461046FFF7E1FF00BD000001B50C494B
:1049300000980968401AFA2804D3094900980860C9
:1049400006F07EF8074900980968401A41F288315C
:10495000884204D3034900980860FDF7C9FF08BDE9
:10496000100000201400002010B50248FEF7A8F93E
:1049700010BD0000D000002000B587B000F03EF967
:1049800000F0F2FB0F4806906FF07F4005900E4854
:1049900004900E480E49002204ABCDE9002102909C
:1049A00005AA06A90B4800F091FC0A4800F02EFD6C
:1049B0000949084800F084FD064800F084FD07B06E
:1049C00000BD0000C0A81F64C0A81F01E92A00089C
:1049D0003D2C0008D0000020F7480008F8B5054637
:1049E0000A462B4600200090002103F0010636B154
:1049F000002A04DD13F8010B8DF80100521E1C463D
:104A000003E034F8027B3944921E012AF9DC002AC3
:104A100002DD20788DF80000BDF80000014488B266
:104A200000EB114188B200EB114126B1C8B2C1F3CD
:104A3000072747EA002188B2F8BD0000FDF712F809
:104A40000C4B012211460020FCF7E6FE0A4B002227
:104A500001211046FCF7E0FEFFF78EFF08E0FCF7AF
:104A600097FF08B1FFF780FF04480068FFF75EFF7B
:104A7000F5E70000080000200A00002000000020E8
:104A800070B504460D4604FB05F188B200F0E4F869
:104A9000064626B104FB05F13046FBF78EFB304697
:104AA00070BD000070B5044614B900BF00BF70BDF2
:104AB00000BF04F00300002808D000BF21A34FF47A
:104AC000A0722CA134A0FBF705FC00BF00BF00BF03
:104AD0003C480068844203D33B480068844208D3C2
:104AE00000BF18A34FF4A17238A12BA0FBF7F2FB73
:104AF00000BF00BF33480068844203D332480068D7
:104B0000844202D300BF00BFD1E7A4F1080500BF73
:104B1000287940B900BF0BA340F2531231A11EA067
:104B2000FBF7D8FB00BF00BF0020287132480068A7
:104B3000854201D230480560284601F099FC00BF4B
:104B4000B5E700002E2E5C2E2E5C2E2E5C5468697C
:104B500072645F70617274795C6C7769702D312E4C
:104B6000342E315C7372635C636F72655C6D656D6E
:104B70002E6300006D656D5F667265653A20736136
:104B80006E69747920636865636B20616C69676E18
:104B90006D656E7400000000417373657274696F17
:104BA0006E2022257322206661696C656420617421
:104BB000206C696E6520256420696E2025730D0ABE
:104BC00000000000480000204C0000206D656D5F73
:104BD000667265653A206C6567616C206D656D6F06
:104BE000727900006D656D5F667265653A206D656E
:104BF0006D2D3E75736564005000002000BF00BF3E
:104C0000114921F00301114A1160114608684FF45F
:104C1000A04101800021418001711146096801F520
:104C2000A0410B4A11600121126811714FF4A0419B
:104C3000074A12681180064A1268518003490968C0
:104C4000044A1160704700006F3D002048000020BA
:104C50004C000020500000202DE9F047054615B912
:104C60000020BDE8F087E81C20F0030085B20C2D81
:104C700000DA0C25B5F5A04F01DD0020F1E753481F
:104C8000008853490988401A86B295E05048006868
:104C900084192079002874D1218806F10800081AA7
:104CA000A8426ED3218806F10800091A05F1140004
:104CB00081421CD306F1080028441FFA80F84448BA
:104CC000006800EB080700203871208838807E805B
:104CD000A4F80080012020713888B0F5A04F08D0DA
:104CE00038883B4909680844A0F8028001E00120A7
:104CF000207136480068844228D13448D0F80090AA
:104D000005E0B9F800003249096800EB010999F89B
:104D1000040018B12F4800688145F2D12B48C0F833
:104D2000009000BF00682B49096888420CD02748D2
:104D30000068007940B100BF27A340F2622232A18F
:104D400038A0FBF7C7FA00BF00BF00BF00BF04F1E7
:104D5000080028441F490968884208D900BF1EA3DB
:104D600040F266223AA12FA0FBF7B4FA00BF00BFC1
:104D700000BF04F0030050B100BF17A34FF41A7234
:104D800000E016E03EA127A0FBF7A4FA00BF00BF99
:104D900000BF04F0030040B100BF0FA340F26A223D
:104DA00043A120A0FBF796FA00BF00BF04F1080062
:104DB00057E707480068865BC5F5A040B0423FF75B
:104DC00065AF00BF00BF00204BE70000500000208F
:104DD000480000204C0000202E2E5C2E2E5C2E2E33
:104DE0005C54686972645F70617274795C6C776935
:104DF000702D312E342E315C7372635C636F72657B
:104E00005C6D656D2E6300006D656D5F6D616C6C32
:104E10006F633A20216C667265652D3E757365641B
:104E200000000000417373657274696F6E20222563
:104E30007322206661696C6564206174206C696E00
:104E40006520256420696E2025730D0A000000008E
:104E50006D656D5F6D616C6C6F633A20616C6C6F3A
:104E60006361746564206D656D6F7279206E6F7417
:104E70002061626F76652072616D5F656E642E00E1
:104E80006D656D5F6D616C6C6F633A20616C6C6F0A
:104E90006361746564206D656D6F72792070726FE7
:104EA0007065726C7920616C69676E65642E0000B4
:104EB0006D656D5F6D616C6C6F633A2073616E69D7
:104EC000747920636865636B20616C69676E6D65DA
:104ED0006E7400002DE9F04780460D46E81C20F076
:104EE000030085B20C2D00DA0C25B5F5A04F02DDCC
:104EF0000020BDE8F08700BF44480068804503D328
:104F000043480068804508D300BF42A34FF4C372F2
:104F10004CA152A0FBF7DEF900BF00BF3B48006880
:104F2000804503D33A480068804503D300BF00BFE3
:104F30004046DEE7A8F1080734480088381A1FFA0F
:104F400080F93888A0EB090008381FFA80FA00BF02
:104F5000554508DD00BF2FA34FF4CC724AA13FA0F6
:104F6000FBF7B8F900BF00BF554501DD0020C0E7E1
:104F7000554501D14046BCE73888244909684418A2
:104F8000207900BB208809F1080129448EB24649E6
:104F90000968A14204D11D4909683144424A11609F
:104FA0001A4909688C19002121712080A4F8029007
:104FB0003E802188B1F5A04F04D02188134A1268A1
:104FC00011444E8020E005F1140050451CD809F131
:104FD0000800284486B20D480068841932480068E9
:104FE000844201D23048046000202071388820803B
:104FF000A4F802903E802088B0F5A04F04D020880D
:105000000249096808444680404672E7480000208B
:105010004C0000202E2E5C2E2E5C2E2E5C546869D7
:1050200072645F70617274795C6C7769702D312E77
:10503000342E315C7372635C636F72655C6D656D99
:105040002E6300006D656D5F7472696D3A206C654A
:1050500067616C206D656D6F7279000041737365D7
:105060007274696F6E2022257322206661696C65F7
:1050700064206174206C696E6520256420696E204F
:1050800025730D0A000000006D656D5F7472696D17
:105090002063616E206F6E6C7920736872696E6B2D
:1050A000206D656D6F7279005000002070B5054667
:1050B0000C4604B970BD00BF04F00300002808D0FE
:1050C00000BF09A340F2BB1213A11BA0FBF702F91A
:1050D00000BF00BF2646234850F825003060214815
:1050E00040F8256000BFE5E72E2E5C2E2E5C2E2EAC
:1050F0005C54686972645F70617274795C6C776922
:10510000702D312E342E315C7372635C636F726567
:105110005C6D656D702E63006D656D705F667265A8
:10512000653A206D656D2070726F7065726C7920C4
:10513000616C69676E656400417373657274696F51
:105140006E2022257322206661696C65642061747B
:10515000206C696E6520256420696E2025730D0A18
:1051600000000000808D002010B5002001E0431CED
:1051700098B20A28FBDB114B23F00301002019E051
:1051800000230F4C44F8203000220CE00C4B53F865
:1051900020300B600A4B43F820100A4B33F81030D4
:1051A0001944531C9AB2084B33F810309342EDDC8B
:1051B000431C98B20A28E3DB10BD0000AB8D002031
:1051C000808D00206ABB00087EBB000870B50546D4
:1051D00000BF0A2D0ADB00BF13A34FF4C7721EA144
:1051E00025A0FBF777F800BF002070BD00BF2D4859
:1051F00050F82540002C13D02A49206841F825009A
:1052000000BF04F00300002808D000BF06A340F24E
:105210009F1225A118A0FBF75DF800BF00BF01E0B9
:1052200000BF00BF2046E0E72E2E5C2E2E5C2E2E07
:105230005C54686972645F70617274795C6C7769E0
:10524000702D312E342E315C7372635C636F726526
:105250005C6D656D702E63006D656D705F6D616C6A
:105260006C6F633A2074797065203C204D454D5039
:105270005F4D415800000000417373657274696F9F
:105280006E2022257322206661696C65642061743A
:10529000206C696E6520256420696E2025730D0AD7
:1052A00000000000808D00206D656D705F6D616C89
:1052B0006C6F633A206D656D702070726F706572EF
:1052C0006C7920616C69676E656400002DE9F047B8
:1052D00004460E4617469846DDE9095ADDF8209047
:1052E00000BF002D07D100BF1EA38F222AA130A02E
:1052F000FAF7F0FF00BF00BF00206060A060E06030
:1053000084F831006062E061C4F82090334800788E
:1053100084F8340031480078401C30490870C4F8E3
:1053200010A043463A463146204600F05BF820463E
:10533000A84710B10020BDE8F08729480068206028
:105340002748046000BF00BF00BF00BF00BF00BF10
:1053500000BF00BF00BF00BF00BF00BF00BF00BF55
:105360002046E8E72E2E5C2E2E5C2E2E5C546869BB
:1053700072645F70617274795C6C7769702D312E24
:10538000342E315C7372635C636F72655C6E65743E
:1053900069662E63000000004E6F20696E697420FC
:1053A00066756E6374696F6E20676976656E00005E
:1053B000417373657274696F6E20222573222066B3
:1053C00061696C6564206174206C696E6520256478
:1053D00020696E2025730D0A000000005C0000208B
:1053E000540000202DE9F04106460F4614461D46A4
:1053F0003946304600F01AF82146304600F058F899
:105400002946304600F00AF8BDE8F08102490860FC
:1054100000BF00BF704700005800002009B90022FB
:1054200000E00A68C26000BF00BF70472DE9F0418C
:1054300007460C46002C2ED020687968884201D19E
:10544000012000E0002030BB00BF00BF1648066806
:105450000DE030687968884208D1D6F80C8000BF2A
:1054600000BF304601F006FD464600E0F668002E1B
:10547000EFD10E4805680CE055B1286840B12868A6
:105480007968884204D10CB9002000E020682860C7
:10549000ED68002DF0D10CB9002000E020687860A4
:1054A00000BF00BFBDE8F081740000207000002044
:1054B00009B9002200E00A68826000BF00BF70479F
:1054C00000B1C161704710B5044694F8310000F096
:1054D0000100D0B994F8310040F0010084F83100A7
:1054E00000BFE06910B12046E169884700BF94F829
:1054F000310000F0100040B194F8310000F02000BD
:1055000018B1211D2046FDF77DF910BD2DE9F05F92
:1055100083460F46914600BF00BFBBF1000F09D084
:10552000BBF1010F08D0BBF1020F07D0BBF1030F95
:1055300008D105E0362612E0222610E00E260EE005
:1055400000260CE000BF00BF95A3E822A0A1A7A001
:10555000FAF7C0FE00BF00BF0020BDE8F09F00BF0B
:10556000B9F1000F72D0B9F1010F70D0B9F1020F8B
:105570006ED0B9F1030F6CD10920FFF727FE044666
:1055800000BF00BF0CB90020E7E784F80C900020B2
:10559000206006F110002044C01C20F00300606071
:1055A00000BF207900F0030038B100BF7CA3FA22CD
:1055B00099A18EA0FAF78EFE00BF00BF2781F01CD4
:1055C00020F0030040F2DC51081AB84201DD3846F1
:1055D00005E0F01C20F0030040F2DC51081A608165
:1055E00000BF61896068014404F2EC50814208D92F
:1055F00000BF6BA34FF4807293A17CA0FAF76AFE00
:1056000000BF00BF00BFF01C20F0030040F2DC51DF
:10561000081A002808DC00BF61A340F2031297A11A
:1056200072A0FAF757FE00BF00BF0120E081A2463A
:105630006089A7EB00085BE00920FFF7C7FD05467E
:1056400045B9204600F092FC002086E754E07FE058
:105650007FE08FE085F80C90002068732860CAF81E
:10566000005000BF4FF6FF70804508DB00BF4CA321
:105670004FF48F728EA15DA0FAF72CFE00BF00BF21
:10568000A5F808801FFA88F040F2DC51884202DA5F
:105690001FFA88F001E040F2DC50688105F110004B
:1056A000686000BF287900F0030040B100BF3CA350
:1056B00040F2231283A14DA0FAF70CFE00BF00BFF9
:1056C00000BF61896068014404F2EC50814208D94E
:1056D00000BF33A340F225125BA144A0FAF7FAFD04
:1056E00000BF00BF0120E8816889A8EB0008AA4636
:1056F000B8F1000FA0DC4AE006F1130121F003022B
:10570000F91C21F00301114488B2FFF7A5FA044601
:105710000CB9002021E704F110003044C01C20F037
:1057200003006060278167810020206084F80C906E
:1057300000BF207900F0030040B100BF18A34FF470
:105740009F726CA129A0FAF7C5FD00BF00BF1EE043
:1057500000BF0820FFF73AFD04461CB900BF00BF98
:105760000020FAE60020606027816781206084F8CD
:105770000C900CE000BF00BF09A34FF4AA7268A10F
:105780001AA0FAF7A7FD00BF00BF0020E5E600BFA2
:105790000120E0810020607300BF00BF2046DCE6EE
:1057A0002E2E5C2E2E5C2E2E5C54686972645F7007
:1057B000617274795C6C7769702D312E342E315C96
:1057C0007372635C636F72655C706275662E6300F2
:1057D000706275665F616C6C6F633A206261642011
:1057E00070627566206C6179657200004173736543
:1057F0007274696F6E2022257322206661696C6560
:1058000064206174206C696E6520256420696E20B7
:1058100025730D0A00000000706275665F616C6C94
:105820006F633A207062756620702D3E7061796CEE
:105830006F61642070726F7065726C7920616C6941
:10584000676E656400000000636865636B20702DFF
:105850003E7061796C6F6164202B20702D3E6C6509
:105860006E20646F6573206E6F74206F766572664C
:105870006C6F7720706275660000000050425546DC
:105880005F504F4F4C5F42554653495A45206D7506
:10589000737420626520626967676572207468614D
:1058A0006E204D454D5F414C49474E4D454E54008D
:1058B00072656D5F6C656E203C206D61785F75313F
:1058C000365F7400706275665F616C6C6F633A205E
:1058D0007062756620712D3E7061796C6F61642015
:1058E00070726F7065726C7920616C69676E656447
:1058F00000000000706275665F616C6C6F633A2037
:10590000706275662D3E7061796C6F616420707293
:105910006F7065726C7920616C69676E65640000F8
:10592000706275665F616C6C6F633A206572726F4E
:105930006E656F7573207479706500002DE9F0470E
:1059400007460E4690461C46DDE9089A00BF00BF98
:1059500037B1012F06D0022F06D0032F08D105E062
:10596000362513E0222511E00E250FE000250DE07D
:1059700000BF00BF16A340F2871221A129A0FAF7A9
:10598000A9FC00BF00BF0020BDE8F08700BFE81CF5
:1059900020F003003044504503DD00BF00BF00206D
:1059A000F2E700202060B9F1000F05D0E81C20F0DC
:1059B00003004844606001E00020606002206073E2
:1059C0002681668184F80C800120E0812046DBE797
:1059D0002E2E5C2E2E5C2E2E5C54686972645F70D5
:1059E000617274795C6C7769702D312E342E315C64
:1059F0007372635C636F72655C706275662E6300C0
:105A0000706275665F616C6C6F6365645F6375730C
:105A1000746F6D3A206261642070627566206C61FB
:105A200079657200417373657274696F6E20222507
:105A30007322206661696C6564206174206C696EF4
:105A40006520256420696E2025730D0A0000000082
:105A500070B506460D4600BF0EB1002D09D100BF3E
:105A60001BA340F2ED2226A133A0FAF733FC00BFBE
:105A700070BD00BF344604E0208929890844208194
:105A8000246820680028F7D100BF208961898842F6
:105A900008D000BF0EA340F2F62232A126A0FAF7EA
:105AA00019FC00BF00BF00BF206840B100BF08A3C1
:105AB00040F2F72237A120A0FAF70CFC00BF00BF8C
:105AC0002089298908442081256000BFD0E7000093
:105AD0002E2E5C2E2E5C2E2E5C54686972645F70D4
