:020000040800F2
:10000000080C0020650100082F02000827020008E4
:100010002B020008D1010008870200080000000040
:100020000000000000000000000000003302000893
:10003000D701000800000000310200087D0100081F
:100040007F0100087F0100087F0100087F01000890
:100050007F0100087F0100087F0100087F01000880
:100060007F0100087F0100087F0100087F01000870
:100070007F0100087F0100087F010008D50100080A
:100080007F0100087F0100087F0100087F01000850
:100090007F0100087F0100087F0100087F01000840
:1000A0007F0100087F0100087F0100087F01000830
:1000B0007F0100087F0100087F0100087F01000820
:1000C0007F0100087F0100087F0100087F01000810
:1000D0007F010008850200087F0100087F010008F9
:1000E0007F0100087F0100087F0100087F010008F0
:1000F0007F0100087F0100087F0100080000000068
:100100007F010008000000007F0100087F01000857
:100110007F0100087F0100087F0100087F010008BF
:100120007F0100087F0100087F0100087F010008AF
:100130007F0100087F0100087F0100087F0100089F
:100140007F0100087F0100087F0100087F0100088F
:10015000DFF80CD000F02AF800480047F10600084C
:10016000080C00200648804706480047FEE7FEE7E7
:10017000FEE7FEE7FEE7FEE7FEE7FEE7FEE7FEE757
:10018000350200085101000840EA01039B0703D033
:1001900009E008C9121F08C0042AFAD203E011F8C6
:1001A000013B00F8013B521EF9D27047064C074D47
:1001B00006E0E06840F0010394E807009847103437
:1001C000AC42F6D3FFF7C8FF9C080008BC08000843
:1001D00000BFFEE7704770472DE9F04704460E4622
:1001E00017464FF000094FF0010900F091F940F275
:1001F000073000F0F1F825464FF000080BE057F803
:100200002810284600F0A6F908F101082D1D40F23B
:10021000073000F0E1F8A019A842F0D800F0ECF89F
:100220004846BDE8F08700BFFEE700BFFEE7704725
:100230007047704710B51048006840F470000E49D0
:1002400008600E48006840F001000C49086000207A
:100250004860C862084600680949084007490860C4
:100260004FF47F0088600846006820F48020086012
:1002700000F010FB10BD000088ED00E0001002400F
:10028000FFFFF6EA704700BFFEE702E008C8121F52
:1002900008C1002AFAD170477047002001E001C16F
:1002A000121F002AFBD1704710B53E2404213E20C6
:1002B00000F01EF80020044611E00A484FF40062E6
:1002C00002FB04010848FFF75FFF08490A1402FB1C
:1002D0000410054A0914FFF77FFF601C04463E2CFA
:1002E000EBDB10BD00100208080000200020000811
:1002F0002DE9F04104460D464FF000684FF40060D0
:1003000000FB058700F004F940F2073000F064F8C4
:1003100000260AE0384600F085F807F5006740F24D
:10032000073000F059F8701C86B2A642F2DBBDE837
:10033000F08100B50346012200BF00F00BF8024631
:100340005B1E012A01D1002BF7D1012A00D1042222
:10035000104600BD00200A49C96801F0010109B139
:1003600001200CE00649C96801F0100109B1032021
:1003700005E00349C96801F0040101B1022070479A
:100380000020024000B50346012200BF00F00CF837
:1003900002465B1E012A01D1002BF7D1012A00D1B0
:1003A0000422104600BD000000200A49C96C01F07B
:1003B000010109B101200CE00649C96C01F01001EE
:1003C00009B1032005E00349C96C01F0040101B142
:1003D0000220704700200240064A02EB9011096893
:1003E00000F01F0301229A401143024B03EB9012CD
:1003F00011607047002002400848006940F080000A
:100400000649086106480088B0F5007F04D908460F
:10041000006D40F080000865704700000020024039
:10042000E0F7FF1F30B5054636480088B0F5007F7D
:1004300048D9354885421ED24FF47020FFF779FF26
:100440000446002C5BD13148006940F002002F497E
:10045000086108464561006940F0400008614FF4BA
:100460007020FFF766FF04462848006920F002006C
:100470002649086143E04FF47020FFF783FF0446EC
:10048000002C3CD12148006D40F002001F49086556
:1004900008464565C06900F0020008B1084645619C
:1004A0001A48006D40F04000184908654FF470206C
:1004B000FFF768FF04461548006D20F0020013495D
:1004C00008651CE04FF47020FFF733FF0446B4B911
:1004D0000E48006940F002000C4908610846456179
:1004E000006940F0400008614FF47020FFF721FFE1
:1004F00004460648006920F00200044908612046CD
:1005000030BD0000E0F7FF1FFFFF0708002002409A
:100510000C48006900F0800020B10B480949486090
:100520000A4848600A480088B0F5007F09D90548A4
:10053000006D00F0800020B1034802494864034880
:10054000486470470020024023016745AB89EFCD26
:10055000E0F7FF1F70B504460D4600262A480088C4
:10056000B0F5007F35D92948844219D24FF4702064
:10057000FFF7DFFE0646002E43D12548006940F014
:1005800001002349086125604FF47020FFF7D1FE78
:1005900006461F48006920F001001D49086130E04F
:1005A0004FF47020FFF7EEFE064656BB1848006D6C
:1005B00040F001001649086525604FF47020FFF7F0
:1005C000E1FE06461248006D20F001001049086562
:1005D00017E04FF47020FFF7ACFE06468EB90C48CA
:1005E000006940F001000A49086125604FF470205D
:1005F000FFF79FFE06460648006920F00100044907
:100600000861304670BD0000E0F7FF1FFFFF0708DC
:100610000020024010B540F2046000F0ADF84FF445
:10062000807303220421024800F004F810BD00008A
:1006300000100140F0B5044616460025002201F0E6
:100640000F0501F0100747B1042E05D145F0030551
:10065000E76B1F43E76300E0354300201EE00127FE
:1006600087401F40C7B122684FEA800C0F2707FA66
:100670000CF7BA43870005FA07F73A43282904D153
:10068000012787401F40676105E0482903D1012702
:1006900087401F4027612260471CB8B20828DED37C
:1006A000082022E0012787401F40E7B16268A0F1DF
:1006B00008074FEA870C0F2707FA0CF7BA43A0F197
:1006C0000807BF0005FA07F73A43282904D1012794
:1006D00087401F40676105E0482903D10127874013
:1006E0001F4027616260471CB8B21028DAD3F0BD02
:1006F000FFF790FF34E01B480068401CB8B91A4867
:1007000000681A490840B0F1005F29D116484068D6
:1007100017490860084600681649086012490868C9
:1007200080F3088800BF13480068804718E0FFF78F
:10073000BBFD0D4800680D490840B0F1005F0FD1C6
:10074000094840680A490860084600680949086085
:100750000549086880F3088800BF0648006880479C
:10076000C9E7000000180008002000080000FE2F64
:100770000400002000000020064A02EB90110968E6
:1007800000F01F0301229A401143024B03EB901229
:10079000116070470010024000200021394A1268A1
:1007A00042F00102374B1A6000BF401C354A126804
:1007B00002F0020111B9B0F5A06FF6D1314A12680A
:1007C00002F002020AB900BFFEE72E4AD26942F0E7
:1007D00080522C4BDA612C4A126842F440422A4B78
:1007E0001A60284A5268274B5A601A4652685A6063
:1007F0001A46526842F480625A601A465268234B85
:100800001A40204B5A601A465268214B1A431D4B1E
:100810005A601A46126842F080721A6000BF194A84
:10082000126802F00072002AF9D0174A126842F4E6
:100830008032154B1A6000BF134A526802F48032AE
:10084000002AF9D0104A126842F400320E4B1A60A6
:1008500000BF0D4A526802F40032002AF9D0094A5A
:10086000526822F00302074B5A601A46526842F05F
:1008700002025A6000BF034A526802F00802002ACE
:10088000F9D070470010024000700040FFFFC39F86
:100890000000342010B5FFF77FFF10BDBC08000832
:1008A00000000020080000008A020008C4080008B8
:1008B00008000020000C00009A0200080000000060
:0408C0000000000034
:04000005080001519D
:00000001FF
