:020000040800F2
:100000008804002065010008BB010008B301000856
:10001000B7010008AD01000841020008000000001F
:10002000000000000000000000000000E7010008E0
:10003000B101000800000000E5010008E901000826
:100040007F0100087F0100087F0100087F01000890
:100050007F0100087F0100087F0100087F01000880
:100060007F0100087F0100087F0100087F01000870
:100070007F0100087F0100087F0100087F01000860
:100080007F0100087F0100087F0100087F01000850
:100090007F0100087F0100087F0100087F01000840
:1000A0007F0100087F0100087F0100087F01000830
:1000B0007F0100087F0100087F0100087F01000820
:1000C0007F0100087F0100087F0100087F01000810
:1000D0007F0100087F0100087F0100087F01000800
:1000E0007F0100087F0100087F0100087F010008F0
:1000F0007F0100087F0100087F0100080000000068
:100100007F010008000000007F0100087F01000857
:100110007F0100087F0100087F0100087F010008BF
:100120007F0100087F0100087F0100087F010008AF
:100130007F0100087F0100087F0100087F0100089F
:100140007F0100087F0100087F0100087F0100088F
:10015000DFF80CD000F018F800480047DF03000873
:10016000880400200648804706480047FEE7FEE76F
:10017000FEE7FEE7FEE7FEE7FEE7FEE7FEE7FEE757
:10018000F101000851010008064C074D06E0E06847
:1001900040F0010394E8070098471034AC42F6D3CE
:1001A000FFF7DAFFE00500080006000800BFFEE7E1
:1001B000704700BFFEE700BFFEE7704710B500289C
:1001C00007DA0A07140E054A00F00F031B1FD45468
:1001D00003E00A07130E024A135410BD18ED00E0A5
:1001E00000E400E07047704710B500F045F810BD1E
:1001F00010B51048006840F470000E4908600E48C1
:10020000006840F001000C49086000204860C862A6
:100210000846006809490840074908604FF47F0014
:1002200088600846006820F48020086000F0ACF97F
:1002300010BD000088ED00E000100240FFFFF6EA6C
:1002400000BFFEE702E008C8121F08C1002AFAD169
:1002500070477047002001E001C1121F002AFBD146
:10026000704700000349086000BF0249096800297F
:10027000FBD17047000000200448006820B103480B
:100280000068401E0149086070470000000000201F
:1002900010B504460B4931F8140000F0C9F80A49BA
:1002A00051F82430094951F824000322102100F0AC
:1002B00030F8054850F82400044951F824104861EA
:1002C00010BD0000200000201400002008000020C5
:1002D00070B504460A4A52F824100A4A52F824001B
:1002E00000F075F8C0F10100C5B2054A52F82410BB
:1002F000044A52F824002A4600F006F870BD0000B7
:1003000014000020080000200AB1016100E04161F2
:100310007047F0B5044616460025002201F00F058F
:1003200001F0100747B1042E05D145F00305E76B36
:100330001F43E76300E0354300201EE001278740AC
:100340001F40C7B122684FEA800C0F2707FA0CF74D
:10035000BA43870005FA07F73A43282904D1012751
:1003600087401F40676105E0482903D10127874086
:100370001F4027612260471CB8B20828DED308203E
:1003800022E0012787401F40E7B16268A0F108071B
:100390004FEA870C0F2707FA0CF7BA43A0F10807BA
:1003A000BF0005FA07F73A43282904D101278740FF
:1003B0001F40676105E0482903D1012787401F409E
:1003C00027616260471CB8B21028DAD3F0BD02463C
:1003D0009068084008B1012070470020FCE74FF406
:1003E0000051880300F01AF80020FFF751FF0120A8
:1003F000FFF74EFF0220FFF74BFF00F0C9F80BE0BC
:100400000020FFF765FF0120FFF762FF0220FFF7E2
:100410005FFFC820FFF726FFF2E70000024A0A400C
:100420000243024B1A60704780FFFF1F08ED00E097
:10043000064A02EB9011096800F01F0301229A405E
:100440001143024B03EB9012116070470010024001
:1004500000200021464A126842F48032444B1A6060
:1004600000BF401C424A126802F4003111B9B0F5D5
:10047000006FF6D13E4A126802F400320AB900BF9A
:10048000FEE73B4AD26942F08052394BDA61394A81
:10049000126842F44042374B1A60354A5268344B76
:1004A0005A601A4652685A601A46526842F480628C
:1004B0005A601A465268304B1A402D4B5A601A4601
:1004C00052682E4B1A432A4B5A601A46D26A2C4B5A
:1004D0001A40274BDA621A46D26A2A4B1A43244B37
:1004E000DA621A46126842F080621A6000BF204A3F
:1004F000126802F00062002AF9D01D4A126842F028
:1005000080721B4B1A6000BF194A126802F0007219
:10051000002AF9D0174A126842F48032154B1A604B
:1005200000BF144A526802F48032002AF9D0114AFE
:10053000126842F400320F4B1A6000BF0D4A526835
:1005400002F40032002AF9D0094A526822F003026C
:10055000074B5A601A46526842F002025A6000BFC6
:10056000034A526802F00802002AF9D070470000DE
:100570000010024000700040FFFFC39F00003520C4
:1005800000F0FEBF4906010010B5FFF761FF10BD86
:1005900010B5124800684FF47A71B0FBF1F4601E98
:1005A000B0F1807F01D301200FE0601E4FF0E02109
:1005B00048610F214FF0FF30FFF700FE00204FF0A1
:1005C000E021886107200861002008B100BFFEE734
:1005D0000021481EFFF7F2FD10BD000004000020BE
:1005E000000600080000002084000000440200080B
:1005F000840600088400002004040000540200085F
:1006000000000000000E2707001401400018014000
:100610000018014000080000020000000400000073
:100620000506060606060000001001400001000055
:100630000406000000010000020817000E06110762
:10064000130714070002000020000000000400004F
:10065000001000000004000040000000000800003E
:100660000400000000080140001401400010014097
:1006700000100140001401400206050604060406AD
:04068000050600006B
:04000005080001519D
:00000001FF
