:020000040800F2
:10200000202F012009220008713200086F2C0008DF
:102010006F3200087B2A0008953500080000000098
:102020000000000000000000000000006521000822
:102030001D22000800000000A9210008E932000864
:10204000232200082322000823220008232200085C
:10205000232200082322000823220008232200084C
:10206000232200082322000823220008232200083C
:10207000232200082322000823220008232200082C
:10208000232200082322000823220008232200081C
:10209000232200082322000823220008812B0008A5
:1020A00023220008232200082322000823220008FC
:1020B00023220008232200082322000823220008EC
:1020C00023220008232200082322000823220008DC
:1020D000232200086D34000805350008232200087B
:1020E000112B0008232200082322000823220008C5
:1020F00023220008232200082322000800000000F9
:102100002322000800000000232200087532000886
:102110004D330008DD330008232200082322000885
:10212000232200082322000823220008232200087B
:1021300023220008C92A00082322000823220008BD
:10214000232200082322000823220008232200085B
:10215000DFF80CD000F0B0FA00480047E5C70008EF
:10216000202F0120204B19680868B0E8F00F80F399
:102170000988BFF36F8F4FF0000080F311884EF095
:102180000D0E70470000000006480068006880F3EC
:10219000088862B661B6BFF34F8FBFF36F8F00DF61
:1021A00000BF00BF08ED00E0EFF30980BFF36F8FC1
:1021B0000D4B1A6820E9F00F106008B54FF02000B1
:1021C00080F3118816F0C6FB4FF0000080F31188F1
:1021D000BDE8084019680868B0E8F00F80F3098886
:1021E000BFF36F8F704700BFC4020020EFF3118070
:1021F0004FF0200181F31188704780F311887047F8
:10220000EFF3058070470000064880470648004706
:10221000FEE7FEE7FEE7FEE7FEE7FEE7FEE7FEE796
:10222000FEE7FEE70D330008512100082DE9F05FBD
:102230000546002092469B46884606468146402435
:102240001BE0284641464746224600F070F95346B7
:102250005A46C01A914110D311461846224600F042
:1022600057F92D1A67EB01084F462246012000213D
:1022700000F04EF917EB00094E41201EA4F10104B5
:10228000DFDC484631462A464346BDE8F09F40EA37
:1022900001039B0703D009E008C9121F08C0042AE4
:1022A000FAD203E011F8013B00F8013B521EF9D2CB
:1022B0007047D2B201E000F8012B491EFBD27047F3
:1022C0000022F6E710B513460A4604461946FFF702
:1022D000F0FF204610BD30B505462A460B4612F8E1
:1022E000010B13F8014B08B1A042F8D01CB1002833
:1022F00002D06D1CF1E7284630BD10B5044604E05D
:102300000B7800F8013B03B1491C521EF8D220465D
:1023100010BDCAB2401E10F8011F8A4202D0002927
:10232000F9D100207047421C10F8011B0029FBD195
:10233000801A704710B5002200E0521C835C8C5C50
:10234000A34201D1002BF8D1D8B2E1B2401A10BD9E
:1023500030B504460020034600E05B1C934203D2E4
:10236000E05CCD5C401BF8D030BD0246C9B200E055
:10237000401C0378002BFBD102E003788B4203D092
:10238000401E9042F9D20020704700000FB400B503
:102390008DB010A909900B9000914FF0FF300A907A
:1023A00000200C9005480690054807906A4609A849
:1023B0000F9900F053F90DB05DF814FB7926000871
:1023C000972600082DE9FF5F1D464FF0FF3BD5E93A
:1023D000014691465F464FF00008A9697F1C0198AD
:1023E0008847296A824688470028F6D1BAF1FF3F1C
:1023F0000CD024F4C064002E19DD600614D5BAF1A7
:102400002B0F09D0BAF12D0F0ED103E0584604B0BE
:10241000BDE8F09F44F48064A9697F1C0198884757
:10242000761E8246002E02DDBAF1300F03D0B9F1DC
:10243000000F26D032E0A969761E44F400747F1C98
:10244000019888478246002E05DDBAF1780F06D044
:10245000BAF1580F03D0B9F1000F10D01EE0B9F156
:10246000000F02D0B9F1100F18D1A969761E24F41B
:1024700000747F1C019888478246102002E00820E3
:1024800000E00A20814609E008FB0908A969761ED8
:1024900044F400747F1C019888478246002E05DDB5
:1024A0004946504600F0C6F80028EDDAE96901987F
:1024B0008847A00502D46FF00100A8E7E00725D106
:1024C000600613D5600502D5C8F1000000E0404663
:1024D00029680A1D2A600968220501D5087015E0DF
:1024E000220701D5088011E008600FE02868011D6F
:1024F00029600068210502D580F8008006E02107E8
:1025000002D5A0F8008001E0C0F8008038467EE7E0
:10251000202A04DB203A00FA02F1002070479140A3
:10252000C2F1200320FA03F3194390407047202A98
:1025300004DB203A21FA02F00021704721FA02F36D
:10254000D040C2F120029140084319467047000074
:1025500007280FD2DFE800F00406080E0E0C0A0070
:1025600005A070470AA0704713A070471DA07047D0
:1025700022A070472BA070474E6F206572726F7259
:1025800020286572726E6F203D2030290000000007
:1025900045444F4D202D2066756E6374696F6E2023
:1025A000617267756D656E74206F7574206F66203B
:1025B00072616E67650000004552414E4745202D0F
:1025C0002066756E6374696F6E20726573756C74C6
:1025D000206E6F7420726570726573656E746162CF
:1025E0006C650000454E4F4D454D202D206F757494
:1025F000206F66206D656D6F7279000045494E56FB
:10260000414C202D20696E76616C6964206172678F
:10261000756D656E7420746F2066756E6374696F76
:102620006E000000556E6B6E6F776E206572726F74
:10263000720000003A2800D2303820F02002412AEF
:1026400001D3A2F13700884201D34FF0FF30704729
:10265000026811441378016018467047D16004493C
:1026600051610449116200211161114600F044B822
:1026700051260008E5260008426842B1016811F8B9
:10268000013B23B1521EC0E90012184670470121D8
:10269000C160881E704742685AB1C368016843B977
:1026A00083688B4205D0491E521CC0E900120020ED
:1026B00070474FF0FF307047064C074D06E0E0686A
:1026C00040F0010394E8070098471034AC42F6D379
:1026D000FFF742FD089C0108289C0108004870474C
:1026E0000C9A010810B50446FFF7F8FF0068005D7A
:1026F00000F0010010BD00002DE9F34F8BB04FF04A
:10270000000801F10C000C464FF0010B46460DF19C
:10271000080A01906269012101989047051E2DD099
:10272000252D2CD0216A8847C0B16269012101980A
:102730009047216A88470028F7D1411E62690198B5
:10274000904700E0761CA1690B988847216A88476A
:102750000028F7D1E1690B988847DBE7A1690B985E
:1027600088470746A84201D1761CD3E7E1690B9858
:1027700088477F1C02D1B8F1000F6FD046E10027D7
:1027800062693D463946019890472A2804D162691A
:102790000121019890470125DFF8849262690121A7
:1027A00001989047A0F130010A290AD24F45E5DC93
:1027B00007EB870100EB4107303FDFD445F0100500
:1027C000ECE7E90601D46FF000476C280AD04C28EA
:1027D00014D0682815D06A280DD074281CD07A2807
:1027E0001AD01DE062690121019890476C2802D03F
:1027F00045F0040514E045F002050DE045F0200524
:102800000AE06269012101989047682802D045F0EA
:10281000080505E045F400656269012101989047CB
:10282000C4E9015765283DD019DC58287AD00CDC62
:10283000452837D004DC252826D0412831D131E085
:1028400046282FD047282CD12CE05B2877D0612850
:1028500028D063287CD0642823D15AE0D0E06F28A8
:1028600048D008DC66281DD067281BD0692821D0F5
:102870006E2816D127E0702845D0732868D07528B7
:1028800047D078280DD14DE0A1690B9888470546BF
:1028900025283FF469AFE1690B9888476D1C3FF428
:1028A0006AAFB3E023466A466FF001000B99AFF3BD
:1028B00000809EE045F040006060A80723464FF08E
:1028C000000236D43EE0E8077FF447AF2068011DE0
:1028D00021600068290501D506701BE7290701D58D
:1028E000068017E7A90703D5F117C0E9006111E7D2
:1028F00006600FE745F040006060A80723464FF0F0
:10290000080216D41EE040F60E0125EA01006060C0
:1029100016E045F040006060A80723464FF00A0229
:1029200007D40FE045F040006060A80708D52346B3
:1029300010226FF001000B99AFF3008059E007E01F
:10294000234610226FF001000B99FFF73BFD50E08A
:102950004FF000094F464B46632802D05B2806D053
:1029600040E0E80601D40120A06001273AE0626956
:102970000121019890475E2805D14FF00109626955
:10298000494601989047216939B900210A465346C2
:1029900043F82120491C0829FADBB0B3216969B941
:1029A000C11700EBD16253110AEB830122F01F0221
:1029B000821A01200B68904003430B606269012179
:1029C000019890475D28E8D1B9F1000F09D00020A7
:1029D000514651F82020D24341F82020401C0828BD
:1029E000F7DB02AB224600976FF001000B99AFF3C3
:1029F000008000280CDA401C08D1BBF1000F05D084
:102A00004FF0FF300DB0BDE8F08FFFE74046F9E72B
:102A1000E90701D108F1010806444FF0000B79E6FF
:102A2000CCCCCC0C70B58C1810F8015B15F00703FA
:102A300001D110F8013B2A1106D110F8012B03E057
:102A400010F8016B01F8016B5B1EF9D12B0705D45F
:102A50000023521E0DD401F8013BFAE710F8013BA8
:102A6000CB1A921C03E013F8015B01F8015B521EC4
:102A7000F9D5A142D8D3002070BDFEE7F0B50446D9
:102A800000200BA502460F4E0CE000BF02EBD273F4
:102A90005B10D707E35C09D003F00F03EB5C5840F1
:102AA000521C305CB2EB410FF0DBF0BD1B09F5E7C7
:102AB00030313233343536373839616263646566B4
:102AC00000000000AC97010838B500200D4C0090C4
:102AD000204605F053FA012804D10B4869460068E6
:102AE00016F054FA204605F03DFA06480A3005F083
:102AF00039FA0098002803D004494FF0805008604C
:102B000038BD000006050400B802002004ED00E016
:102B100070B54FF48065284606F0DAFD164E174C66
:102B200060B12946304607F0DEF8012820681BD046
:102B300020F008002060284606F0C4FD4FF48045D0
:102B4000284606F0C5FD002814D02946304607F077
:102B5000CAF8012820680AD020F01000206028461A
:102B6000BDE8704006F0AEBD40F00800E2E740F07E
:102B70001000F3E770BD0000000C01406C00002065
:102B800070B5402006F0A4FD244C60B140212448DB
:102B900007F0A9F8012820682FD020F0010020605C
:102BA000402006F08FFD4FF48075284606F090FD1A
:102BB0001C4E60B12946304607F095F80128206880
:102BC00024D020F002002060284606F07BFD4FF460
:102BD0000075284606F07CFD00281DD029463046A9
:102BE00007F081F80128206813D020F0040020604D
:102BF0002846BDE8704006F065BD40F00100206049
:102C000000221146052001F089F8C9E740F00200D2
:102C1000D9E740F00400EAE770BD00006C00002036
:102C200000100140000C01402DE9F04791460F468D
:102C300004464FF0010806F0FBFD40F2073630462F
:102C400006F090FD0025B246E61909E059F8251076
:102C5000204606F009FE5046241D6D1C06F082FD3C
:102C6000A642F3D806F08CFD4046BDE8F087FEE7AB
:102C700070B51B4D044600F001024FF48041284618
:102C800006F0A0FFC4F340024FF40041284606F0CE
:102C900099FFC4F380020121284606F093FFC4F394
:102CA000C0020221284606F08DFF0E4DC4F300122B
:102CB0008021284606F086FFC4F34012A915284655
:102CC00006F080FFC4F380126915284606F07AFFEB
:102CD000E20929152846BDE8704006F073BF0000E0
:102CE00000140140001801402DE9FC410746002472
:102CF0000E462546684600920DF088FB01462046A8
:102D000061F307000009022819D101A9009800F019
:102D1000B9F8009905460844019900900144081A41
:102D200002280CDB68460DF071FB60F3070404F029
:102D30000100387068460DF069FB307001252846A7
:102D4000BDE8FC812DE9FC5F8046DDE90EA0002492
:102D5000CDE90004994617460E462546DDF834B005
:102D600068460DF053FB60F30704200903282CD1BB
:102D7000C4F3C00188F80010C4F34100306004F0CF
:102D80000100387001A9009800F07CF80099054610
:102D90000844019900904418224669460C980DF0A9
:102DA00044FB90B10098201A0FD43068002804DD4D
:102DB00068460DF031FBA9F800000098211ACAF806
:102DC000001000990125CBF800102846BDE8FC9FB3
:102DD0002DE9FC4781460A98002400909A46164641
:102DE0008846254668460DF011FB0146204661F3F2
:102DF00007000009092826D101A9009800F042F82F
:102E0000009905460844019900904718381A02288D
:102E100019DB68460DF000FBA9F8000034600EE0F5
:102E20003168414502DD4FF0FF350CE068460DF09A
:102E3000EDFA31688B00491C31604AF803000098B4
:102E4000B842EDD301252846BDE8FC87F8B5012539
:102E500000240E4607460C60641C042C0FDC012184
:102E60006846B84701280AD19DF80000316800F093
:102E70007F0202FB0511ED0131600006ECD4204613
:102E8000F8BD0000024A10600248FFF7DFBF0000F3
:102E90000C010020393E000810B503460020CA1777
:102EA00001EB526424F07F02891ACAB2E1110029B1
:102EB00002DD00BF42F080021A5400F10100EEDC96
:102EC00010BD0000401C802801DA401C7047B0F59E
:102ED000804F01DA801C70470349884201DAC01C28
:102EE0007047001D70470000FFFF1F002DE9F843E9
:102EF00000248846164605464FF0FF37012100940E
:102F0000B047012816D169463046FFF79FFF681C7D
:102F10000099FFF7C1FF0099401C0B18434509DCDD
:102F200021B12844B0470099884203D1287860F342
:102F3000070427093846BDE8F88300002DE9F84367
:102F400007460090884614460025104600F082F897
:102F50008146FFF7B7FF404502DDA81EBDE8F883B4
:102F60002E46314666F307016846103115F0B4FD70
:102F700049460098FFF790FF009908440090207A96
:102F800004281DD02FA1684615F092FD0321684644
:102F900015F0A2FDA07E66F3070560F34105E07E13
:102FA00008B145F00405680707D594F83D0060F3C3
:102FB000C40594F83C0060F34515206C40B905E069
:102FC00022A1684615F074FD0421E0E7A06C08B169
:102FD00045F08005E06C08B9606D08B145F040052A
:102FE0002946684615F078FD218B684615F07AFD74
:102FF00004F10C0168460EC915F083FDE07E68B14E
:103000002434684694E80E00243C15F07AFD3034F0
:10301000684694E80E00303C15F073FD280605D58F
:1030200004F1400168460EC915F06BFD680605D530
:103030004C34684694E80E0015F063FD0098C01B00
:103040008CE700004D514973647000004D51545499
:103050000000000070B50446007A0025032802D065
:10306000042802D002E00C2500E00A2504F10C003F
:1030700007C800F0F5F80544E07EAD1C78B12434B3
:1030800094E80700243C00F0EBF83034064694E85E
:103090000700303C00F0E4F8304405442D1D206C5E
:1030A00008B9A16C29B1D4E9111200F0D9F805448E
:1030B000AD1CE06C08B9616D29B1D4E9141200F0BF
:1030C000CFF80544AD1C284670BD0E2200F0AFB805
:1030D0002DE9FC5F1C46129ECDE90060DDF838B09A
:1030E0009046DDF830A0DDE90F23894607465946B2
:1030F000204600F030F80546FFF7E4FE484503DDC2
:103100006FF00100BDE8FC9F302168F3C30164F358
:1031100042016AF3000101A815F0DEFC294601987E
:10312000FFF7BAFE019908440190DDE90F235946E3
:1031300001A815F0E6FC002C03DD01A80D9915F09F
:10314000D1FC324611990198FFF7A1F8019830445B
:103150000190C01BD6E770B50E46114604461A46CC
:103160003046049D00F07CF82844801C002C00DDD3
:10317000801C70BD2DE9FF4F83B0064610A889461C
:1031800090E880090024924625464146384600963C
:1031900000F036F80190FFF795FE484503DDA01ECC
:1031A00007B0BDE8F08F64F3070480346AF3C3040A
:1031B00024F00600801CC1B2684615F08DFCDDE9E4
:1031C0000001FFF769FE00990844009068460699DF
:1031D00015F088FC0FE000BF05EB450108EB81000E
:1031E00090E80E00684615F08CFC1BF82510684628
:1031F00015F072FC6D1CBD42EEDB0098801BCFE722
:103200002DE9F04102250F46064600240AE000BFE2
:1032100004EB440007EB800007C800F021F80544E8
:10322000641CED1CB442F3DB2846BDE8F08138B5E0
:10323000002304460090022901DA981E38BD194681
:1032400063F3070162F30711684615F045FC00219E
:103250000098FFF721FE009908440090001B38BD3C
:1032600010B510B1FFF75FF80146084610BDFEE744
:10327000704700002DE9F041154F002138460FF04E
:103280002DFF012808D1134E3078134C002528B1AA
:10329000124807E035706560BDE8F081104E307867
:1032A00070B110486168006830F8111038460FF0AE
:1032B00092FE6068401C606021888842EAD0EBE79B
:1032C00038466560BDE8F04100210FF084BE000083
:1032D000003C00403900002018000020640000205D
:1032E0003A0000206800002010B5FEF77FFF15F0BF
:1032F000E3FF18B104494FF080500860BDE810406A
:103300000020FEF77ABF000004ED00E00C480168E1
:1033100041F4700101600B48016841F00101016056
:1033200000214160C1620168074A114001604FF409
:103330007F018160016821F48021016010F050B9A3
:1033400088ED00E000100240FFFFF6EA70B51E4E67
:103350001C49304614F024FF1C4C98B1304614F040
:103360002BFE1B4A11786318491C117083F820004A
:1033700094F841001178884204D840F20531304673
:1033800014F0FAFE1349304614F00AFF002818D052
:10339000114D28782118401C28700978304614F007
:1033A0000FFE94F84000297888420AD8002028703F
:1033B00084F840003046BDE8704040F2073114F018
:1033C000DBBE70BD05030500004C00400007002077
:1033D00025000020070307002400002070B51E4EC2
:1033E0001C49304614F0DCFE1C4C98B1304614F0F9
:1033F000E3FD1B4A11786318491C117083F8200003
:1034000094F841001178884204D840F205313046E2
:1034100014F0B2FE1349304614F0C2FE002818D052
:10342000114D28782118401C28700978304614F076
:10343000C7FD94F84000297888420AD800202870F7
:1034400084F840003046BDE8704040F2073114F087
:1034500093BE70BD050305000050004042070020E8
:1034600027000020070307002600002070B51F4E2C
:103470001D49304614F094FE1D4CA0B1304614F0A6
:103480009BFD1C4A11786318491C11701A4983F876
:10349000200094F841000978884204D840F20531B0
:1034A000304614F069FE1549304614F079FE0028C4
:1034B00018D0134D28782118401C28700978304600
:1034C00014F07EFD94F84000297888420AD8002044
:1034D000287084F840003046BDE8704040F2073163
:1034E00014F04ABE70BD000005030500003801401D
:1034F0007C06002021000020230000200703070095
:103500002000002070B51E4E1C49304614F048FEC5
:103510001C4C98B1304614F04FFD1B4A11786318CB
:10352000491C117083F8200094F8410011788842FA
:1035300004D840F20531304614F01EFE13493046DF
:1035400014F02EFE002818D0114D28782118401CA8
:1035500028700978304614F033FD94F8400029783B
:1035600088420AD80020287084F840003046BDE820
:10357000704040F2073114F0FFBD70BD0503050037
:1035800000440040BE06002023000020070307007F
:1035900022000020FEE7000070B5064615F044FA50
:1035A000104C00224FF40061204606F00BFB002275
:1035B000A114204606F006FB0122D5032946204629
:1035C00006F000FB3046FFF753FB012015F06EF8C4
:1035D00000222946204606F0F5FABDE87040012099
:1035E00015F064B8001801400FB4054B10B503A9DD
:1035F000044A029800F030F810BC5DF814FB00009B
:10360000DD980008300300200FB4084B10B504A962
:1036100002AA039800F020F8044602A9002000F056
:103620004CFA204610BC5DF814FB0000BB3A0008C1
:10363000004870473803002002E008C8121F08C184
:10364000002AFAD170477047002001E001C1121F23
:10365000002AFBD1704700002DE9FF4F8DB00F46C7
:103660000546002606E025280BD0DDE90F1290471D
:103670006D1C761C28780028F5D111B03046BDE8C5
:10368000F08F0024A246A1460122EC4900E0044349
:1036900015F8013F203B02FA03F00842F7D12878E1
:1036A0002A2810D06FF02F022878A0F130010929C4
:1036B00014D80AEB8A0102EB410144F0020400EB4A
:1036C000010A6D1CF0E701CF5FEA000A03D544F45C
:1036D0000054CAF1000A44F002046D1C28782E2818
:1036E00017D115F8010F44F004042A280ED06FF00A
:1036F0002F022878A0F1300109290AD809EB8901A5
:1037000002EB410100EB01096D1CF2E757F8049B45
:103710006D1C28786C280FD006DC4C2817D0682840
:103720000DD06A2814D104E0742810D07A280FD163
:103730000DE044F400140AE044F4801401E044F481
:1037400040146978814202D104F580146D1C6D1C0F
:103750002A786E2A1FD00CDC632A31D004DC002AC0
:103760008BD0582A11D1A3E0642A68D0692A0CD1E1
:1037700065E0732A2ED004DC6F2A73D0702A04D13E
:103780009BE0752A6FD0782A6ED01046DDE90F12C3
:103790009047761C50E1C4F30250022806D003285B
:1037A00009D0042801CF09D0066045E101CFF11707
:1037B000C0E9006140E101CF06803DE106703BE1D8
:1037C00017F8040B8DF8000000208DF80100EB467F
:1037D000012003E057F804BB4FF0FF3061074FF0C2
:1037E000000102D40DE008F10101884649450FDAD5
:1037F0008045F8DB1BF808100029F4D108E008F137
:10380000010188468142FADB1BF808100029F6D135
:10381000DDE90F23AAEB08008146214600F036F9C6
:10382000304400EB080604E0DDE90F121BF8010B41
:103830009047B8F10108F7D221464846F7E00A213F
:10384000C4F302534FF0000B0891022B04D001CFB8
:10385000C117032B09D00AE0FF1D27F00707F7E87F
:10386000020108E032E01FE020E000B2C117042BA3
:1038700001D140B2C117031E71F1000307DA4FF006
:10388000000CD0EB0C006CEB01012D2302E02305B2
:1038900004D52B238DF82430012303E0E30701D066
:1038A0002023F7E7984658E00A2110E010210EE0A7
:1038B00010204FF0000B08900CE010214FF0000B8F
:1038C00044F004044FF00809089103E008214FF088
:1038D000000B0891C4F30253022B04D001CF002146
:1038E000032B06D006E0FF1D27F00707F7E80201CB
:1038F00003E080B2042B00D1C0B24FF000082307D0
:103900002BD5702A07D0DDF820C08CF0100C5CEAB3
:103910000B0C05D00EE040238DF82430012308E085
:1039200050EA010306D030238DF824308DF825208D
:1039300002239846DDF820C08CF0080C5CEA0B0CE2
:103940000BD150EA010301D1630706D530238DF86E
:1039500024304FF00108A9F10109582A04D038A2F7
:103960000B9208AA0A920BE03AA2F9E75B46089A82
:10397000FEF75CFC0B9B9B5C0A9A521E0A9213702A
:1039800050EA0102F2D10A98ADEB000000F1200BE1
:10399000600702D524F4803401E04FF00109D945D5
:1039A00002DDA9EB0B0000E0002000EB0B0141441D
:1039B0000890AAEB010AE00306D4DDE90F232146B3
:1039C000504600F063F806444FF0000908E009A9EA
:1039D00011F80900DDE90F12904709F10109761C81
:1039E000C145F4DBE0030CD5DDE90F232146504649
:1039F00000F04CF8064404E0DDE90F123020904757
:103A0000761C0899481E08900029F5DC08E00A9801
:103A10000A990078491C0A91DDE90F129047761C3B
:103A2000BBF10001ABF1010BF1DC21465046DDE9B1
:103A30000F2300F019F806446D1C1BE6092801004D
:103A40003031323334353637383961626364656614
:103A500000000000303132333435363738394142D6
:103A600043444546000000002DE9F041044600258E
:103A70001E461746880404D405E039462020B04786
:103A80006D1C641EF9D52846BDE8F0812DE9F04192
:103A9000044600251E469046C80301D5302700E0A5
:103AA0002027880404D505E041463846B0476D1C00
:103AB000641EF9D52846BDE8F0810A68531C0B60E6
:103AC000107070472DE9F0470546143016468846B9
:103AD00081460FF033FCC0B32878E96A09F0C4FDD1
:103AE00004004FF0FF372DD02046C4F804800FF0BB
:103AF000C9F82672214648460FF012FC48B36568A3
:103B0000002128460FF0F2FE0021284612F00AF9A3
:103B10000021284612F04AFB04220021284611F019
:103B200017FB0021284610F049FB0020606004F1DB
:103B3000100005460FF0CCFB28460FF0EEFB2046A8
:103B400009F0A8FF3846BDE8F087FFE76FF00500F1
:103B5000F9E7EB6A1BB1002211462846984700207E
:103B6000F1E700001FB512A20C4607CA01AB83E8BB
:103B70000700092201A9D02006F0D0FB012813D1AB
:103B8000BDF8050041BA2160BDF8070042BA626085
:103B9000BDF8090043BAA360BDF80B0040BAE0606D
:103BA000009006A0FFF720FD04B0002010BD00002B
:103BB000FFFFFFFFFFFFFFFFFF00000061646330B6
:103BC00020646174613A256420616463312064611A
:103BD00074613A2564206164633220646174613ADF
:103BE0002564206164633320646174613A25640D47
:103BF0000A00000010B50E49044601208863486B96
:103C0000012240F0300048633431002007F0AAFD63
:103C100000221146042000F081F820460FF02CF815
:103C20000022BDE810401146012000F077B80000E6
:103C3000940000202DE9F041884606460024154DE9
:103C40000FF017FB04EB440155F8311041B10FF0B0
:103C500036FB641C042CF3DB4FF0FF30BDE8F08131
:103C600004EB440745F837600FF029FB05EBC7016B
:103C700000204860088148813278102A02D15FEA2A
:103C8000080200D001228A81C8810861486120466B
:103C9000E4E7000088B0002010B505F03FFABDE869
:103CA00010400022024941F288300FF099BB000019
:103CB000993C000870B540F205600CF067FB144DAC
:103CC0004FF48054234603221021284605F0B8FF04
:103CD00000222146284605F075FF022200213320EC
:103CE0000AF0DCFD0FF09EF90A48E11082881020EE
:103CF0000FF04AF940F206600CF048FB0123032262
:103D00001021054805F09CFF04F05CFB002070BD0D
:103D100000140140380000200018014070B5214D0A
:103D2000214C062836D2DFE800F003102A2D323766
:103D300000200FF015FA04F0C3FB002128460FF015
:103D4000A9F900206070A07024E017482178103095
:103D50004FF4806250F821101448A1F580610EF0F4
:103D6000B9FF0120607004F0EFFB002128460FF03E
:103D7000A3F901200FF0F4F90CF09AFB0AE004F02B
:103D800015FC07E0087808490831087102E00120B5
:103D900000F00EF8012070BDBDE87040002000F07A
:103DA00007B80000003C00403800002084070020D5
:103DB00070B5074D02464FF480542146284605F061
:103DC00001FF21462846BDE8704005F091BF000084
:103DD0000014014010B50CF08DF9BDE810400CF056
:103DE00081B9000010B5094C0021A0F10B0304EBD0
:103DF00080021F2B02D8B2F8141C04E0401E0928D0
:103E000001D8B2F8001C084610BD00000060004058
:103E100010B5084CA0F10B0304EB80021F2B02D855
:103E2000A2F8141C10BD401E0928FBD8A2F8001CE3
:103E300010BD00000060004030B504460648002375
:103E4000026803E012F8015B25705B1C8B42F9DB12
:103E50000260084630BD00000C01002070B53F4CE8
:103E60003FA12046FFF7D0FB054660193DA1FFF7B3
:103E7000CBFB0544601941A1FFF7C6FB054460195F
:103E800045A1FFF7C1FB0544601946A1FFF7BCFB44
:103E90004619A4F1A405A01947A16A68FFF7B4FB6D
:103EA0000644A019A4F19B0246A1FFF7ADFB06440E
:103EB000A01948A1FFF7A8FB0644A01946A1FFF7E7
:103EC000A3FB0644A0193CA1EA6AFFF79DFB064448
:103ED000A019A4F173023BA1FFF796FB0644A019B9
:103EE0003CA1FFF791FB0644A0193FA1FFF78CFB13
:103EF0000644A01930A16A6DFFF786FB0644A0199D
:103F0000A4F14B022FA1FFF77FFB0644A01931A1BA
:103F1000FFF77AFB0644A01937A1FFF775FB0644AB
:103F2000A01925A1EA6FFFF76FFB85196019A4F1AD
:103F3000230224A1FFF768FB0544601932A1FFF7B3
:103F400063FB0544601930A1FFF75EFB2844204461
:103F50002DA1FFF759FB204670BD0000201900205D
:103F60007B00000022646174615F74797065223A9D
:103F7000226576656E74222C000000002273747234
:103F800065616D5F6964223A227265706F72746454
:103F9000617461222C0000002264617461223A7B0A
:103FA000000000002273657269616C4E756D626578
:103FB00072223A7B000000002274696D65223A2566
:103FC000642C00002276616C7565223A22257322EA
:103FD000000000007D2C00002273656E736F724933
:103FE00064223A7B0000000022616C61726D54799A
:103FF0007065223A7B00000022616C615061726141
:104000006D223A7B000000007D0000002DE9FC4796
:10401000BD4C00262046BDA1FFF7F6FA0546601903
:10402000BBA1FFF7F1FA05446019BFA1FFF7ECFA55
:1040300005446019C3A1FFF7E7FA05446019C4A15C
:10404000FFF7E2FA4719A4F51F784546E019C5A124
:10405000D8F80420FFF7D8FA0744E019A4F2732235
:10406000C3A1FFF7D1FA0744E019C5A1FFF7CCFAC5
:104070000744E019C3A1FFF7C7FA0744E019B9A143
:104080006A68FFF7C1FA0744E019C1A16A6BFFF73C
:10409000BBFA0744E019BAA1FFF7B6FA0744E019E2
:1040A000BFA1FFF7B1FA0744E019AEA16A68FFF7B4
:1040B000ABFA0744E019B6A12A6BFFF7A5FA07444B
:1040C000E019AFA1FFF7A0FA0744E019B8A1FFF784
:1040D0009BFA0744E019A3A16A68FFF795FA074421
:1040E00095F88C20E019AAA1FFF78EFA0744E01991
:1040F000A3A1FFF789FA0744E019B1A1FFF784FAF9
:104100000744E01997A16A68FFF77EFAC51960199C
:10411000AFA1FFF779FA0544B04F20E006EB460166
:1041200008EB81000A23D0F8A010B1FBF3F203FBE7
:104130001212B1FBF3F1CDE90012D0F89C306019F6
:10414000A7A2A8A1FFF760FA05443878401E86426E
:1041500004D06019AEA1FFF757FA0544761C3878F1
:104160008642DBDBA24626466019AAA1FFF74CFA7D
:104170004419301982A1FFF747FA04443019A6A167
:10418000FFF742FA05194446701976A1D8F80420C1
:10419000FFF73AFA054470198DA1FFF735FAA046EA
:1041A000054400269F4F4FF06409544621E000BFAC
:1041B00006EB460108EB81034846D3F80811B1FB32
:1041C000F0F2B1FBF9F009FB1212CDE90002D3F8CD
:1041D0000431601994A283A1FFF716FA05443878D8
:1041E000401E864204D0601989A1FFF70DFA0544EC
:1041F000761C38788642DBDB601986A1FFF704FA6B
:10420000054460195EA1FFF7FFF90544601987A115
:10421000FFF7FAF90544601952A1D8F80420FFF716
:10422000F3F9054460196AA1FFF7EEF90544002689
:10423000824F20E006EB460108EB81024846D2F8A7
:104240007011B1FBF0F3B1FBF9F009FB1313CDE9E9
:104250000003D2F86C31601979A262A1FFF7D4F99A
:1042600005443878401E864204D0601968A1FFF7E3
:10427000CBF90544761C38788642DBDB601965A1F2
:10428000FFF7C2F9054460193DA1FFF7BDF90544E8
:1042900060196CA1FFF7B8F946194546A01931A17C
:1042A000D8F80420FFF7B0F9064495F8CC21A019FE
:1042B00037A1FFF7A9F90644A01931A1FFF7A4F926
:1042C0000644A01963A1FFF79FF90644A01925A190
:1042D0006A68FFF799F90644A0192DA1D5F8D421F1
:1042E000FFF792F9851960195FA1FFF78DF9054471
:1042F00060195DA1FFF788F9284420445AA1FFF70F
:1043000083F90148BDE8FC87201900207B000000EC
:1043100022646174615F74797065223A2265766502
:104320006E74222C000000002273747265616D5F50
:104330006964223A22686561727444617461222C56
:10434000000000002264617461223A7B00000000DA
:104350002273657269616C4E756D626572223A7B7B
:10436000000000002274696D65223A25642C00006B
:104370002276616C7565223A2225732200000000C6
:104380007D2C0000226C65617665223A7B0000007E
:104390002276616C7565223A2225642200000000B5
:1043A000226C6561766554696D65223A7B00000078
:1043B000226468537461747573223A7B00000000B4
:1043C0002274656D704C697374223A7B00000000A2
:1043D0002276616C7565223A225B00009C00002009
:1043E000430000007B5C2264657669636549645C18
:1043F000223A5C22257325785C222C5C2270617243
:10440000616D5C223A5C2225642E25645C227D006D
:104410002C0000005D220000226761734C697374F8
:10442000223A7B009E0000205200000022736D6F34
:104430006B654C697374223A7B0000009D0000207C
:104440005900000022646366537461747573223AE4
:104450007B000000226468456C656374726963695F
:104460007479223A7B0000007D00000010B50EA098
:10447000FFF7BAF8134C012204F1340194F8340028
:1044800000F0DF006063002007F06CF900221146A5
:104490001046FFF743FC002211460520FFF73EFCC3
:1044A0000120E06310BD00002D2D2D2D2D20636116
:1044B0006E63656C20616C61726D202D2D2D2D2D2C
:1044C0000D0A0000940000207FB510250022012174
:1044D000022008F0D5F8040003D54FF0FF3004B0F7
:1044E00070BD02208DF80100352007F0DDFCADF82D
:1044F00002000CA006F0D8FC01900020029003906E
:104500002A466946204607F035FC0028204604DA92
:1045100007F0C0FB6FF00100E1E707F0BBFB0120F3
:10452000DDE70000382E382E382E380001490020F3
:10453000087070477C1800200246302005F076BFD6
:1045400070B505464FF6FF7000224AF201040DE0F7
:10455000AB5C58400023C6074FEA500000D06040D3
:104560005B1CDBB2082BF6D3521CD2B28A42EFD3CB
:1045700070BD7FB50E26DDE90845ADF80440ADF805
:104580000060ADF80610ADF80C20ADF802300295D1
:1045900032466946FDF77BFE7FBDF0B50C2767F319
:1045A0000F0462F31F4463F30F05059E61F31F457B
:1045B000046045608660F0BDF0B587B00DF1300C49
:1045C0009CE8F0004FF0180CADF800C0ADF80420E6
:1045D0004FF0010CADF802C0ADF80610ADF80C407C
:1045E0000293ADF80E5018226946CDE90467FDF735
:1045F0004EFE07B0F0BD00007CB504464FF4F671E6
:10460000F748FDF75DFEF64D14F8040F287060784A
:104610006870A078A870E078E870207928716079D7
:104620006871A079A871E079E871207A2872607ABF
:104630006872A07AA872E07AE87294F8E3012873AD
:1046400094F8E401687394F8E501A87394F8E6011E
:10465000E873207B2874607B6874A07BA874E07B7F
:10466000E874607C217C00EB0120A883E07CA17CC5
:1046700000EB0120E883607D217D00EB0120288490
:10468000E07DA17D00EB01206884607E217E00EB4F
:104690000120A884E07EA17E00EB0120E884607FF9
:1046A000217F00EB01202885E07FA17F00EB012026
:1046B000688594F8210094F82010012600EB012071
:1046C000A88594F8230094F8221000EB0120688656
:1046D00094F8BF0194F8BE1100EB0120E88594F82E
:1046E000C10194F8C01100EB0120288694F8241031
:1046F0000020241F01297DD085F8380094F8291066
:10470000012978D085F8390094F82A10012973D04E
:1047100085F83A0014F82B0F69460AF01FF99DF846
:10472000000028769DF8010068769DF80200A876C2
:104730009DF80300E8769DF8040028759DF80500B3
:1047400068759DF80600A8759DF80700E875607803
:1047500085F83B00A07885F83C002079E17800EBF3
:104760000120A886A079617900EB0120E886E07934
:1047700085F83D00607A85F83E00207A85F83F0094
:10478000A07A85F8400000202B3C21182A1891F8C7
:10479000C611401C82F842102028F6DB00202118A8
:1047A0002A1891F83A10401C82F862102028F6DB93
:1047B000002021182A1891F85A10401C82F8821003
:1047C0001028F6DB002021182A1891F86A10401CE6
:1047D00082F892101028F6DB002128466218431850
:1047E00092F87A20491C83F8A2204029F6DB0021A8
:1047F000621802E0F0E0F7E0F9E0431892F8BA201E
:10480000491C83F8E2202029F2DB002162184318BA
:1048100092F8DA20491C83F802212029F6DB54F8AB
:10482000FA1F09BAE27821F0FF011143C0F8241100
:104830002169E27C09BA21F0FF011143C0F8281177
:10484000216A94F8232009BA21F0FF011143C0F82E
:104850002C11216B94F8332009BA21F0FF01114388
:10486000C0F830116168E27909BA21F0FF01114303
:10487000C0F834116169E27D09BA21F0FF011143EA
:10488000C0F83811616A94F8272009BA21F0FF01B5
:104890001143C0F83C11616B94F8372009BA21F03C
:1048A000FF011143C0F84011A168E27A09BA21F072
:1048B000FF011143C0F84411A169E27E09BA21F059
:1048C000FF011143C0F84811A16A94F82B2009BADE
:1048D00021F0FF011143C0F84C11A16B94F83B206B
:1048E00009BA21F0FF011143C0F85011E16809BA7B
:1048F00021F0FF01E27B1143C0F85411E169E27F2E
:1049000009BA21F0FF011143C0F85811E16A94F887
:104910002F2009BA21F0FF011143C0F85C11E16BAF
:1049200094F83F2009BA21F0FF011143C0F860114B
:1049300094F8A610FA3C79B180F8646194F8A1115A
:1049400080F8651100216218431892F8A221491CD1
:1049500083F866212029F6DB94F87E1179B180F87E
:10496000866194F87F1180F887110021621843183E
:1049700092F88021491C83F888212029F6DB94F8DD
:104980005C1179B180F8A86194F85D1180F8A911E3
:1049900000216218431892F85E21491C83F8AA216D
:1049A0002029F6DB94F83A1179B180F8CA6194F8BD
:1049B0003B1180F8CB1100216218431892F83C217A
:1049C000491C83F8CC212029F6DB94F8E61180F805
:1049D0004110044908607CBD85F838608EE600000F
:1049E000B81400200801002085F839608CE685F8AD
:1049F0003A608FE610B504460078FF2813D160783E
:104A0000AA2810D1E078A27800EB022088420AD1CF
:104A1000491E89B22046FEF731F894F8EB11814225
:104A200001D1002010BD4FF0FF3010BD58B1026A17
:104A3000002A0FD0137B082B0CD10968526A9142CF
:104A400008D100F095BA04A340F225320EA112A0BD
:104A5000FEF7CABD704700002E2E5C2E2E5C2E2E57
:104A60005C54686972645F70617274795C6C7769B8
:104A7000702D312E342E315C7372635C636F7265FE
:104A80005C646863702E63006E6574696620213D06
:104A9000204E554C4C000000417373657274696F71
:104AA0006E2022257322206661696C656420617422
:104AB000206C696E6520256420696E2025730D0ABF
:104AC000000000002DE9FC41050017D02C6AD4B18C
:104AD000616B4FF03C034F1C4FF480364FF00102E6
:104AE0004FF6FF7019D01E31B1FBF3F1B14200D384
:104AF00001460904090CA1830ED00EE028A34FF44F
:104B0000697233A103E026A340F2A63237A13DA08B
:104B1000FEF76AFDBDE8FC81A283A16B4F1C0AD0A1
:104B20001E31B1FBF3F1B14200D301460904090C77
:104B3000E18300D1E283A28BE18B8A4202D309B1E7
:104B40000021A183A17B09B1A06A09E094F8241097
:104B50007F2901D8FF2003E0C02901D36FF07F40F7
:104B60000090E06A019028B9606A0099084040F01E
:104B70008070019004F12401284609F047FE69463F
:104B8000284609F077FE01A9284609F03AFE284692
:104B900009F074FE0A21204601F0B8F9BAE70000D6
:104BA0002E2E5C2E2E5C2E2E5C54686972645F7013
:104BB000617274795C6C7769702D312E342E315CA2
:104BC0007372635C636F72655C646863702E63000C
:104BD000646863705F62696E643A206E65746966CA
:104BE00020213D204E554C4C00000000646863704D
:104BF0005F62696E643A206468637020213D204ED4
:104C0000554C4C00417373657274696F6E20222598
:104C10007322206661696C6564206174206C696E22
:104C20006520256420696E2025730D0A00000000B0
:104C300070B5046A05460821204601F067F9002294
:104C400004F12401284604F059F8607B4FF4FA710E
:104C5000401C607340F2E730B0FBF1F0608370BD40
:104C6000164810B5046825E0216A11B3C88B421EAE
:104C7000CA83012806D0226A918B481E908301299D
:104C80000CD016E0216A2046097B012903D00A29AD
:104C900001D005290DD100F0D3FE0AE0216A20469B
:104CA000097B012903D00A2901D0052901D101F08E
:104CB00077F82468002CD7D110BD00002002002016
:104CC0002DE9F04117460C4606002ED0002C37D0B7
:104CD0002069002806D059A340F27E6263A16DA02E
:104CE000FEF782FC6069002806D054A340F27F6280
:104CF00073A168A0FEF778FC00224FF49A7529464C
:104D0000104609F06FFE2061002823D04089A84298
:104D100006D24AA340F2866273A15EA0FEF764FC4D
:104D2000617B8148002918D01AE044A340F27C62DC
:104D30007EA158A0FEF758FC6FF00D00BDE8F08191
:104D40003EA340F27D6281A152A0FEF74DFC6FF0C0
:104D50000500F3E74FF0FF30F0E70168491C016000
:104D600000682060206900254168012061610870A9
:104D700061694870616996F8260088706069C5703D
:104D8000206807F08FF86169082F48606069058125
:104D9000606945816069C56008D0042F06D0032F83
:104DA00007D1207B052801D0042802D161697068F1
:104DB000C86060690561606945616069856100205E
:104DC00096F82610814203D9311891F8271000E097
:104DD000002100F11C026369401C80B29954102824
:104DE000EED3002000F12C016269401C80B25554C2
:104DF0004028F7D35FF0000000F16C016269401CAD
:104E000080B255548028F7D361695848C1F8EC0046
:104E100025830020626900F1F0015054401C80B2EB
:104E20004428F7D301223521204600F027FA3946DD
:104E3000204600F073FA002080E700002E2E5C2E42
:104E40002E5C2E2E5C54686972645F706172747996
:104E50005C6C7769702D312E342E315C7372635C1B
:104E6000636F72655C646863702E6300646863706E
:104E70005F6372656174655F6D73673A2064686330
:104E8000702D3E705F6F7574203D3D204E554C4C2B
:104E900000000000417373657274696F6E202225F3
:104EA0007322206661696C6564206174206C696E90
:104EB0006520256420696E2025730D0A000000001E
:104EC000646863705F6372656174655F6D73673A90
:104ED00020646863702D3E6D73675F6F7574203D4D
:104EE0003D204E554C4C0000646863705F637265F2
:104EF0006174655F6D73673A20636865636B2074E6
:104F000068617420666972737420706275662063CC
:104F1000616E20686F6C64207374727563742064B2
:104F20006863705F6D736700EC01002064686370F4
:104F30005F6372656174655F6D73673A206E657457
:104F4000696620213D204E554C4C0000646863701A
:104F50005F6372656174655F6D73673A206468634F
:104F60007020213D204E554C4C000000638253635D
:104F7000F8B5046A06460C21204600F0C7FF04225B
:104F800021463046FFF79CFE05001ED10422322147
:104F9000204600F073F9606A06F0CCFF0146204617
:104FA00000F01EFA204600F0E5FA208BF03081B2C6
:104FB00020690AF029FA009643230A4A21696068A9
:104FC00012F022FF204600F00FF8607B4FF4FA71D8
:104FD000401C607342F60310B0FBF1F0608328467A
:104FE000F8BD00003899010810B5040003D020690D
:104FF000002809D00FE0BDE8104010A340F2C962BC
:105000001AA122A0FEF7F0BA0CA340F2CA622AA1AC
:105010001EA0FEF7E9FA6069002806D107A340F256
:10502000CB622FA119A0FEF7DFFA206908B10AF0C0
:10503000BFF800202061606110BD00002E2E5C2EA4
:105040002E5C2E2E5C54686972645F706172747994
:105050005C6C7769702D312E342E315C7372635C19
:10506000636F72655C646863702E6300646863706C
:105070005F64656C6574655F6D73673A206468632F
:105080007020213D204E554C4C000000417373654B
:105090007274696F6E2022257322206661696C65C7
:1050A00064206174206C696E6520256420696E201F
:1050B00025730D0A00000000646863705F64656C0E
:1050C0006574655F6D73673A20646863702D3E7028
:1050D0005F6F757420213D204E554C4C0000000040
:1050E000646863705F64656C6574655F6D73673A6F
:1050F00020646863702D3E6D73675F6F7574202147
:105100003D204E554C4C0000F8B5046A0546002081
:1051100060620621204600F0F9FE01222146284661
:10512000FFF7CEFD060030D102223921204600F0E3
:10513000A5F8A98C204600F0CFF90422372120469B
:1051400000F09CF80121204600F0E8F803212046F9
:1051500000F0E4F81C21204600F0E0F8062120468B
:1051600000F0DCF8204600F005FA208BF03081B228
:1051700020690AF049F900954323114A21696068C2
:1051800012F042FE2046FFF72FFF607B401CC0B2AA
:105190006073062802D20121814000E03C2101EB2E
:1051A0004100C0EBC1104FF6FF7101EAC0004FF49F
:1051B000FA7100F2F310B0FBF1F060833046F8BDF5
:1051C0003899010870B50B48002504680EE0206A84
:1051D00058B1418B012903D9A1F10101418304E0B8
:1051E00003D14583204600F0FBFF2468002CEED15C
:1051F00070BD000020020020F8B5046A00201E4D9A
:10520000A062E062E978A5F1280609B1F16821639E
:10521000297909B1316901E0216B49086163697934
:1052200009B1716900E0216BA163A168096961623C
:10523000A97921B1B06906F035FEA0620120A07302
:10524000E87918B1F06906F02DFEE06200240BE069
:1052500006EB8400006A06F025FE009069462046B1
:1052600001F08CFB641CE4B22819007A002801D0FC
:10527000022CEDD3F8BD0000AC59002070B50E46ED
:105280000446018B901C08441546442806D90BA3FC
:1052900040F2F642154916A0FEF7A6F9208B616987
:1052A0000144401C208381F8F060208B6169014437
:1052B000401C208381F8F05070BD00002E2E5C2E23
:1052C0002E5C2E2E5C54686972645F706172747912
:1052D0005C6C7769702D312E342E315C7372635C97
:1052E000636F72655C646863702E6300689A01087E
:1052F000417373657274696F6E2022257322206674
:1053000061696C6564206174206C696E6520256438
:1053100020696E2025730D0A0000000070B5044658
:10532000008B0D46442806D307A340F2015212A178
:1053300020A0FEF759F9208B61690144401C2083AD
:1053400081F8F05070BD00002E2E5C2E2E5C2E2EAB
:105350005C54686972645F70617274795C6C7769BF
:10536000702D312E342E315C7372635C636F726505
:105370005C646863702E6300646863705F6F707450
:10538000696F6E5F627974653A20646863702D3E60
:105390006F7074696F6E735F6F75745F6C656E208C
:1053A0003C20444843505F4F5054494F4E535F4C4C
:1053B000454E0000417373657274696F6E2022253B
:1053C0007322206661696C6564206174206C696E6B
:1053D0006520256420696E2025730D0A00000000F9
:1053E00070B50446008B0D46001D442806D913A352
:1053F0004FF4A2621DA12DA0FEF7F6F8208B626982
:10540000290E0244401C208382F8F010208B626930
:10541000290C0244401C208382F8F010208B626922
:10542000290A0244401C208382F8F010208B616915
:105430000144401C208381F8F05070BD2E2E5C2E5C
:105440002E5C2E2E5C54686972645F706172747990
:105450005C6C7769702D312E342E315C7372635C15
:10546000636F72655C646863702E63006468637068
:105470005F6F7074696F6E5F6C6F6E673A206468FF
:1054800063702D3E6F7074696F6E735F6F75745FBC
:105490006C656E202B2034203C3D20444843505FF7
:1054A0004F5054494F4E535F4C454E004173736506
:1054B0007274696F6E2022257322206661696C65A3
:1054C00064206174206C696E6520256420696E20FB
:1054D00025730D0A0000000070B50446008B0D46D0
:1054E000801C442806D90BA34FF4A162154916A0CD
:1054F000FEF77AF8208B6269290A0244401C208357
:1055000082F8F010208B61690144401C208381F8EF
:10551000F05070BD2E2E5C2E2E5C2E2E5C546869D1
:1055200072645F70617274795C6C7769702D312E72
:10553000342E315C7372635C636F72655C646863A4
:10554000702E6300249A0108417373657274696F49
:105550006E2022257322206661696C656420617467
:10556000206C696E6520256420696E2025730D0A04
:105570000000000010B5040003D06069002809D0C5
:105580000FE0BDE8104016A340F2DE6220A129A082
:10559000FEF72AB812A340F2DF6231A125A0FEF780
:1055A00023F8208B442806D30DA34FF4DC6237A1E7
:1055B00020A0FEF719F8208B6269FF210244401CED
:1055C000208382F8F010002105E062690244401C4B
:1055D000208382F8F010208B4428F6D310BD000001
:1055E0002E2E5C2E2E5C2E2E5C54686972645F70C9
:1055F000617274795C6C7769702D312E342E315C58
:105600007372635C636F72655C646863702E6300C1
:10561000646863705F6F7074696F6E5F74726169E4
:105620006C65723A206468637020213D204E554CB1
:105630004C000000417373657274696F6E202225FF
:105640007322206661696C6564206174206C696EE8
:105650006520256420696E2025730D0A0000000076
:10566000646863705F6F7074696F6E5F7472616994
:105670006C65723A20646863702D3E6D73675F6F6E
:10568000757420213D204E554C4C0A0064686370AF
:105690005F6F7074696F6E5F747261696C65723A86
:1056A00020646863702D3E6F7074696F6E735F6FF6
:1056B00075745F6C656E203C20444843505F4F50CA
:1056C00054494F4E535F4C454E0A00002DE9FE4FA2
:1056D00004460020894602900A219E48FCF7F0FD0E
:1056E000B9F80A002C2814D3D9F80400A060B9F83E
:1056F0000800DFF86082F0254F4604E06A1A401A7D
:105700003F6895B280B227B17989A942F6D983461C
:10571000F1E06FF00100BDE8FE8F00BFA81C80B271
:1057200001907A89681C4FF0FF36824203D90AEB58
:105730000500407803E0386808B1406800783429F3
:1057400004465DD00CDC032935D004DC002925D0CB
:1057500001290DD127E0062936D0332908D146E0AA
:10576000352955D036295CD03A2962D03B2968D0FA
:1057700000242844801C85B2002C0ED0002000900C
:105780000A2E06D374A340F2AD527FA183A0FDF789
:105790002BFF18F8060000285BD09CE000206D1E4F
:1057A0000446ADB2E5E7042803D06BA340F27B5278
:1057B00022E00626DDE70424042803D266A34FF482
:1057C000B06210E00726D4E7810704D062A340F25C
:1057D00085527DA16AE0082800D30824A04204D2A3
:1057E0005DA34FF4B1627CA160E00826C1E7042804
:1057F00004D059A340F28C527CA157E00326B8E7AD
:10580000012803D054A34FF4B26206E00026B0E7AB
:10581000012804D050A340F2945277A146E001261B
:10582000A7E7042803D04CA34FF4B362E4E70226B1
:105830009FE7042803D048A340F29C52DCE70426EB
:1058400097E7042803D044A34FF4B462D4E70526B5
:105850008FE7042C01D2224600E004226946384634
:10586000019B09F015FC042C18D9A00704D03AA319
:1058700040F2B35263A119E0012108F80610009824
:1058800006F010FB3349241F2839E4B241F8260002
:105890000198001D80B2761C019071E7042C0BD09A
:1058A000012C0DD02CA340F2BD525BA13BA0FDF713
:1058B0009BFE6FF005002EE7009806F03BFB01E031
:1058C0009DF800000090012008F80600214800998A
:1058D000283840F826107889A84217D8291AABEB47
:1058E00000008DB21FFA80FB5D4517D2BBF1000F9F
:1058F00014D03F6817B1D7F804A008E016A340F20F
:10590000C9524AA125A0FDF76FFE07E037B11AF88A
:105910000510FF2902D05D45FFF400AF98F80000A4
:1059200058B10C4800222838006888F80020012867
:105930000DD0022804D0032807D002980028BAD03E
:1059400000202C2502906C20D6E6012002906C25C8
:10595000EC20D1E6AC5900202E2E5C2E2E5C2E2E93
:105960005C54686972645F70617274795C6C7769A9
:10597000702D312E342E315C7372635C636F7265EF
:105980005C646863702E6300636865636B206465A4
:10599000636F64655F69647800000000417373653C
:1059A0007274696F6E2022257322206661696C65AE
:1059B00064206174206C696E6520256420696E2006
:1059C00025730D0A000000006C656E202520342030
:1059D0003D3D2030000000006C656E203E3D20649F
:1059E00065636F64655F6C656E0000006C656E20BA
:1059F0003D3D2034000000006C656E203D3D2031AF
:105A0000000000006465636F64655F6C656E20254F
:105A10002034203D3D203000696E76616C69642041
:105A20006465636F64655F6C656E00006E657874B5
:105A3000207062756620776173206E756C6C000053
:105A4000F8B5046A05460421204600F05FFA0322F7
:105A500021462846FFF734F906001BD102223921DE
:105A60002046FFF70BFCA98C2046FFF735FD2046AA
:105A7000FFF780FD208BF03081B2206909F0C4FC73
:105A8000009543230F4A2169606812F0BDF9204652
:105A9000FFF7AAFA607B401CC0B260730A2804D2E8
:105AA0004FF47A7110FB01F001E042F2107080B205
:105AB0004FF4FA7100F2F310B0FBF1F0608330465E
:105AC000F8BD000038990108F8B5046A06460321BC
:105AD000204600F01BFA032221463046FFF7F0F87B
:105AE000050028D1022239212046FFF7C7FB4FF4D9
:105AF00010712046FFF7F0FC042232212046FFF708
:105B0000BDFB606A06F016FA01462046FFF768FC06
:105B10002046FFF72FFD208BF03081B2206909F07D
:105B200073FC009643230F4A2169606812F06CF9F8
:105B30002046FFF759FA607B401CC0B260730A2808
:105B400004D24FF47A7110FB01F001E042F21070C0
:105B500080B24FF4FA7100F2F310B0FBF1F0608301
:105B60002846F8BD389901082DE9F041056A044638
:105B70005768A868164630B142A340F211624DA1A1
:105B800051A0FDF731FD70894FF000082C2872D329
:105B9000387802286FD1002094F8261008E02218E7
:105BA0003B1892F827201B7F9A4264D1401CC0B258
:105BB0008142F4D8786806F0BDF9296888425AD144
:105BC00031462846FFF782FD00BB4A494878E8B1D4
:105BD000A1F128021079052804D0062817D0022840
:105BE00036D048E0287B012806D003280BD00428B3
:105BF00009D0052807D03EE02046FFF7FDFA2046F1
:105C0000FFF716F837E02046FEF75CFF33E0287B0D
:105C1000032805D0012803D0042801D005282AD163
:105C20002046276A08F0E0FD3349204608F0EEFDE3
:105C30003149204608F0E5FD2F49204608F01AFEBC
:105C40000C21384600F062F92046FFF75DFA12E0B9
:105C5000287B06280FD1A5F81A802746246A887861
:105C600048B1906806F01EF92062A0680069606281
:105C7000384600F0D7F83046C5F80880BDE8F04156
:105C800009F096BA2E2E5C2E2E5C2E2E5C5468697E
:105C900072645F70617274795C6C7769702D312EFB
:105CA000342E315C7372635C636F72655C6468632D
:105CB000702E63007265706C79207761736E277443
:105CC0002066726565640000417373657274696F64
:105CD0006E2022257322206661696C6564206174E0
:105CE000206C696E6520256420696E2025730D0A7D
:105CF00000000000AC59002034990108F8B5046A8E
:105D000005460021204600F001F900202062606273
:105D1000A062E062A06360632063072221462846F8
:105D2000FEF7CEFF060013D12046FFF723FC208BA1
:105D3000F03081B2206909F067FB0095432304F13C
:105D400020022169606812F05FF82046FFF74CF9E5
:105D5000607B401CC0B260730A2804D24FF47A7191
:105D600010FB01F001E042F2107080B24FF4FA71C2
:105D700000F2F310B0FBF1F06083284608F034FD28
:105D80000649284608F042FD0449284608F039FD36
:105D90000249284608F06EFD3046F8BD34990108E6
:105DA000F8B5046A05460521204600F0AFF8032245
:105DB00021462846FEF784FF06001CD10222392125
:105DC0002046FFF75BFAA98C2046FFF785FB2046AB
:105DD000FFF7D0FB208BF03081B2206909F014FB73
:105DE0000095432304F120022169606812F00CF849
:105DF0002046FFF7F9F8607B401CC0B260730A28A8
:105E000004D24FF4FA6110FB01F001E044F6206087
:105E100080B24FF4FA7100F2F310B0FBF1F060833E
:105E20003046F8BDF8B5046A05460121204600F069
:105E30006DF8032221462846FEF742FF060048D1AE
:105E4000022239212046FFF719FAA98C2046FFF7D4
:105E500043FB042232212046FFF710FA606A06F065
:105E600069F801462046FFF7BBFA04223621204696
:105E7000FFF704FA206A06F05DF801462046FFF7B6
:105E8000AFFA042237212046FFF7F8F90121204616
:105E9000FFF744FA03212046FFF740FA1C21204671
:105EA000FFF73CFA06212046FFF738FA2046FFF7B5
:105EB00061FB208BF03081B2206909F0A5FA0095D2
:105EC0004323114A2169606811F09EFF2046FFF7C5
:105ED0008BF8607B401CC0B26073062802D201219F
:105EE000814000E03C2101EB4100C0EBC1104FF6C6
:105EF000FF7101EAC0004FF4FA7100F2F310B0FB39
:105F0000F1F060833046F8BD38990108027B8A427F
:105F100003D00173002141734183704770B50500C0
:105F20006FF00D0649D095F82D002C6A20F008007E
:105F300085F82D0080064FD5A88C3611B0F5107F5E
:105F40004AD3002C41D0606808B111F02FFF2069BE
:105F500030B125A340F29E222FA135A0FDF744FBCE
:105F6000A06830B120A340F29F223CA130A0FDF7F1
:105F70003BFB3C212046FCF7A3F911F007FF6060D2
:105F8000002829D0017A442241F0200101723849C9
:105F9000606811F031FD43223549606811F0BEFDA3
:105FA0002A463449606811F0FEFE2846FFF7ACF837
:105FB000A0B1284600F068F80EE00BA340F27A2268
:105FC0002DA11BA0FDF710FB06E03C2006F042FDD2
:105FD000040001D02C62CCE7304670BD15F82D1FAF
:105FE00041F00801297070BD2E2E5C2E2E5C2E2EE5
:105FF0005C54686972645F70617274795C6C776913
:10600000702D312E342E315C7372635C636F726558
:106010005C646863702E63007062756620705F6FE9
:106020007574207761736E277420667265656400ED
:10603000417373657274696F6E2022257322206626
:1060400061696C6564206174206C696E65202564EB
:1060500020696E2025730D0A000000007265706CC7
:1060600079207761736E277420667265656400001D
:1060700034990108695B00086E6574696620213DEA
:10608000204E554C4C00000010B500281CD050F894
:10609000204F417B002C21F0080141731DD0606826
:1060A00018B111F083FE00206060A06830B10BA32E
:1060B00040F2DA4215A11AA0FDF796FA2046BDE893
:1060C00010400021FFF722BFBDE8104003A340F2BB
:1060D000C7421EA112A0FDF787BA10BD2E2E5C2E5E
:1060E0002E5C2E2E5C54686972645F7061727479E4
:1060F0005C6C7769702D312E342E315C7372635C69
:10610000636F72655C646863702E63007265706CA7
:1061100079207761736E277420667265656400006C
:10612000417373657274696F6E2022257322206635
:1061300061696C6564206174206C696E65202564FA
:1061400020696E2025730D0A0000000064686370EA
:106150005F73746F703A206E6574696620213D200C
:106160004E554C4C000000000EB50126184D194C40
:10617000DFF86490DFF864B002274FF003086FF097
:106180007F4A207810B101281DD104E01048FFF7A4
:10619000C5FE267017E0686820B127700C48FFF72D
:1061A00073FF10E0286A407B04280CD984F8008033
:1061B0000748FFF769FF8DE8000E02AB01AA6946A8
:1061C000034808F0FAFAFA2012F070FAD9E7000052
:1061D000840F002078000020C0A80064C0A81F0120
:1061E00010B5026A0446117B0C2913D0062911D080
:1061F000012913D008291ED0052928D004292AD026
:10620000032930D1507B022813D22046BDE810402C
:10621000FFF75ABCBDE81040FEF776BF507B05285B
:1062200004D82046BDE81040FFF7FCBD2046FFF72C
:1062300065FD2046EEE7507B0128204603D8BDE8E7
:106240001040FEF7F5BCBDE81040FEF73BBCBDE8D2
:106250001040FFF7A5BD507B0828E7D82046BDE8D1
:106260001040FFF7EDBB10BD10B5FEF7F9FCBDE81F
:106270001040002202494EF660200DF0B1B8000037
:106280006962000810B5FEF79DFFBDE810400022CE
:1062900002494FF4FA700DF0A3B8000085620008BF
:1062A00010B50CF065FF0120FDF776F9184A0021C2
:1062B000012005F0EDF9164A0521153A012005F0F7
:1062C000E7F9134A0121273A022005F0E1F9104AC3
:1062D00004210A32022005F0DBF90D4A0121213A9E
:1062E000032005F0D5F90A4A05210E3A032005F0EE
:1062F000CFF9074A01211B3A042005F0C9F9044AE5
:106300000521D21F042005F0C3F9002010BD0000B4
:106310007F96010870B50646C0EBC600324900EB17
:10632000800001EBC004042E06D330A340F281228A
:106330003AA141A0FDF758F92078002842D0C6EBD9
:10634000C601294B01EB810103EBC10300250122AA
:106350000C3301280CD0022811D003283FD0BDE80F
:10636000704022A340F2C5223EA133A0FDF73CB904
:10637000022020706570A2702846E5700DE0A078BC
:10638000401E10F0FF00A0701CD1E078401CC0B28D
:10639000E070042807D0A07060783246BDE87040F5
:1063A000194600F013BA60780146401C02280AD250
:1063B000344E06EB81010E1D05D0496819B160709D
:1063C000A270E57070BDD4F8106126B100211846A6
:1063D000D4F81421B0472570C4F8105170BDA068DE
:1063E000401EA060F7D070BDB85900202E2E5C2E44
:1063F0002E5C2E2E5C54686972645F7061727479D1
:106400005C6C7769702D312E342E315C7372635C55
:10641000636F72655C646E732E63000061727261FB
:106420007920696E646578206F7574206F662062CC
:106430006F756E6473000000417373657274696FE9
:106440006E2022257322206661696C656420617468
:10645000206C696E6520256420696E2025730D0A05
:1064600000000000756E6B6E6F776E20646E735F58
:106470007461626C6520656E7472792073746174E6
:10648000653A0000FC0100202DE9F0472B4F8246C1
:10649000914600203A782A4B06460546C5EBC504CE
:1064A00004EB840403EBC40494F800C0BCF1000FB7
:1064B0000FD0BCF1030F08D194F804C0A2EB0C0C70
:1064C000B44502DD0CF0FF0628466D1CEDB2042D2C
:1064D000E4D3042D10D1042807D2C0EBC00404EB90
:1064E000840413F83450032D03D04FF0FF30BDE87F
:1064F000F087054603EBC404012020702271521C72
:106500003A70C4E944195046FBF70DFFFF2803D247
:106510005046FBF708FF00E0FF20064602465146C2
:1065200004F10C00FBF7B3FEA11900200873284604
:10653000FFF7F0FE6FF00400D9E70000F001002043
:10654000B85900202DE9F047054621489846914664
:1065500040680E4640B13EB135B1287820B128469A
:10656000FBF7E1FEFF2803D96FF00D00BDE8F087CF
:10657000284604F099FC411C20D1164F002400BF8E
:10658000C4EBC40000EB800017F83010032906D1DB
:1065900007EBC00128460C31FBF7CCFE20B1641C90
:1065A000E4B2042CECD30CE0C4EBC40000EB80009C
:1065B00007EBC000D0F80C01411C02D03060002075
:1065C000D4E7424649462846BDE8F047FFF75CBF9E
:1065D000F0010020B859002038B50F480F4C20F0CA
:1065E0000300A0600EA004F05FFC0090606800282B
:1065F00011D111F0CBFB606000280CD000220C49B7
:1066000011F0FAF900220B49606811F0CCFB6946E1
:10661000002000F0B3F938BD1B5E0020F00100201F
:106620003230382E36372E3232322E3232320000AD
:10663000349901085D6600085FF0030210F8011B41
:10664000B2EB911F08D002E0491EC9B2401C0029DC
:10665000FAD101780029F1D1401C70472DE9FE4F95
:1066600016461289B2F5007F71D81A2A6FD3544C9E
:1066700000233046A16808F00BFD3189884266D1BD
:10668000A768A046388805F00FFC04285FD2C0EB4D
:10669000C00000EB80014B4800EBC10420780228C9
:1066A00055D14FF0030984F80090F87800F00F00FE
:1066B0006071B88805F0F8FB8346F88805F0F4FBB4
:1066C0000546B8784FF0000A000666D56079E8BB49
:1066D000BBF1010F61D1D8F8080004F10C010C30B6
:1066E0008B4603464FEA090710F8012BB7EB921FC0
:1066F00010D009E091F800C090F80080C4454CD15A
:10670000521E401CD2B2491C002AF3D10278491C07
:10671000002AE9D11846FFF78FFF4FF480784FF435
:106720008069001D37E000BFFFF786FF074600685D
:10673000009078680190BDF800103889ADF8080025
:10674000414520D1BDF80210414501E025E031E08E
:1067500019D1BDF80800484515D1019805F0EAFBAC
:106760001949A060884200D9A160D7F80A00C4F88E
:106770000C01D4F81031EBB104F586715846D4F809
:106780001421984716E0BDF8080005F08DFB6D1E3A
:106790003844ADB20A30002DC6D1D4F810312BB137
:1067A000002104F10C00D4F81421984784F800A0CB
:1067B000C4F810A13046BDE8FE4F08F0F9BC000057
:1067C000F0010020B8590020803A09002DE9F04777
:1067D00090460E460446022806D33AA34FF40F72A1
:1067E00044A14AA0FCF700FF534810EB840703D0F4
:1067F00050F82400002806D132A340F23D224FA1D8
:1068000042A0FCF7F1FE00224FF48871104608F018
:10681000E9F8050051D0286830B12AA340F243229C
:106820004FA13AA0FCF7E0FE6C684FF0000940462B
:10683000C4F80090C4F80490C4F8089005F034FB44
:1068400024F8020B012004F8020B010224F8081BB3
:10685000761E2346641C002004E000BF401C04F8A0
:10686000012BC0B216F8012F2E2A01D0002AF5D133
:10687000187030780028ECD104F8019B61F30F0800
:1068800061F31F48C4F80080A888201A001D81B257
:10689000284608F0B9FD284C39460C3C3522606882
:1068A00011F03CF93A4635232946606811F098FA10
:1068B0000446284608F07CFC01E04FF0FF342046F7
:1068C000BDE8F0872E2E5C2E2E5C2E2E5C5468695F
:1068D00072645F70617274795C6C7769702D312EAF
:1068E000342E315C7372635C636F72655C646E73CB
:1068F0002E630000646E7320736572766572206F7C
:106900007574206F662061727261790041737365DE
:106910007274696F6E2022257322206661696C652E
:1069200064206174206C696E6520256420696E2086
:1069300025730D0A00000000FC010020646E732026
:1069400073657276657220686173206E6F2049509E
:1069500020616464726573732073657400000000C5
:1069600070627566206D75737420626520696E2093
:106970006F6E6520706965636500000002280CD2A7
:10698000064A5268002A08D0002906D00968002962
:1069900003D0024A0C3242F820107047F001002068
:1069A00010B500F00BF8BDE81040002202494FF48A
:1069B0007A700CF015BD0000A1690008064810B5FA
:1069C0004068002807D000242046FFF7A3FC641C81
:1069D000E4B2042CF8D310BDF001002010B5044639
:1069E000006890F9081011F1090F01DA21711DE01A
:1069F000FA2121714368CBB1007800F0F000102833
:106A00000ED0202806D0402810D11846A16809F0E1
:106A100055FA0AE0A2891846A16810F0EDFF04E0DB
:106A2000A2891846A1680CF063FF20712068BDE8B8
:106A300010400C300CF0AABC10B504460068417838
:106A400000290DD002290BD00078102806D01CA3F5
:106A500040F2B15227A12FA0FCF7C6FDFB2014E0A5
:106A6000426812B10278102A01D0FA200DE0227A91
:106A7000032A01D0022907D0D10701D006F06AFF0E
:106A80002068816A51B907E0F32020712068BDE8D1
:106A900010400C300CF07ABC406A30B108A340F2D0
:106AA000BC5227A11BA0FCF79FFD21680420487061
:106AB000206884622068BDE8104000F04FB80000F4
:106AC0002E2E5C2E2E5C2E2E5C54686972645F70D4
:106AD000617274795C6C7769702D312E342E315C63
:106AE0007372635C6170695C6170695F6D73672E5E
:106AF000630000006D73672D3E636F6E6E2D3E74F4
:106B0000797065203D3D204E4554434F4E4E5F54B5
:106B100043500000417373657274696F6E202225C3
:106B20007322206661696C6564206174206C696EF3
:106B30006520256420696E2025730D0A0000000081
:106B4000616C72656164792077726974696E67201F
:106B50006F7220636C6F73696E6700002DE9F041FE
:106B6000040006D152A34FF43C725EA161A0FCF771
:106B70003BFD2078102806D04DA340F2F12268A1F9
:106B80005CA0FCF731FD6078042806D048A340F2F1
:106B9000F2226BA157A0FCF727FD606830B944A32F
:106BA00040F2F3226FA153A0FCF71EFDA06A30B99A
:106BB0003FA34FF43D7270A14EA0FCF715FDA06AF3
:106BC000007A00F0010700F0020603281FD000251C
:106BD0006068017E012920D037B100210FF0A2F8B2
:106BE000002160680CF001FE1EB1002160680FF00A
:106BF000DDFABDB10422002160680EF0A9FA00217F
:106C000060680DF0DBFA60680CF0BAFF0FE0012558
:106C1000002160680CF06AFEDAE700210CF0E5FD67
:106C2000002DF0D13246394660680FF00DFD20B1DD
:106C30006068007E012821D027E0A16A0020087149
:106C4000A062607035B16060E36A1BB1002204216C
:106C5000204698472FB1E36A1BB100221146204617
:106C600098472EB1E36A1BB10022022120469847C3
:106C700004F10C00BDE8F0410CF088BB0CA340F21D
:106C80002D3244A11BA0FCF7AFFC4B4960680FF00C
:106C90008DFA0422494960680EF05AFA4849606842
:106CA0000DF08CFA21466068BDE8F0410CF01EBE84
:106CB0002E2E5C2E2E5C2E2E5C54686972645F70E2
:106CC000617274795C6C7769702D312E342E315C71
:106CD0007372635C6170695C6170695F6D73672E6C
:106CE00063000000696E76616C696420636F6E6E8C
:106CF00000000000417373657274696F6E20222575
:106D00007322206661696C6564206174206C696E11
:106D10006520256420696E2025730D0A000000009F
:106D20007468697320697320666F722074637020C1
:106D30006E6574636F6E6E73206F6E6C7900000009
:106D4000636F6E6E206D75737420626520696E20AE
:106D50007374617465204E4554434F4E4E5F434CEF
:106D60004F53450070636220616C726561647920E5
:106D7000636C6F7365640000636F6E6E2D3E6375A8
:106D80007272656E745F6D736720213D204E554CA5
:106D90004C000000436C6F73696E672061206C6962
:106DA0007374656E20706362206D6179206E6F74FC
:106DB000206661696C210000092B01089DF800081C
:106DC0004582000810B5044600684368002B11D0C6
:106DD000017801F0F001102919D0202911D04029A3
:106DE0000AD021A340F203422CA132A0FCF7FCFB05
:106DF000FA202BE0F42029E01846A16809F063F896
:106E000024E0A2891846A16810F088FE1EE04178AF
:106E100009B1F7201AE00BF035FF2068A289A168BC
:106E200040682F4B0CF08EFF207180B9216803223F
:106E300091F820004A70C0F340000028206810F844
:106E4000201F0AD041F004010170FB20207120684E
:106E5000BDE810400C300CF099BA21F0040101702B
:106E60002068846210BD00002E2E5C2E2E5C2E2E1B
:106E70005C54686972645F70617274795C6C776984
:106E8000702D312E342E315C7372635C6170695CDD
:106E90006170695F6D73672E63000000496E7661F3
:106EA0006C6964206E6574636F6E6E2074797065B2
:106EB00000000000417373657274696F6E202225B3
:106EC0007322206661696C6564206174206C696E50
:106ED0006520256420696E2025730D0A00000000DE
:106EE000E56E000870B5154604000CD060780328E4
:106EF00006D023A340F2B6322EA136A0FCF774FBD5
:106F0000A06A18B10FE06FF0050070BD94F8200082
:106F1000400709D41AA340F2B73239A12DA0FCF7DB
:106F200063FBA06A00B105712078102803D115B960
:106F300020460BF0A7FE94F82000002640F38005C1
:106F400020F0040084F82000A66266706D1C09D150
:106F50000CF08FF994F9081011F1090F00DB26727B
:106F60000CF0ADF9E36A1BB10022022120469847DC
:106F70001DB104F10C000CF009FA002070BD0000F6
:106F80002E2E5C2E2E5C2E2E5C54686972645F700F
:106F9000617274795C6C7769702D312E342E315C9E
:106FA0007372635C6170695C6170695F6D73672E99
:106FB00063000000636F6E6E2D3E73746174652014
:106FC0003D3D204E4554434F4E4E5F434F4E4E4540
:106FD00043540000417373657274696F6E202225FB
:106FE0007322206661696C6564206174206C696E2F
:106FF0006520256420696E2025730D0A00000000BD
:1070000028636F6E6E2D3E63757272656E745F6D70
:10701000736720213D204E554C4C29207C7C2063F9
:107020006F6E6E2D3E696E5F6E6F6E5F626C6F632A
:107030006B696E675F636F6E6E656374000000005E
:1070400070B501680446487800281BD0022819D082
:1070500003280CD00878102806D030A340F247321D
:107060003BA143A0FCF7C0FAFB20207131E091F86E
:107070002000400706D429A340F24A3247A13CA091
:10708000FCF7B2FA206806F065FC20684168A1B1FF
:10709000027802F0F002102A27D00025202A05D01D
:1070A000402A08D1084608F067FF04E0CD61206857
:1070B000406810F07BFE206845602068C36A43B1D9
:1070C0000022114698472068C36A13B100220221AA
:1070D000984720680C300CF05FF900281CD020681D
:1070E000BDE870400C300CF051B9816A09B9406AB2
:1070F00030B10AA340F25F3230A11DA0FCF774FA50
:10710000216804204870032020722068846220686F
:10711000BDE87040FFF722BD70BD00002E2E5C2E32
:107120002E5C2E2E5C54686972645F706172747993
:107130005C6C7769702D312E342E315C7372635C18
:107140006170695C6170695F6D73672E6300000038
:107150006D73672D3E636F6E6E2D3E747970652082
:107160003D3D204E4554434F4E4E5F54435000002A
:10717000417373657274696F6E20222573222066D5
:1071800061696C6564206174206C696E652025649A
:1071900020696E2025730D0A00000000626C6F6389
:1071A0006B696E6720636F6E6E65637420696E2015
:1071B00070726F677265737300000000616C7265B6
:1071C0006164792077726974696E67206F722063D9
:1071D0006C6F73696E67000070B514460D461268D7
:1071E00001461046FBF7A6F8002806D00BA340F294
:1071F000FA5217A11FA0FCF7F7F955B1E16800207A
:107200000870606829680160A068BDE870400CF0F3
:10721000BDB8E168FA200870F6E700002E2E5C2E5B
:107220002E5C2E2E5C54686972645F706172747992
:107230005C6C7769702D312E342E315C7372635C17
:107240006170695C6170695F6D73672E6300000037
:10725000444E5320726573706F6E736520666F7253
:107260002077726F6E6720686F7374206E616D6532
:1072700000000000417373657274696F6E202225EF
:107280007322206661696C6564206174206C696E8C
:107290006520256420696E2025730D0A000000001A
:1072A00010B5044600686FF00C014068002825D036
:1072B000227C002AA26801D0006800E040681060CB
:1072C000002020712068027802F0F002102A21D0FC
:1072D000202A15D0402A0CD013A340F29B521FA1A4
:1072E00024A0FCF781F92068BDE810400C300CF0B8
:1072F0004DB8227C12B14068007C11E02171F2E7A8
:10730000227C40680AB1408A0AE0027C5207F5D527
:10731000808A05E0217C406809B1408B00E0808BC9
:10732000E1680880DFE700002E2E5C2E2E5C2E2EFA
:107330005C54686972645F70617274795C6C7769BF
:10734000702D312E342E315C7372635C6170695C18
:107350006170695F6D73672E63000000696E76610E
:107360006C6964206E6574636F6E6E5F74797065AE
:1073700000000000417373657274696F6E202225EE
:107380007322206661696C6564206174206C696E8B
:107390006520256420696E2025730D0A0000000019
:1073A00010B504462346D4E90001074AFFF7CAF89E
:1073B0000146E0680170491D04D0A068BDE8104096
:1073C0000BF0E4BF10BD0000D971000870B5044691
:1073D000006890F9081011F1090F01DA217144E0F9
:1073E000F321217142681AB30178102901D0F220EB
:1073F0001DE04078E0B9FF2110460DF085FA050048
:1074000014D0206810300BF099FF38B1206810308C
:107410000BF05EFF206810300BF07FFF0026267116
:10742000206814300BF08AFF18B108E0FF202071AB
:107430001BE02068002114300BF054FF20712079EC
:1074400028B128460CF09CFB206846600DE02168BE
:1074500002204870216828464D6021680CF046FAE9
:107460002068054940680CF0C0F92068BDE870400C
:107470000C300BF08BBF0000C53A000810B5044675
:10748000002020712068406810B9204608F096F866
:107490002068BDE810400C300BF078BF2DE9F041BA
:1074A0000546002028712868416891B100781028AD
:1074B0000FD1AC6807034FF6FF78BC4201D34646B4
:1074C00000E0A6B22868314640680EF08FFCA41B8D
:1074D000F3D12868BDE8F0410C300BF057BF70B510
:1074E0000446006890F9081011F1090F01DA2171C2
:1074F00017E0F321217145689DB1007800F0F0009C
:10750000202819D040280CD1A06810F1080F0ED007
:10751000816861B100F108020168284608F046FD63
:1075200020712068BDE870400C300BF02FBF01685F
:10753000284608F037FDF3E7A06810F1080F09D0DE
:10754000816839B1838900F108020168284610F08A
:1075500047FCE5E70168284610F03EFCE0E7000044
:1075600010B50446006890F9081011F1090F07DB07
:107570000178102901D0FA2102E0417831B1FB21D4
:107580002171BDE810400C300BF000BF41680029AC
:1075900020D0012141702068816A09B9406A30B168
:1075A0000DA340F24C5219A11FA0FCF71DF8E06892
:1075B00030B909A340F24E5226A11BA0FCF714F8E3
:1075C000206884622168002048622068BDE810407D
:1075D00000F04AB8F321D3E72E2E5C2E2E5C2E2E1F
:1075E0005C54686972645F70617274795C6C77690D
:1075F000702D312E342E315C7372635C6170695C66
:107600006170695F6D73672E63000000616C726565
:107610006164792077726974696E67206F72206384
:107620006C6F73696E670000417373657274696F84
:107630006E2022257322206661696C656420617466
:10764000206C696E6520256420696E2025730D0A03
:10765000000000006D73672D3E6D73672E772E6CF2
:10766000656E20213D2030002DE9F047044690F85A
:107670002000A16A4FF0000880070E7C01D470073B
:1076800001D5012700E0002734B959A340F2C342D5
:1076900064A168A0FBF7A8FF6078012806D054A376
:1076A00040F2C4426EA163A0FBF79EFFA06A30B90E
:1076B0004FA340F2C54272A15EA0FBF795FF606840
:1076C00030B94BA340F2C64274A15AA0FBF78CFF1D
:1076D000D4E90901C968884206D345A340F2C742EC
:1076E00074A154A0FBF780FFA06A616A826802EB74
:1076F000010AC268501AB0F5803F04D34FF6FF75F7
:1077000046F0020600E085B260684FF00009B0F86C
:107710006600A84207D205461FB125B96FF00606DC
:1077200016E046F002064819904206D930A340F20E
:10773000F5426DA13FA0FBF757FF33462A4651465D
:1077400060680FF0C9FA060001D0701C3BD187B108
:10775000A06AC068A8420CD9E36A1BB12A4603217B
:107760002046984794F8200040F0100084F820004C
:1077700010E0606840F66732B0F86610914203D9B5
:10778000B0F86800052805D3E36A1BB12A46032137
:107790002046984716B1701C14D014E0606A284443
:1077A0006062A16ACA68904200D027B1C8604FF0F9
:1077B0000108C4F8249060680DF06CF9B8F1000F6E
:1077C00004D10DE07FB1A16AC1F80C90A06A0671E6
:1077D000C4F8289084F8019004F10C000BF0D6FD59
:1077E0000020BDE8F08760680DF054F9F8E700006C
:1077F0002E2E5C2E2E5C2E2E5C54686972645F7097
:10780000617274795C6C7769702D312E342E315C25
:107810007372635C6170695C6170695F6D73672E20
:1078200063000000636F6E6E20213D204E554C4C6E
:1078300000000000417373657274696F6E20222529
:107840007322206661696C6564206174206C696EC6
:107850006520256420696E2025730D0A0000000054
:10786000636F6E6E2D3E7374617465203D3D204ED6
:107870004554434F4E4E5F57524954450000000057
:10788000636F6E6E2D3E63757272656E745F6D739D
:107890006720213D204E554C4C000000636F6E6EFA
:1078A0002D3E7063622E74637020213D204E554C36
:1078B0004C000000636F6E6E2D3E77726974655FD9
:1078C0006F6666736574203C20636F6E6E2D3E6339
:1078D000757272656E745F6D73672D3E6D73672E82
:1078E000772E6C656E000000646F5F777269746557
:1078F0006D6F72653A20696E76616C6964206C65A3
:107900006E6774682100000010B540F60E24204612
:1079100008F058FD204608F047FDBDE8104000F093
:10792000F7BA08B50028009001D0401EFAE708BD5C
:1079300002464FF0FF30062907D2DFE801F01D1B99
:107940000B03071B9088C0F30C0070475068C0F30E
:107950000C4070471168C1F30D40042808D9084A4B
:107960001268001F9201F4D58906F2D5001D7047F8
:1079700000207047906870471078C0F3C3007047CC
:1079800000800240F0B50022DFF874E0DFF874C038
:10799000154640F2F454B0F5E00F20D01A49052303
:1079A00001F1A007DE0744F2F455CEF80C10CCF834
:1079B00010100020CCF80400CCF80000A3F1010C5A
:1079C00001EB021002FB047EC0F808E0C0E900658C
:1079D00062450FD200F1100EC0F80CE00BE00A492E
:1079E0000A4F503105234FF48016CEF81010CCF812
:1079F0000C10DEE7C160521C9A42E1D3F0BD0000DA
:107A000000900240180100205C1D0020C03B0020B7
:107A100000B500F0CFFB5DF804EB00F061BB0000A7
:107A2000F0B51F4A002416693568002D2ADBC0B165
:107A30002B0427D4EB0525D5AB0523D5194FC5F36A
:107A40000D433F681B1FBF0102D5AD0600D51B1DAE
:107A50008B4217D803E0B168095D0155641C9C4254
:107A6000F9D311694FF0004008600F4843691B06C5
:107A700003D580234361002383604B685C0403D5F6
:107A8000C8680AE00020F0BD1B0401D5C06804E00E
:107A90000068C0F384000844103010610120F0BD7C
:107AA00018010020008002400090024070B51B4A7F
:107AB0000023D4682568002D03DB40F2F455A94269
:107AC00001D9002070BD20B905E0A668C55CF55459
:107AD0005B1C8B42F9D3D3685960186840F0304082
