:020000040800F2
:10200000F02F012009220008F1320008EF2C00080F
:10201000EF320008AF2A0008153600080000000063
:102020000000000000000000000000006521000822
:102030001D22000800000000A921000869330008E3
:10204000232200082322000823220008232200085C
:10205000232200082322000823220008232200084C
:10206000232200082322000823220008232200083C
:10207000232200082322000823220008232200082C
:10208000232200082322000823220008232200081C
:10209000232200082322000823220008D52B000851
:1020A00023220008232200082322000823220008FC
:1020B00023220008232200082322000823220008EC
:1020C00023220008232200082322000823220008DC
:1020D00023220008ED34000885350008232200087B
:1020E000652B000823220008232200082322000871
:1020F00023220008232200082322000800000000F9
:10210000232200080000000023220008F532000806
:10211000CD3300085D340008232200082322000884
:10212000232200082322000823220008232200087B
:10213000232200081D2B0008232200082322000868
:10214000232200082322000823220008232200085B
:10215000DFF80CD000F0CAFA00480047E9CC0008CC
:10216000F02F0120204B19680868B0E8F00F80F3C9
:102170000988BFF36F8F4FF0000080F311884EF095
:102180000D0E70470000000006480068006880F3EC
:10219000088862B661B6BFF34F8FBFF36F8F00DF61
:1021A00000BF00BF08ED00E0EFF30980BFF36F8FC1
:1021B0000D4B1A6820E9F00F106008B54FF02000B1
:1021C00080F3118816F098FC4FF0000080F311881E
:1021D000BDE8084019680868B0E8F00F80F3098886
:1021E000BFF36F8F704700BF10030020EFF3118023
:1021F0004FF0200181F31188704780F311887047F8
:10220000EFF3058070470000064880470648004706
:10221000FEE7FEE7FEE7FEE7FEE7FEE7FEE7FEE796
:10222000FEE7FEE78D330008512100082DE9F05F3D
:102230000546002092469B46884606468146402435
:102240001BE0284641464746224600F084F95346A3
:102250005A46C01A914110D311461846224600F042
:102260006BF92D1A67EB01084F4622460120002129
:1022700000F062F917EB00094E41201EA4F10104A1
:10228000DFDC484631462A464346BDE8F09F40EA37
:1022900001039B0703D009E008C9121F08C0042AE4
:1022A000FAD203E011F8013B00F8013B521EF9D2CB
:1022B0007047D2B201E000F8012B491EFBD27047F3
:1022C0000022F6E710B513460A4604461946FFF702
:1022D000F0FF204610BD30B505462A460B4612F8E1
:1022E000010B13F8014B08B1A042F8D01CB1002833
:1022F00002D06D1CF1E7284630BD10B5044604E05D
:102300000B7800F8013B03B1491C521EF8D220465D
:1023100010BDCAB2401E10F8011F8A4202D0002927
:10232000F9D100207047421C10F8011B0029FBD195
:10233000801A704710B5002200E0521C835C8C5C50
:10234000A34201D1002BF8D1D8B2E1B2401A10BD9E
:1023500030B504460020034600E05B1C934203D2E4
:10236000E05CCD5C401BF8D030BD0246C9B200E055
:10237000401C0378002BFBD102E003788B4203D092
:10238000401E9042F9D2002070472DE9F0410E46E0
:102390000546002400E0641C285D00F0ECF80746C8
:1023A000305D00F0E8F8381A02D1295D0029F2D139
:1023B000BDE8F0810FB400B58DB010A909900B9065
:1023C00000914FF0FF300A9000200C9005480690D5
:1023D000054807906A4609A80F9900F059F90DB011
:1023E0005DF814FBAD260008CB2600082DE9FF5F41
:1023F0001D464FF0FF3BD5E9014691465F464FF041
:102400000008A9697F1C01988847296A8246884785
:102410000028F6D1BAF1FF3F0CD024F4C064002E9E
:1024200019DD600614D5BAF12B0F09D0BAF12D0FC2
:102430000ED103E0584604B0BDE8F09F44F4806438
:10244000A9697F1C01988847761E8246002E02DD0E
:10245000BAF1300F03D0B9F1000F26D032E0A969EC
:10246000761E44F400747F1C019888478246002E33
:1024700005DDBAF1780F06D0BAF1580F03D0B9F1E3
:10248000000F10D01EE0B9F1000F02D0B9F1100F0B
:1024900018D1A969761E24F400747F1C019888471E
:1024A0008246102002E0082000E00A20814609E070
:1024B00008FB0908A969761E44F400747F1C019882
:1024C00088478246002E05DD4946504600F0CCF88C
:1024D0000028EDDAE96901988847A00502D46FF079
:1024E0000100A8E7E00725D1600613D5600502D5F5
:1024F000C8F1000000E0404629680A1D2A6009680A
:10250000220501D5087015E0220701D5088011E0E9
:1025100008600FE02868011D29600068210502D5C8
:1025200080F8008006E0210702D5A0F8008001E0D5
:10253000C0F8008038467EE7202A04DB203A00FA03
:1025400002F1002070479140C2F1200320FA03F30A
:10255000194390407047202A04DB203A21FA02F008
:102560000021704721FA02F3D040C2F120029140CD
:10257000084319467047A0F14101192900D82030BD
:102580007047000007280FD2DFE800F00406080EAD
:102590000E0C0A0005A070470AA0704713A07047F0
:1025A0001DA0704722A070472BA070474E6F20657A
:1025B00072726F7220286572726E6F203D20302912
:1025C0000000000045444F4D202D2066756E637459
:1025D000696F6E20617267756D656E74206F7574BA
:1025E000206F662072616E67650000004552414EA3
:1025F0004745202D2066756E6374696F6E20726585
:1026000073756C74206E6F7420726570726573657B
:102610006E7461626C650000454E4F4D454D202D36
:10262000206F7574206F66206D656D6F7279000084
:1026300045494E56414C202D20696E76616C696487
:1026400020617267756D656E7420746F2066756E9B
:102650006374696F6E000000556E6B6E6F776E204D
:102660006572726F720000003A2800D2303820F094
:102670002002412A01D3A2F13700884201D34FF052
:10268000FF307047026811441378016018467047A4
:10269000D160044951610449116200211161114660
:1026A00000F044B88526000819270008426842B1A6
:1026B000016811F8013B23B1521EC0E9001218460F
:1026C00070470121C160881E704742685AB1C368D3
:1026D000016843B983688B4205D0491E521CC0E98A
:1026E0000012002070474FF0FF307047064C074D36
:1026F00006E0E06840F0010394E8070098471034D2
:10270000AC42F6D3FFF728FD18A0010838A0010855
:1027100000487047A49B010810B50446FFF7F8FF76
:102720000068005D00F0010010BD00002DE9F34FCE
:102730008BB04FF0000801F10C000C464FF0010B7C
:1027400046460DF1080A01906269012101989047FF
:10275000051E2DD0252D2CD0216A8847C0B1626975
:10276000012101989047216A88470028F7D1411E2E
:1027700062690198904700E0761CA1690B98884730
:10278000216A88470028F7D1E1690B988847DBE781
:10279000A1690B9888470746A84201D1761CD3E768
:1027A000E1690B9888477F1C02D1B8F1000F6FD008
:1027B00046E1002762693D463946019890472A283C
:1027C00004D162690121019890470125DFF88492C4
:1027D0006269012101989047A0F130010A290AD2CB
:1027E0004F45E5DC07EB870100EB4107303FDFD4C5
:1027F00045F01005ECE7E90601D46FF000476C28BE
:102800000AD04C2814D0682815D06A280DD0742816
:102810001CD07A281AD01DE06269012101989047E6
:102820006C2802D045F0040514E045F002050DE0E7
:1028300045F020050AE06269012101989047682867
:1028400002D045F0080505E045F400656269012104
:1028500001989047C4E9015765283DD019DC5828F4
:102860007AD00CDC452837D004DC252826D0412836
:1028700031D131E046282FD047282CD12CE05B28DD
:1028800077D0612828D063287CD0642823D15AE0EF
:10289000D0E06F2848D008DC66281DD067281BD000
:1028A000692821D06E2816D127E0702845D07328DA
:1028B00068D0752847D078280DD14DE0A1690B98D4
:1028C0008847054625283FF469AFE1690B9888479A
:1028D0006D1C3FF46AAFB3E023466A466FF0010017
:1028E0000B99AFF300809EE045F040006060A807C0
:1028F00023464FF0000236D43EE0E8077FF447AFAE
:102900002068011D21600068290501D506701BE7BC
:10291000290701D5068017E7A90703D5F117C0E9F4
:10292000006111E706600FE745F040006060A8070E
:1029300023464FF0080216D41EE040F60E0125EAA9
:102940000100606016E045F040006060A807234683
:102950004FF00A0207D40FE045F040006060A8077E
:1029600008D5234610226FF001000B99AFF30080C9
:1029700059E007E0234610226FF001000B99FFF7A2
:1029800035FD50E04FF000094F464B46632802D01A
:102990005B2806D040E0E80601D40120A0600127B2
:1029A0003AE062690121019890475E2805D14FF015
:1029B00001096269494601989047216939B90021A6
:1029C0000A46534643F82120491C0829FADBB0B3D4
:1029D000216969B9C11700EBD16253110AEB830178
:1029E00022F01F02821A01200B68904003430B6003
:1029F00062690121019890475D28E8D1B9F1000F83
:102A000009D00020514651F82020D24341F820201F
:102A1000401C0828F7DB02AB224600976FF001004C
:102A20000B99AFF3008000280CDA401C08D1BBF1F1
:102A3000000F05D04FF0FF300DB0BDE8F08FFFE77D
:102A40004046F9E7E90701D108F1010806444FF0D3
:102A5000000B79E6CCCCCC0C70B58C1810F8015B6F
:102A600015F0070301D110F8013B2A1106D110F827
:102A7000012B03E010F8016B01F8016B5B1EF9D12B
:102A80002B0705D40023521E0DD401F8013BFAE7B1
:102A900010F8013BCB1A921C03E013F8015B01F81C
:102AA000015B521EF9D5A142D8D3002070BDFEE7CC
:102AB000F0B5044600200BA502460F4E0CE000BF07
:102AC00002EBD2735B10D707E35C09D003F00F036E
:102AD000EB5C5840521C305CB2EB410FF0DBF0BDB8
:102AE0001B09F5E730313233343536373839616216
:102AF000636465660000000044990108002208E054
:102B0000002101E0491C89B2B1EB802FFAD3521C9D
:102B100092B2B2EB802FF3D37047000038B500209B
:102B20000D4C0090204605F0EFFB012804D10B4826
:102B30006946006816F0E2FA204605F0D9FB06481F
:102B40000A3005F0D5FB0098002803D004494FF067
:102B50008050086038BD0000060504000403002012
:102B600004ED00E070B54FF48065284606F076FF6E
:102B7000164E174C60B12946304607F0B2FA0128CC
:102B800020681BD020F008002060284606F060FF77
:102B90004FF48045284606F061FF002814D02946EE
:102BA000304607F09EFA012820680AD020F0100075
:102BB00020602846BDE8704006F04ABF40F008009B
:102BC000E2E740F01000F3E770BD0000000C0140A8
:102BD0006C0000202DE9F041402006F03FFF2F4E11
:102BE0002F4C60B14021304607F07BFA0128206865
:102BF00039D020F020002060402006F029FF4FF45B
:102C00008075284606F02AFF264FB0B1294638467F
:102C100007F067FA012820682ED020F0020020601B
:102C20002946304607F05DFA0128206827D020F0B9
:102C300001002060284606F00BFF4FF4007528467F
:102C400006F00CFF002826D02946384607F049FA3E
:102C5000012820681CD020F0040020602846BDE830
:102C6000F04106F0F5BE40F0200020600022114641
:102C7000052001F0A3F8BFE740F00200CFE740F0E5
:102C80000100206000221146052001F097F8D1E7ED
:102C900040F00400E1E7BDE8F081000000100140D1
:102CA0006C000020000C01402DE9F04791460F46D2
:102CB00004464FF0010806F081FF40F20736304627
:102CC00006F016FF0025B246E61909E059F825106E
:102CD000204606F08FFF5046241D6D1C06F008FFAD
:102CE000A642F3D806F012FF4046BDE8F087FEE7A3
:102CF00070B51B4D044600F001024FF48041284698
:102D000007F05EF9C4F340024FF40041284607F093
:102D100057F9C4F380020121284607F051F9C4F3A2
:102D2000C0020221284607F04BF90E4DC4F30012F1
:102D30008021284607F044F9C4F34012A91528461B
:102D400007F03EF9C4F380126915284607F038F9F8
:102D5000E20929152846BDE8704007F031B90000A6
:102D600000140140001801402DE9FC4107460024F1
:102D70000E462546684600920DF0F8FD01462046B5
:102D800061F307000009022819D101A9009800F099
:102D9000B9F8009905460844019900900144081AC1
:102DA00002280CDB68460DF0E1FD60F3070404F037
:102DB0000100387068460DF0D9FD307001252846B5
:102DC000BDE8FC812DE9FC5F8046DDE90EA0002412
:102DD000CDE90004994617460E462546DDF834B085
:102DE00068460DF0C3FD60F30704200903282CD1C9
:102DF000C4F3C00188F80010C4F34100306004F04F
:102E00000100387001A9009800F07CF8009905468F
:102E10000844019900904418224669460C980DF028
:102E2000B4FD90B10098201A0FD43068002804DD5A
:102E300068460DF0A1FDA9F800000098211ACAF813
:102E4000001000990125CBF800102846BDE8FC9F32
:102E50002DE9FC4781460A98002400909A461646C0
:102E60008846254668460DF081FD0146204661F3FF
:102E700007000009092826D101A9009800F042F8AE
:102E8000009905460844019900904718381A02280D
:102E900019DB68460DF070FDA9F8000034600EE003
:102EA0003168414502DD4FF0FF350CE068460DF01A
:102EB0005DFD31688B00491C31604AF803000098C1
:102EC000B842EDD301252846BDE8FC87F8B50125B9
:102ED00000240E4607460C60641C042C0FDC012104
:102EE0006846B84701280AD19DF80000316800F013
:102EF0007F0202FB0511ED0131600006ECD4204693
:102F0000F8BD0000024A10600248FFF7DFBF000072
:102F100058010020D93E000810B503460020CA170A
:102F200001EB526424F07F02891ACAB2E111002930
:102F300002DD00BF42F080021A5400F10100EEDC15
:102F400010BD0000401C802801DA401C7047B0F51D
:102F5000804F01DA801C70470349884201DAC01CA7
:102F60007047001D70470000FFFF1F002DE9F84368
:102F700000248846164605464FF0FF37012100948D
:102F8000B047012816D169463046FFF79FFF681CFD
:102F90000099FFF7C1FF0099401C0B18434509DC5D
:102FA00021B12844B0470099884203D1287860F3C2
:102FB000070427093846BDE8F88300002DE9F843E7
:102FC00007460090884614460025104600F082F817
:102FD0008146FFF7B7FF404502DDA81EBDE8F88334
:102FE0002E46314666F307016846103115F006FE9D
:102FF00049460098FFF790FF009908440090207A16
:1030000004281DD02FA1684615F0E4FD0321684671
:1030100015F0F4FDA07E66F3070560F34105E07E40
:1030200008B145F00405680707D594F83D0060F342
:10303000C40594F83C0060F34515206C40B905E0E8
:1030400022A1684615F0C6FD0421E0E7A06C08B196
:1030500045F08005E06C08B9606D08B145F04005A9
:103060002946684615F0CAFD218B684615F0CCFD4F
:1030700004F10C0168460EC915F0D5FDE07E68B17B
:103080002434684694E80E00243C15F0CCFD30341E
:10309000684694E80E00303C15F0C5FD280605D5BD
:1030A00004F1400168460EC915F0BDFD680605D55E
:1030B0004C34684694E80E0015F0B5FD0098C01B2E
:1030C0008CE700004D514973647000004D51545419
:1030D0000000000070B50446007A0025032802D0E5
:1030E000042802D002E00C2500E00A2504F10C00BF
:1030F00007C800F0F5F80544E07EAD1C78B1243433
:1031000094E80700243C00F0EBF83034064694E8DD
:103110000700303C00F0E4F8304405442D1D206CDD
:1031200008B9A16C29B1D4E9111200F0D9F805440D
:10313000AD1CE06C08B9616D29B1D4E9141200F03E
:10314000CFF80544AD1C284670BD0E2200F0AFB884
:103150002DE9FC5F1C46129ECDE90060DDF838B019
:103160009046DDF830A0DDE90F2389460746594631
:10317000204600F030F80546FFF7E4FE484503DD41
:103180006FF00100BDE8FC9F302168F3C30164F3D8
:1031900042016AF3000101A815F030FD29460198AB
:1031A000FFF7BAFE019908440190DDE90F23594663
:1031B00001A815F038FD002C03DD01A80D9915F0CC
:1031C00023FD324611990198FFF761F801983044C8
:1031D0000190C01BD6E770B50E46114604461A464C
:1031E0003046049D00F07CF82844801C002C00DD53
:1031F000801C70BD2DE9FF4F83B0064610A889469C
:1032000090E88009002492462546414638460096BB
:1032100000F036F80190FFF795FE484503DDA01E4B
:1032200007B0BDE8F08F64F3070480346AF3C30489
:1032300024F00600801CC1B2684615F0DFFCDDE911
:103240000001FFF769FE009908440090684606995E
:1032500015F0DAFC0FE000BF05EB450108EB81003B
:1032600090E80E00684615F0DEFC1BF82510684655
:1032700015F0C4FC6D1CBD42EEDB0098801BCFE74F
:103280002DE9F04102250F46064600240AE000BF62
:1032900004EB440007EB800007C800F021F8054468
:1032A000641CED1CB442F3DB2846BDE8F08138B560
:1032B000002304460090022901DA981E38BD194601
:1032C00063F3070162F30711684615F097FC0021CC
:1032D0000098FFF721FE009908440090001B38BDBC
:1032E00010B510B1FFF71FF80146084610BDFEE704
:1032F000704700002DE9F041154F002138460FF0CE
:10330000D9FD012808D1134E3078134C002528B17F
:10331000124807E035706560BDE8F081104E3078E6
:1033200070B110486168006830F8111038460FF02D
:103330003EFD6068401C606021888842EAD0EBE76F
:1033400038466560BDE8F04100210FF030BD000057
:10335000003C0040390000201800002064000020DC
:103360003A0000206800002010B5FEF73FFF16F07D
:103370005BF818B104494FF080500860BDE8104078
:103380000020FEF73ABF000004ED00E00C480168A1
:1033900041F4700101600B48016841F001010160D6
:1033A00000214160C1620168074A114001604FF489
:1033B0007F018160016821F4802101600FF0FCBF72
:1033C00088ED00E000100240FFFFF6EA70B51E4EE7
:1033D0001C49304614F0B6FF1C4C98B1304614F02E
:1033E000BDFE1B4A11786318491C117083F8200038
:1033F00094F841001178884204D840F205313046F3
:1034000014F08CFF1349304614F09CFF002818D0AC
:10341000114D28782118401C28700978304614F086
:10342000A1FE94F84000297888420AD8002028702C
:1034300084F840003046BDE8704040F2073114F097
:103440006DBF70BD05030500004C00404C07002017
:1034500025000020070307002400002070B51E4E41
:103460001C49304614F06EFF1C4C98B1304614F0E5
:1034700075FE1B4A11786318491C117083F82000EF
:1034800094F841001178884204D840F20531304662
:1034900014F044FF1349304614F054FF002818D0AC
:1034A000114D28782118401C28700978304614F0F6
:1034B00059FE94F84000297888420AD800202870E4
:1034C00084F840003046BDE8704040F2073114F007
:1034D00025BF70BD05030500005000408E07002089
:1034E00027000020070307002600002070B51F4EAC
:1034F0001D49304614F026FF1D4CA0B1304614F093
:103500002DFE1C4A11786318491C11701A4983F862
:10351000200094F841000978884204D840F205312F
:10352000304614F0FBFE1549304614F00BFF00281E
:1035300018D0134D28782118401C2870097830467F
:1035400014F010FE94F84000297888420AD8002030
:10355000287084F840003046BDE8704040F20731E2
:1035600014F0DCBE70BD000005030500003801400A
:10357000C8060020210000202300002007030700C8
:103580002000002070B51E4E1C49304614F0DAFEB3
:103590001C4C98B1304614F0E1FD1B4A11786318B9
:1035A000491C117083F8200094F84100117888427A
:1035B00004D840F20531304614F0B0FE13493046CD
:1035C00014F0C0FE002818D0114D28782118401C96
:1035D00028700978304614F0C5FD94F84000297829
:1035E00088420AD80020287084F840003046BDE8A0
:1035F000704040F2073114F091BE70BD0503050024
:10360000004400400A0700202300002007030700B1
:1036100022000020FEE7000070B5064615F096FA7D
:10362000104C00224FF40061204606F0C9FC002235
:10363000A114204606F0C4FC0122D50329462046E9
:1036400006F0BEFC3046FFF753FB012015F000F9F1
:1036500000222946204606F0B3FCBDE87040012058
:1036600015F0F6B8001801400FB4054B10B503A9CA
:10367000044A029800F030F810BC5DF814FB00001A
:10368000699C00087C0300200FB4084B10B504A906
:1036900002AA039800F020F8044602A9002000F0D6
:1036A0004CFA204610BC5DF814FB00003B3B0008C0
:1036B000004870478403002002E008C8121F08C1B8
:1036C000002AFAD170477047002001E001C1121FA3
:1036D000002AFBD1704700002DE9FF4F8DB00F4647
:1036E0000546002606E025280BD0DDE90F1290479D
:1036F0006D1C761C28780028F5D111B03046BDE845
:10370000F08F0024A246A1460122EC4900E00443C8
:1037100015F8013F203B02FA03F00842F7D1287860
:103720002A2810D06FF02F022878A0F13001092943
:1037300014D80AEB8A0102EB410144F0020400EBC9
:10374000010A6D1CF0E701CF5FEA000A03D544F4DB
:103750000054CAF1000A44F002046D1C28782E2897
:1037600017D115F8010F44F004042A280ED06FF089
:103770002F022878A0F1300109290AD809EB890124
:1037800002EB410100EB01096D1CF2E757F8049BC5
:103790006D1C28786C280FD006DC4C2817D06828C0
:1037A0000DD06A2814D104E0742810D07A280FD1E3
:1037B0000DE044F400140AE044F4801401E044F401
:1037C00040146978814202D104F580146D1C6D1C8F
:1037D0002A786E2A1FD00CDC632A31D004DC002A40
:1037E0008BD0582A11D1A3E0642A68D0692A0CD161
:1037F00065E0732A2ED004DC6F2A73D0702A04D1BE
:103800009BE0752A6FD0782A6ED01046DDE90F1242
:103810009047761C50E1C4F30250022806D00328DA
:1038200009D0042801CF09D0066045E101CFF11786
:10383000C0E9006140E101CF06803DE106703BE157
:1038400017F8040B8DF8000000208DF80100EB46FE
:10385000012003E057F804BB4FF0FF3061074FF041
:10386000000102D40DE008F10101884649450FDA54
:103870008045F8DB1BF808100029F4D108E008F1B6
:10388000010188468142FADB1BF808100029F6D1B5
:10389000DDE90F23AAEB08008146214600F036F946
:1038A000304400EB080604E0DDE90F121BF8010BC1
:1038B0009047B8F10108F7D221464846F7E00A21BF
:1038C000C4F302534FF0000B0891022B04D001CF38
:1038D000C117032B09D00AE0FF1D27F00707F7E8FF
:1038E000020108E032E01FE020E000B2C117042B23
:1038F00001D140B2C117031E71F1000307DA4FF086
:10390000000CD0EB0C006CEB01012D2302E0230531
:1039100004D52B238DF82430012303E0E30701D0E5
:103920002023F7E7984658E00A2110E010210EE026
:1039300010204FF0000B08900CE010214FF0000B0E
:1039400044F004044FF00809089103E008214FF007
:10395000000B0891C4F30253022B04D001CF0021C5
:10396000032B06D006E0FF1D27F00707F7E802014A
:1039700003E080B2042B00D1C0B24FF0000823074F
:103980002BD5702A07D0DDF820C08CF0100C5CEA33
:103990000B0C05D00EE040238DF82430012308E005
:1039A00050EA010306D030238DF824308DF825200D
:1039B00002239846DDF820C08CF0080C5CEA0B0C62
:1039C0000BD150EA010301D1630706D530238DF8EE
:1039D00024304FF00108A9F10109582A04D038A277
:1039E0000B9208AA0A920BE03AA2F9E75B46089A02
:1039F000FEF71CFC0B9B9B5C0A9A521E0A921370EA
:103A000050EA0102F2D10A98ADEB000000F1200B60
:103A1000600702D524F4803401E04FF00109D94554
:103A200002DDA9EB0B0000E0002000EB0B0141449C
:103A30000890AAEB010AE00306D4DDE90F23214632
:103A4000504600F063F806444FF0000908E009A969
:103A500011F80900DDE90F12904709F10109761C00
:103A6000C145F4DBE0030CD5DDE90F2321465046C8
:103A700000F04CF8064404E0DDE90F1230209047D6
:103A8000761C0899481E08900029F5DC08E00A9881
:103A90000A990078491C0A91DDE90F129047761CBB
:103AA000BBF10001ABF1010BF1DC21465046DDE931
:103AB0000F2300F019F806446D1C1BE609280100CD
:103AC0003031323334353637383961626364656694
:103AD0000000000030313233343536373839414256
:103AE00043444546000000002DE9F041044600250E
:103AF0001E461746880404D405E039462020B04706
:103B00006D1C641EF9D52846BDE8F0812DE9F04111
:103B1000044600251E469046C80301D5302700E024
:103B20002027880404D505E041463846B0476D1C7F
:103B3000641EF9D52846BDE8F0810A68531C0B6065
:103B4000107070472DE9F047054614301646884638
:103B500081460FF0DFFAC0B32878E96A0AF006F868
:103B600004004FF0FF372DD02046C4F804800EF03B
:103B700099FC2672214648460FF0BEFA48B36568A4
:103B8000002128460FF09EFD0021284611F0ACFFD1
:103B90000021284612F0ECF904220021284611F0F9
:103BA000B9F90021284610F0EBF90020606004F11B
:103BB000100005460FF078FA28460FF09AFA2046D2
:103BC0000AF0EAF93846BDE8F087FFE76FF0050034
:103BD000F9E7EB6A1BB100221146284698470020FE
:103BE000F1E700001FB519A20C4607CA01AB83E834
:103BF0000700092201A9D02006F0AEFD012820D13E
:103C000015480168097C19B1BDF8051049BA216051
:103C10000068417C19B1BDF8071049BA6160817C28
:103C200019B1BDF8091049BAA160C07C60B1BDF8F6
:103C30000B0040BAE060009094E80E0007A0FFF788
:103C400013FD04B0002010BDE068F4E7FFFFFFFFA4
:103C5000FFFFFFFFFF00000054010020616463309C
:103C600020646174613A2564206164633120646179
:103C700074613A2564206164633220646174613A3E
:103C80002564206164633320646174613A25640DA6
:103C90000A00000010B50E490446012088614869F9
:103CA000012240F0300048611431002007F0E4FFA9
:103CB00000221146042000F081F820460EF0C4FBDB
:103CC0000022BDE810401146012000F077B8000046
:103CD000240100202DE9F041884606460024154DB8
:103CE0000FF0B3F904EB440155F8311041B10FF076
:103CF000D2F9641C042CF3DB4FF0FF30BDE8F081F7
:103D000004EB440745F837600FF0C5F905EBC70130
:103D100000204860088148813278102A02D15FEA89
:103D2000080200D001228A81C881086148612046CA
:103D3000E4E7000058B1002010B505F0B5FBBDE880
:103D400010400022024941F288300FF035BA0000DD
:103D5000393D000870B540F205600CF0C7FD144D08
:103D60004FF48054234603221021284606F066F9BA
:103D700000222146284606F023F9022200213320A2
:103D80000BF00EF80FF03AF80A48E1108288102084
:103D90000EF0E6FF40F206600CF0A8FD01230322BE
:103DA0001021054806F04AF904F0D2FC002070BD4D
:103DB00000140140380000200018014070B5214D6A
:103DC000214C062836D2DFE800F003102A2D3237C6
:103DD00000200FF0B1F804F039FD002128460FF063
:103DE00045F800206070A07024E01748217810305A
:103DF0004FF4806250F821101448A1F580610EF054
:103E000055FE0120607004F065FD002128460FF08A
:103E10003FF801200FF090F80CF0FAFD0AE004F0F2
:103E20008BFD07E0087808490831087102E001209D
:103E300000F00EF8012070BDBDE87040002000F0D9
:103E400007B80000003C004038000020D0070020E8
:103E500070B5074D02464FF480542146284606F0BF
:103E6000AFF821462846BDE8704006F03FB9000093
:103E70000014014010B50CF0EDFBBDE810400CF053
:103E8000E1BB000010B5094C0021A0F10B0304EBCD
:103E900080021F2B02D8B2F8141C04E0401E09282F
:103EA00001D8B2F8001C084610BD000000600040B8
:103EB00010B5084CA0F10B0304EB80021F2B02D8B5
:103EC000A2F8141C10BD401E0928FBD8A2F8001C43
:103ED00010BD00000060004030B5044606480023D5
:103EE000026803E012F8015B25705B1C8B42F9DB72
:103EF0000260084630BD00005801002070B53F4CFC
:103F00003FA12046FFF7C0FB054660193DA1FFF722
:103F1000BBFB0544601941A1FFF7B6FB05446019DE
:103F200045A1FFF7B1FB0544601946A1FFF7ACFBC3
:103F30004619A4F1A405A01947A16A68FFF7A4FBDC
:103F40000644A019A4F19B0246A1FFF79DFB06447D
:103F5000A01948A1FFF798FB0644A01946A1FFF756
:103F600093FB0644A0193CA1EA6AFFF78DFB0644C7
:103F7000A019A4F173023BA1FFF786FB0644A01928
:103F80003CA1FFF781FB0644A0193FA1FFF77CFB92
:103F90000644A01930A16A6DFFF776FB0644A0190C
:103FA000A4F14B022FA1FFF76FFB0644A01931A12A
:103FB000FFF76AFB0644A01937A1FFF765FB06442B
:103FC000A01925A1EA6FFFF75FFB85196019A4F11D
:103FD000230224A1FFF758FB0544601932A1FFF723
:103FE00053FB0544601930A1FFF74EFB28442044E1
:103FF0002DA1FFF749FB204670BD0000F0190020FD
:104000007B00000022646174615F74797065223AFC
:10401000226576656E74222C000000002273747293
:1040200065616D5F6964223A227265706F727464B3
:10403000617461222C0000002264617461223A7B69
:10404000000000002273657269616C4E756D6265D7
:1040500072223A7B000000002274696D65223A25C5
:10406000642C00002276616C7565223A2225732249
:10407000000000007D2C00002273656E736F724992
:1040800064223A7B0000000022616C61726D5479F9
:104090007065223A7B00000022616C6150617261A0
:1040A0006D223A7B000000007D0000002DE9F84FF2
:1040B000B64C00262046B6A1FFF7E6FA0546601981
:1040C000B4A1FFF7E1FA05446019B8A1FFF7DCFAE3
:1040D00005446019BCA1FFF7D7FA05446019BDA1DA
:1040E000FFF7D2FA4719A4F537784546E019BEA183
:1040F000D8F80420FFF7C8FA0744E019A4F2D32245
:10410000BCA1FFF7C1FA0744E019BEA1FFF7BCFA52
:104110000744E019BCA1FFF7B7FA0744E019B2A1C0
:104120006A68FFF7B1FA0744E019BAA16A6BFFF7B2
:10413000ABFA0744E019B3A1FFF7A6FA0744E01968
:10414000B8A1FFF7A1FA0744E019A7A16A68FFF731
:104150009BFA0744E019AFA12A6BFFF795FA0744D1
:10416000E019A8A1FFF790FA0744E019B1A1FFF701
:104170008BFA0744E0199CA16A68FFF785FA0744A7
:1041800095F88C20E019A3A1FFF77EFA0744E01907
:104190009CA1FFF779FA0744E019AAA1FFF774FA86
:1041A0000744E01990A16A68FFF76EFAC519601913
:1041B000A8A1FFF769FA0544A94F1BE008EB061216
:1041C0000A23D2F8A4109932B1FBF3F003FB1010CC
:1041D000B1FBF3F300906019A2A1FFF755FA054473
:1041E0003878401E864204D06019A9A1FFF74CFA26
:1041F0000544761C38788642E0DBA24626466019E4
:10420000A4A1FFF741FA441930197EA1FFF73CFA47
:1042100004443019A0A1FFF737FA05194446701974
:1042200071A1D8F80420FFF72FFA0544701989A16D
:10423000FFF72AFAA046054400269A4F4FF064097A
:1042400054461CE008EB06124846D2F82C3102F224
:104250002112B3FBF0F109FB1131B3FBF9F300912B
:10426000601980A1FFF710FA05443878401E864295
:1042700004D0601986A1FFF707FA0544761C387848
:104280008642DFDB601983A1FFF7FEF90544601960
:104290005CA1FFF7F9F90544601983A1FFF7F4F970
:1042A0000544601950A1D8F80420FFF7EDF9054442
:1042B000601968A1FFF7E8F9054400267E4F1CE06D
:1042C00008EB06124846D2F8B43102F2A912B3FB49
:1042D000F0F109FB1131B3FBF9F30091601961A111
:1042E000FFF7D2F905443878401E864204D06019A1
:1042F00067A1FFF7C9F90544761C38788642DFDBF1
:10430000601964A1FFF7C0F9054460193DA1FFF7EA
:10431000BBF90544601969A1FFF7B6F9461945468E
:10432000A01931A1D8F80420FFF7AEF9064495F89A
:104330002C22A01937A1FFF7A7F90644A01931A133
:10434000FFF7A2F90644A01960A1FFF79DF9064402
:10435000A01925A16A68FFF797F90644A0192DA1B5
:10436000D5F83422FFF790F98519601947A1FFF7B6
:104370008BF90544601945A1FFF786F928442044CC
:1043800042A1FFF781F90148BDE8F88FF01900203C
:104390007B00000022646174615F74797065223A69
:1043A000226576656E74222C000000002273747200
:1043B00065616D5F6964223A226865617274446167
:1043C0007461222C000000002264617461223A7B37
:1043D000000000002273657269616C4E756D626544
:1043E00072223A7B000000002274696D65223A2532
:1043F000642C00002276616C7565223A22257322B6
:10440000000000007D2C0000226C65617665223A78
:104410007B0000002276616C7565223A22256422B9
:1044200000000000226C6561766554696D65223A72
:104430007B000000226468537461747573223A7BB8
:10444000000000002274656D704C697374223A7B21
:10445000000000002276616C7565223A225B000044
:10446000260100207B5C2264657669636549645C93
:10447000223A5C2225735C222C5C22706172616D91
:104480005C223A5C2225642E25645C227D000000BB
:104490002C0000005D220000226761734C69737478
:1044A000223A7B002801002022736D6F6B654C69F6
:1044B0007374223A7B0000002701002022646366A7
:1044C000537461747573223A7B000000226468455E
:1044D0006C656374726963697479223A7B000000C9
:1044E00010B50D4C012204F11401207D00F0DF0015
:1044F0006061002007F0C0FB002211461046FFF764
:104500005DFC002211460520FFF758FC0120E06108
:104510000020607110BD000024010020014900202E
:10452000087070474C19002000B587B00020029039
:1045300003900490042202A90590FFF753FBDDE9E4
:104540000401CDE900010848DDE9022303A1006868
:10455000FFF79AF807B0002000BD00002564202571
:1045600064202564202564007C0000201CB5002107
:104570000091019104466A4618A1FDF71BFF01282E
:104580000DD001AB6A4616A12046FDF713FF0228A5
:1045900016D015A119A0FFF767F801201CBD002255
:1045A00011460098FFF70AFC02461A4815A1006858
:1045B000FFF76AF818A11BA0009AFFF755F80AE068
:1045C000012201A90098FFF7F9FBDDE9002312A100
:1045D00016A0FFF749F800201CBD00002578000058
:1045E0002578256400000000636D645F617564696F
:1045F0006F6374726C206572726F720025730D0A9E
:1046000000000000617564696F6374726C20257826
:10461000000000007C000020617564696F637472A3
:104620006C00000025733A25780D0A0025733A25A1
:10463000782025640D0A000010B5F6200CF0BFF9B3
:10464000002010BD08B56A460BA1FDF7B3FE012896
:1046500005D00AA10FA0FFF707F8012008BD01222D
:104660000021009802F008F80CA10FA0009AFEF7B4
:10467000FBFF002008BD000025780000636D645F2B
:10468000646973706C61796374726C206572726FA7
:104690007200000025730D0A000000006469737049
:1046A0006C61796374726C0025733A25780D0A0089
:1046B00010B513F09FF90246064803A10068FEF703
:1046C000E3FF002010BD0000756172743020257872
:1046D000000000007C00002010B513F0C1F9024674
:1046E000064803A10068FEF7CFFF002010BD0000C0
:1046F0007561727431202578000000007C00002074
:1047000010B513F0E3F90246064803A10068FEF76E
:10471000BBFF002010BD0000756172743320257846
:10472000000000007C00002010B513F005FA0246DE
:10473000064803A10068FEF7A7FF002010BD000097
:104740007561727434202578000000007C00002020
:1047500000B589B0202205496846FDF798FD6946F5
:1047600003A0FEF781FF09B0002000BDCC9801082E
:1047700025730D0A0000000010B5002211461046F6
:1047800007F002FA0246064802A10068FEF77CFF25
:10479000002010BD6B6579666C616720257800008C
:1047A0007C00002008B5002100916A4608A1FDF7B1
:1047B00001FE012805D0084908A0FEF755FF012099
:1047C00008BD01226946002007F056FA002008BD06
:1047D0003078257800000000C498010825730D0A80
:1047E0000000000010B58AB00021049105910691E7
:1047F00007910891099106AC05AB04AA09A98DE8B7
:104800001E0008AB07AA0DA1FDF7D4FD062806D0AF
:1048100011A116A0FEF728FF01200AB010BDDDE9A6
:10482000050107ACCDE9000194E80700049B13F0F3
:104830002BF813F051F80020EFE700003078253016
:1048400034642530326425303264253032642530BA
:104850003264253032640000636D645F74696D6595
:10486000736574206572726F7200000025730D0A03
:104870000000000010B513F02FF8002010BD00005C
:1048800010B5074803A205A10068FEF7FDFE002051
:1048900010BD000056312E302E3000002573000070
:1048A0007C0000200246302005F0DEBF70B50546D2
:1048B0004FF6FF7000224AF201040DE0AB5C584055
:1048C0000023C6074FEA500000D060405B1CDBB2FB
:1048D000082BF6D3521CD2B28A42EFD370BDF0B58A
:1048E0008BB0054603F12C00ADF800000220ADF8B6
:1048F000020042F2B820ADF8040000200290ADF8AA
:10490000061003A81C46164620210746FDF7D8FCD2
:10491000224631463846FDF7BAFC2C226946284625
:10492000FDF7B5FC0BB0F0BDF0B58BB0054603F15B
:104930002C00ADF800000120ADF8020041F60A207D
:10494000ADF8040000200290ADF8061003A81C4644
:10495000164620210746FDF7B3FC2246314638466D
:10496000FDF795FC2C2269462846FDF790FC0BB01C
:10497000F0BD00007CB504464FF4F471F248FDF739
:104980009FFCF14D14F8040F287060786870A078CF
:10499000A870E078E8702079287160796871A07952
:1049A000A871E079E871207A2872607A6872A07A3A
:1049B000A872E07AE872207B2873607B6873A07B22
:1049C000A873E07BE873607C217C00EB01202883E6
:1049D000E07CA17C00EB01206883607D217D00EB01
:1049E0000120A883E07DA17D00EB0120E883607EAB
:1049F000217E00EB01202884E07EA17E00EB0120D7
:104A00006884607F217F00EB0120A884E07FA17F84
:104A100000EB0120E88494F8210094F8201000EBCA
:104A20000120288594F8230094F8221000EB01203F
:104A3000E88594F8BF0194F8BE11012600EB01202F
:104A4000688594F8C10194F8C01100EB0120A88595
:104A500094F824100020241F01297DD085F834000B
:104A600094F82910012978D085F8350094F82A1097
:104A7000012973D085F8360014F82B0F69460AF027
:104A8000EFF99DF8000028759DF8010068759DF804
:104A90000200A8759DF80300E8759DF804002874CD
:104AA0009DF8050068749DF80600A8749DF807003D
:104AB000E874607885F83700A07885F838002079A8
:104AC000E17800EB01202886A079617900EB0120D4
:104AD0006886E07985F83900607A85F83A00207AAE
:104AE00085F83B00A07A85F83C0000202B3C21187B
:104AF0002A1891F8C611401C82F83D102028F6DBD8
:104B0000002021182A1891F83A10401C82F85D10F4
:104B10002028F6DB002021182A1891F85A10401C92
:104B200082F87D101028F6DB002128466218431811
:104B300092F86A20491C83F88D201029F6DB0021A9
:104B40006218431892F87A20491C83F89D20402966
:104B5000F6DB0021621802E0ECE0EEE0F0E0431842
:104B600092F8BA20491C83F8DD202029F2DB0021CD
:104B70006218431892F8DA20491C83F8FD20202996
:104B8000F6DB54F8FA1F09BAE27821F0FF0111436D
:104B9000C0F820112169E27C09BA21F0FF0111431C
:104BA000C0F82411216A94F8232009BA21F0FF01EA
:104BB0001143C0F82811216B94F8332009BA21F071
:104BC000FF011143C0F82C116168E27909BA21F0A4
:104BD000FF011143C0F830116169E27D09BA21F08B
:104BE000FF011143C0F83411616A94F8272009BA13
:104BF00021F0FF011143C0F83811616B94F83720A0
:104C000009BA21F0FF011143C0F83C11A168E27A12
:104C100009BA21F0FF011143C0F84011A169E27EF9
:104C200009BA21F0FF011143C0F84411A16A94F8B8
:104C30002B2009BA21F0FF011143C0F84811A16BE4
:104C400094F83B2009BA21F0FF011143C0F84C1140
:104C5000E16809BA21F0FF01E27B1143C0F850116D
:104C6000E169E27F09BA21F0FF011143C0F8541154
:104C7000E16A94F82F2009BA21F0FF011143C0F82E
:104C80005811E16B94F83F2009BA21F0FF0111435C
:104C9000C0F85C1194F8A610FA3C79B180F8606114
:104CA00094F8A11180F8611100216218431892F85C
:104CB000A221491C83F862212029F6DB94F87E1199
:104CC00079B180F8826194F87F1180F88311002116
:104CD0006218431892F88021491C83F88421202906
:104CE000F6DB94F85C1179B180F8A46194F85D1159
:104CF00080F8A51100216218431892F85E21491C22
:104D000083F8A6212029F6DB94F83A1179B180F8CE
:104D1000C66194F83B1180F8C7110021621843184E
:104D200092F83C21491C83F8C8212029F6DB074969
:104D300008607CBD85F8346092E685F8356095E6BC
:104D400085F8366098E600002C15002054010020FC
:104D500010B504460078FF2813D16078AA2810D136
:104D6000E078A27800EB022088420AD1491E89B27D
:104D70002046FDF79DFE94F8E611814201D1002006
:104D800010BD4FF0FF3010BD58B1026A002A0FD09D
:104D9000137B082B0CD10968526A914208D100F0AC
:104DA00095BA04A340F225320EA112A0FEF75CBC16
:104DB000704700002E2E5C2E2E5C2E2E5C546869EF
:104DC00072645F70617274795C6C7769702D312EDA
:104DD000342E315C7372635C636F72655C6468630C
:104DE000702E63006E6574696620213D204E554C1F
:104DF0004C000000417373657274696F6E20222548
:104E00007322206661696C6564206174206C696E30
:104E10006520256420696E2025730D0A00000000BE
:104E20002DE9FC41050017D02C6AD4B1616B4FF01D
:104E30003C034F1C4FF480364FF001024FF6FF70D9
:104E400019D01E31B1FBF3F1B14200D30146090480
:104E5000090CA1830ED00EE028A34FF4697233A190
:104E600003E026A340F2A63237A13DA0FEF7FCFBEB
:104E7000BDE8FC81A283A16B4F1C0AD01E31B1FB9F
:104E8000F3F1B14200D301460904090CE18300D1DA
:104E9000E283A28BE18B8A4202D309B10021A18374
:104EA000A17B09B1A06A09E094F824107F2901D8F8
:104EB000FF2003E0C02901D36FF07F400090E06A3B
:104EC000019028B9606A0099084040F08070019014
:104ED00004F12401284609F01BFF6946284609F021
:104EE0004BFF01A9284609F00EFF284609F048FFAC
:104EF0000A21204601F0B8F9BAE700002E2E5C2EF8
:104F00002E5C2E2E5C54686972645F7061727479D5
:104F10005C6C7769702D312E342E315C7372635C5A
:104F2000636F72655C646863702E630064686370AD
:104F30005F62696E643A206E6574696620213D2067
:104F40004E554C4C00000000646863705F62696EEF
:104F5000643A206468637020213D204E554C4C001B
:104F6000417373657274696F6E2022257322206607
:104F700061696C6564206174206C696E65202564CC
:104F800020696E2025730D0A0000000070B5046AC8
:104F900005460821204601F067F9002204F12401AA
:104FA000284604F071F8607B4FF4FA71401C60737E
:104FB00040F2E730B0FBF1F0608370BD164810B5E9
:104FC000046825E0216A11B3C88B421ECA830128F8
:104FD00006D0226A918B481E908301290CD016E0DE
:104FE000216A2046097B012903D00A2901D005291D
:104FF0000DD100F0D3FE0AE0216A2046097B012989
:1050000003D00A2901D0052901D101F077F82468DD
:10501000002CD7D110BD00006C0200202DE9F0411A
:1050200017460C4606002ED0002C37D020690028E9
:1050300006D059A340F27E6263A16DA0FEF714FB77
:105040006069002806D054A340F27F6273A168A073
:10505000FEF70AFB00224FF49A752946104609F024
:1050600071FF2061002823D04089A84206D24AA3BC
:1050700040F2866273A15EA0FEF7F6FA617B81487A
:10508000002918D01AE044A340F27C627EA158A007
:10509000FEF7EAFA6FF00D00BDE8F0813EA340F2A2
:1050A0007D6281A152A0FEF7DFFA6FF00500F3E701
:1050B0004FF0FF30F0E70168491C01600068206094
:1050C00020690025416801206161087061694870AC
:1050D000616996F8260088706069C570206807F0DD
:1050E00063F96169082F48606069058160694581DD
:1050F0006069C56008D0042F06D0032F07D1207B3C
:10510000052801D0042802D161697068C86060690F
:1051100005616069456160698561002096F8261027
:10512000814203D9311891F8271000E0002100F1E5
:105130001C026369401C80B299541028EED30020F1
:1051400000F12C016269401C80B255544028F7D30D
:105150005FF0000000F16C016269401C80B25554A0
:105160008028F7D361695848C1F8EC0025830020F6
:10517000626900F1F0015054401C80B24428F7D31A
:1051800001223521204600F027FA3946204600F05A
:1051900073FA002080E700002E2E5C2E2E5C2E2E4F
:1051A0005C54686972645F70617274795C6C776971
:1051B000702D312E342E315C7372635C636F7265B7
:1051C0005C646863702E6300646863705F6372651B
:1051D0006174655F6D73673A20646863702D3E701B
:1051E0005F6F7574203D3D204E554C4C0000000013
:1051F000417373657274696F6E2022257322206675
:1052000061696C6564206174206C696E6520256439
:1052100020696E2025730D0A000000006468637029
:105220005F6372656174655F6D73673A206468637C
:10523000702D3E6D73675F6F7574203D3D204E5538
:105240004C4C0000646863705F6372656174655FF5
:105250006D73673A20636865636B207468617420BE
:10526000666972737420706275662063616E20686F
:105270006F6C642073747275637420646863705F0C
:105280006D73670038020020646863705F63726545
:105290006174655F6D73673A206E6574696620217D
:1052A0003D204E554C4C0000646863705F6372652E
:1052B0006174655F6D73673A206468637020213D97
:1052C000204E554C4C00000063825363F8B5046ACD
:1052D00006460C21204600F0C7FF04222146304636
:1052E000FFF79CFE05001ED104223221204600F06B
:1052F00073F9606A07F0A0F80146204600F01EFA34
:10530000204600F0E5FA208BF03081B220690AF0E7
:105310002BFB009643230A4A2169606812F046FE7F
:10532000204600F00FF8607B4FF4FA71401C607368
:1053300042F60310B0FBF1F060832846F8BD000090
:10534000D09A010810B5040003D02069002809D0C4
:105350000FE0BDE8104010A340F2C9621AA122A0DC
:10536000FEF782B90CA340F2CA622AA11EA0FEF782
:105370007BF96069002806D107A340F2CB622FA118
:1053800019A0FEF771F9206908B10AF0C1F90020EF
:105390002061606110BD00002E2E5C2E2E5C2E2E32
:1053A0005C54686972645F70617274795C6C77696F
:1053B000702D312E342E315C7372635C636F7265B5
:1053C0005C646863702E6300646863705F64656C1E
:1053D0006574655F6D73673A206468637020213D72
:1053E000204E554C4C000000417373657274696F18
:1053F0006E2022257322206661696C6564206174C9
:10540000206C696E6520256420696E2025730D0A65
:1054100000000000646863705F64656C6574655FBC
:105420006D73673A20646863702D3E705F6F7574AA
:1054300020213D204E554C4C0000000064686370F4
:105440005F64656C6574655F6D73673A206468635B
:10545000702D3E6D73675F6F757420213D204E5532
:105460004C4C0000F8B5046A054600206062062135
:10547000204600F0F9FE012221462846FFF7CEFD26
:10548000060030D102223921204600F0A5F8A98C6F
:10549000204600F0CFF904223721204600F09CF886
:1054A0000121204600F0E8F80321204600F0E4F84E
:1054B0001C21204600F0E0F80621204600F0DCF830
:1054C000204600F005FA208BF03081B220690AF006
:1054D0004BFA00954323114A2169606812F066FD7A
:1054E0002046FFF72FFF607B401CC0B26073062888
:1054F00002D20121814000E03C2101EB4100C0EBE0
:10550000C1104FF6FF7101EAC0004FF4FA7100F2CA
:10551000F310B0FBF1F060833046F8BDD09A01087B
:1055200070B50B48002504680EE0206A58B1418B25
:10553000012903D9A1F10101418304E003D145838D
:10554000204600F0FFFF2468002CEED170BD000063
:105550006C020020F8B5046A00201E4DA062E062D3
:10556000E978A5F1280609B1F1682163297909B123
:10557000316901E0216B49086163697909B1716999
:1055800000E0216BA163A16809696162A97921B179
:10559000B06906F009FFA0620120A073E87918B194
:1055A000F06906F001FFE06200240BE006EB8400E6
:1055B000006A06F0F9FE00906946204601F0A4FB5F
:1055C000641CE4B22819007A002801D0022CEDD323
:1055D000F8BD00007C5A002070B50E460446018BD1
:1055E000901C08441546442806D90BA340F2F64205
:1055F000154916A0FEF738F8208B61690144401C5C
:10560000208381F8F060208B61690144401C208375
:1056100081F8F05070BD00002E2E5C2E2E5C2E2ED8
:105620005C54686972645F70617274795C6C7769EC
:10563000702D312E342E315C7372635C636F726532
:105640005C646863702E6300789E01084173736523
:105650007274696F6E2022257322206661696C6501
:1056600064206174206C696E6520256420696E2059
:1056700025730D0A0000000070B50446008B0D462E
:10568000442806D307A340F2015212A120A0FDF73F
:10569000EBFF208B61690144401C208381F8F050AE
:1056A00070BD00002E2E5C2E2E5C2E2E5C54686980
:1056B00072645F70617274795C6C7769702D312EE1
:1056C000342E315C7372635C636F72655C64686313
:1056D000702E6300646863705F6F7074696F6E5FD3
:1056E000627974653A20646863702D3E6F707469E6
:1056F0006F6E735F6F75745F6C656E203C204448FD
:1057000043505F4F5054494F4E535F4C454E00003D
:10571000417373657274696F6E202225732220664F
:1057200061696C6564206174206C696E6520256414
:1057300020696E2025730D0A0000000070B5044634
:10574000008B0D46001D442806D913A34FF4A26216
:105750001DA12DA0FDF788FF208B6269290E024450
:10576000401C208382F8F010208B6269290C0244CF
:10577000401C208382F8F010208B6269290A0244C1
:10578000401C208382F8F010208B61690144401C8A
:10579000208381F8F05070BD2E2E5C2E2E5C2E2EB4
:1057A0005C54686972645F70617274795C6C77696B
:1057B000702D312E342E315C7372635C636F7265B1
:1057C0005C646863702E6300646863705F6F7074FC
:1057D000696F6E5F6C6F6E673A20646863702D3E10
:1057E0006F7074696F6E735F6F75745F6C656E2038
:1057F0002B2034203C3D20444843505F4F505449B7
:105800004F4E535F4C454E00417373657274696F20
:105810006E2022257322206661696C6564206174A4
:10582000206C696E6520256420696E2025730D0A41
:105830000000000070B50446008B0D46801C442813
:1058400006D90BA34FF4A162154916A0FDF70CFF72
:10585000208B6269290A0244401C208382F8F010E0
:10586000208B61690144401C208381F8F05070BD99
:105870002E2E5C2E2E5C2E2E5C54686972645F7036
:10588000617274795C6C7769702D312E342E315CC5
:105890007372635C636F72655C646863702E63002F
:1058A000349E0108417373657274696F6E202225FE
:1058B0007322206661696C6564206174206C696E76
:1058C0006520256420696E2025730D0A0000000004
:1058D00010B5040003D06069002809D00FE0BDE8CE
:1058E000104016A340F2DE6220A129A0FDF7BCBE45
:1058F00012A340F2DF6231A125A0FDF7B5FE208B97
:10590000442806D30DA34FF4DC6237A120A0FDF795
:10591000ABFE208B6269FF210244401C208382F889
:10592000F010002105E062690244401C208382F8E7
:10593000F010208B4428F6D310BD00002E2E5C2ED4
:105940002E5C2E2E5C54686972645F70617274798B
:105950005C6C7769702D312E342E315C7372635C10
:10596000636F72655C646863702E63006468637063
:105970005F6F7074696F6E5F747261696C65723AA3
:10598000206468637020213D204E554C4C0000007F
:10599000417373657274696F6E20222573222066CD
:1059A00061696C6564206174206C696E6520256492
:1059B00020696E2025730D0A000000006468637082
:1059C0005F6F7074696F6E5F747261696C65723A53
:1059D00020646863702D3E6D73675F6F757420215E
:1059E0003D204E554C4C0A00646863705F6F7074C4
:1059F000696F6E5F747261696C65723A2064686386
:105A0000702D3E6F7074696F6E735F6F75745F6C2D
:105A1000656E203C20444843505F4F5054494F4EE0
:105A2000535F4C454E0A00002DE9FE4F044600200E
:105A3000894602900A219E48FCF742FCB9F80A0008
:105A40002C2814D3D9F80400A060B9F80800DFF8B6
:105A50006082F0254F4604E06A1A401A3F6895B20A
:105A600080B227B17989A942F6D98346F1E06FF077
:105A70000100BDE8FE8F00BFA81C80B201907A89AA
:105A8000681C4FF0FF36824203D90AEB05004078CC
:105A900003E0386808B140680078342904465DD0D6
:105AA0000CDC032935D004DC002925D001290DD1D7
:105AB00027E0062936D0332908D146E0352955D0CC
:105AC00036295CD03A2962D03B2968D0002428448A
:105AD000801C85B2002C0ED0002000900A2E06D328
:105AE00074A340F2AD527FA183A0FDF7BDFD18F86D
:105AF000060000285BD09CE000206D1E0446ADB27D
:105B0000E5E7042803D06BA340F27B5222E006268F
:105B1000DDE70424042803D266A34FF4B06210E04A
:105B20000726D4E7810704D062A340F285527DA105
:105B30006AE0082800D30824A04204D25DA34FF4F1
:105B4000B1627CA160E00826C1E7042804D059A313
:105B500040F28C527CA157E00326B8E7012803D01D
:105B600054A34FF4B26206E00026B0E7012804D047
:105B700050A340F2945277A146E00126A7E70428FB
:105B800003D04CA34FF4B362E4E702269FE7042856
:105B900003D048A340F29C52DCE7042697E7042890
:105BA00003D044A34FF4B462D4E705268FE7042C56
:105BB00001D2224600E0042269463846019B09F0E2
:105BC00017FD042C18D9A00704D03AA340F2B35211
:105BD00063A119E0012108F80610009806F0E4FB23
:105BE0003349241F2839E4B241F826000198001DEA
:105BF00080B2761C019071E7042C0BD0012C0DD0E3
:105C00002CA340F2BD525BA13BA0FDF72DFD6FF030
:105C100005002EE7009806F00FFC01E09DF800005B
:105C20000090012008F8060021480099283840F823
:105C300026107889A84217D8291AABEB00008DB23C
:105C40001FFA80FB5D4517D2BBF1000F14D03F68EF
:105C500017B1D7F804A008E016A340F2C9524AA130
:105C600025A0FDF701FD07E037B11AF80510FF295F
:105C700002D05D45FFF400AF98F8000058B10C4821
:105C800000222838006888F8002001280DD002285A
:105C900004D0032807D002980028BAD000202C2571
:105CA00002906C20D6E6012002906C25EC20D1E613
:105CB0007C5A00202E2E5C2E2E5C2E2E5C546869A1
:105CC00072645F70617274795C6C7769702D312ECB
:105CD000342E315C7372635C636F72655C646863FD
:105CE000702E6300636865636B206465636F646531
:105CF0005F69647800000000417373657274696FB6
:105D00006E2022257322206661696C6564206174AF
:105D1000206C696E6520256420696E2025730D0A4C
:105D2000000000006C656E20252034203D3D2030B1
:105D3000000000006C656E203E3D206465636F646A
:105D4000655F6C656E0000006C656E203D3D203423
:105D5000000000006C656E203D3D20310000000019
:105D60006465636F64655F6C656E20252034203D3B
:105D70003D203000696E76616C6964206465636FF4
:105D800064655F6C656E00006E6578742070627586
:105D90006620776173206E756C6C0000F8B5046A3C
:105DA00005460421204600F05FFA032221462846DA
:105DB000FFF734F906001BD1022239212046FFF7F4
:105DC0000BFCA98C2046FFF735FD2046FFF780FD30
:105DD000208BF03081B2206909F0C6FD0095432385
:105DE0000F4A2169606812F0E1F82046FFF7AAFA2D
:105DF000607B401CC0B260730A2804D24FF47A71F1
:105E000010FB01F001E042F2107080B24FF4FA7121
:105E100000F2F310B0FBF1F060833046F8BD0000F3
:105E2000D09A0108F8B5046A06460321204600F01E
:105E30001BFA032221463046FFF7F0F8050028D16F
:105E4000022239212046FFF7C7FB4FF4107120468C
:105E5000FFF7F0FC042232212046FFF7BDFB606A09
:105E600006F0EAFA01462046FFF768FC2046FFF7F5
:105E70002FFD208BF03081B2206909F075FD00966E
:105E800043230F4A2169606812F090F82046FFF71B
:105E900059FA607B401CC0B260730A2804D24FF4E8
:105EA0007A7110FB01F001E042F2107080B24FF401
:105EB000FA7100F2F310B0FBF1F060832846F8BDF0
:105EC000D09A01082DE9F041056A04465768A86890
:105ED000164630B142A340F211624DA151A0FDF728
:105EE000C3FB70894FF000082C2872D33878022841
:105EF0006FD1002094F8261008E022183B1892F881
:105F000027201B7F9A4264D1401CC0B28142F4D842
:105F1000786806F091FA296888425AD131462846B5
:105F2000FFF782FD00BB4A494878E8B1A1F1280299
:105F30001079052804D0062817D0022836D048E06A
:105F4000287B012806D003280BD0042809D0052877
:105F500007D03EE02046FFF7FDFA2046FFF716F88F
:105F600037E02046FEF75CFF33E0287B032805D0AE
:105F7000012803D0042801D005282AD12046276A09
:105F800008F0B4FE3349204608F0C2FE31492046ED
:105F900008F0B9FE2F49204608F0EEFE0C213846E5
:105FA00000F062F92046FFF75DFA12E0287B062830
:105FB0000FD1A5F81A802746246A887848B19068DE
:105FC00006F0F2F92062A06800696062384600F0CD
:105FD000D7F83046C5F80880BDE8F04109F098BB15
:105FE0002E2E5C2E2E5C2E2E5C54686972645F70BF
:105FF000617274795C6C7769702D312E342E315C4E
:106000007372635C636F72655C646863702E6300B7
:106010007265706C79207761736E27742066726583
:1060200065640000417373657274696F6E20222588
:106030007322206661696C6564206174206C696EEE
:106040006520256420696E2025730D0A000000007C
:106050007C5A0020CC9A0108F8B5046A0546002154
:10606000204600F001F9002020626062A062E06238
:10607000A06360632063072221462846FEF7CEFF17
:10608000060013D12046FFF723FC208BF03081B2AD
:10609000206909F069FC0095432304F1200221697D
:1060A000606811F083FF2046FFF74CF9607B401CCD
:1060B000C0B260730A2804D24FF47A7110FB01F069
:1060C00001E042F2107080B24FF4FA7100F2F31066
:1060D000B0FBF1F06083284608F008FE0649284628
:1060E00008F016FE0449284608F00DFE024928462D
:1060F00008F042FE3046F8BDCC9A0108F8B5046AB3
:1061000005460521204600F0AFF803222146284627
:10611000FEF784FF06001CD1022239212046FFF73A
:106120005BFAA98C2046FFF785FB2046FFF7D0FBE2
:10613000208BF03081B2206909F016FC00954323D2
:1061400004F120022169606811F030FF2046FFF75A
:10615000F9F8607B401CC0B260730A2804D24FF487
:10616000FA6110FB01F001E044F6206080B24FF4C8
:10617000FA7100F2F310B0FBF1F060833046F8BD25
:10618000F8B5046A05460121204600F06DF80322A7
:1061900021462846FEF742FF060048D10222392157
:1061A0002046FFF719FAA98C2046FFF743FB04228B
:1061B00032212046FFF710FA606A06F03DF90146E9
:1061C0002046FFF7BBFA042236212046FFF704FAE7
:1061D000206A06F031F901462046FFF7AFFA0422A3
:1061E00037212046FFF7F8F901212046FFF744FA4E
:1061F00003212046FFF740FA1C212046FFF73CFA16
:1062000006212046FFF738FA2046FFF761FB208B76
:10621000F03081B2206909F0A7FB00954323114AB1
:106220002169606811F0C2FE2046FFF78BF8607BA1
:10623000401CC0B26073062802D20121814000E0F8
:106240003C2101EB4100C0EBC1104FF6FF7101EAA8
:10625000C0004FF4FA7100F2F310B0FBF1F060836C
:106260003046F8BDD09A0108027B8A4203D0017300
:10627000002141734183704770B505006FF00D0632
:1062800049D095F82D002C6A20F0080085F82D00E3
:1062900080064FD5A88C3611B0F5107F4AD3002C5C
:1062A00041D0606808B111F053FE206930B125A3D8
:1062B00040F29E222FA135A0FDF7D6F9A06830B19B
:1062C00020A340F29F223CA130A0FDF7CDF93C2154
:1062D0002046FBF7F5FF11F02BFE6060002829D067
:1062E000017A442241F0200101723849606811F0BE
:1062F00055FC43223549606811F0E2FC2A463449D6
:10630000606811F022FE2846FFF7ACF8A0B12846DD
:1063100000F068F80EE00BA340F27A222DA11BA03A
:10632000FDF7A2F906E03C2006F016FE040001D0BD
:106330002C62CCE7304670BD15F82D1F41F00801E6
:10634000297070BD2E2E5C2E2E5C2E2E5C5468693A
:1063500072645F70617274795C6C7769702D312E34
:10636000342E315C7372635C636F72655C64686366
:10637000702E63007062756620705F6F7574207791
:1063800061736E277420667265656400417373657E
:106390007274696F6E2022257322206661696C65B4
:1063A00064206174206C696E6520256420696E200C
:1063B00025730D0A000000007265706C792077610A
:1063C000736E27742066726565640000CC9A0108BC
:1063D000C55E00086E6574696620213D204E554CEF
:1063E0004C00000010B500281CD050F8204F417B15
:1063F000002C21F0080141731DD0606818B111F024
:10640000A7FD00206060A06830B10BA340F2DA4223
:1064100015A11AA0FDF728F92046BDE8104000217B
:10642000FFF722BFBDE8104003A340F2C7421EA100
:1064300012A0FDF719B910BD2E2E5C2E2E5C2E2E4B
:106440005C54686972645F70617274795C6C7769BE
:10645000702D312E342E315C7372635C636F726504
:106460005C646863702E63007265706C792077617C
:10647000736E2774206672656564000041737365EE
:106480007274696F6E2022257322206661696C65C3
:1064900064206174206C696E6520256420696E201B
:1064A00025730D0A00000000646863705F73746FE9
:1064B000703A206E6574696620213D204E554C4C23
:1064C000000000000EB51C4D1C4C207810B10128B6
:1064D0002ED105E01848FFF7CFFE0120207027E0FD
:1064E000686828B1022020701348FFF77BFF1FE087
:1064F000286A407B04281BD9032020700E48FFF730
:1065000071FF0F4802AB00680178D0F8012041EA22
:10651000022100916FF07F4101910179D0F80500CF
:1065200001AA41EA002002906946034808F0C7FB2F
:10653000FA2012F08DF9C8E7F80F002008010020BA
:106540005401002010B5026A0446117B0C2913D0B7
:10655000062911D0012913D008291ED0052928D0D9
:1065600004292AD0032930D1507B022813D2204697
:10657000BDE81040FFF756BCBDE81040FEF772BF03
:10658000507B052804D82046BDE81040FFF7F8BD31
:106590002046FFF761FD2046EEE7507B01282046AC
:1065A00003D8BDE81040FEF7F1BCBDE81040FEF78F
:1065B00037BCBDE81040FFF7A1BD507B0828E7D8E5
:1065C0002046BDE81040FFF7E9BB10BD10B5FEF74F
:1065D000F5FCBDE81040002202494EF660200CF0A8
:1065E000EBBD0000CD65000810B5FEF799FFBDE8D2
:1065F0001040002202494FF4FA700CF0DDBD00009B
:10660000E965000810B50CF09FFC0120FDF704F8C7
:10661000184A0021012005F0C5FA164A0521153A4D
:10662000012005F0BFFA134A0121273A022005F0A4
:10663000B9FA104A04210A32022005F0B3FA0D4AD1
:106640000121213A032005F0ADFA0A4A05210E3A4C
:10665000032005F0A7FA074A01211B3A042005F0A0
:10666000A1FA044A0521D21F042005F09BFA00205C
:1066700010BD0000EF97010810B5012802D00228D4
:1066800004D008E00120FCF7C7FF04E0034A002122
:10669000012005F087FA002010BD0000A89B01082A
:1066A00070B50646C0EBC600324900EB800001EB36
:1066B000C004042E06D330A340F281223AA141A0A7
:1066C000FCF7D2FF2078002842D0C6EBC601294B48
:1066D00001EB810103EBC103002501220C330128EA
:1066E0000CD0022811D003283FD0BDE8704022A36F
:1066F00040F2C5223EA133A0FCF7B6BF02202070B5
:106700006570A2702846E5700DE0A078401E10F07C
:10671000FF00A0701CD1E078401CC0B2E0700428DB
:1067200007D0A07060783246BDE87040194600F08E
:1067300013BA60780146401C02280AD2344E06EB98
:1067400081010E1D05D0496819B16070A270E57015
:1067500070BDD4F8106126B100211846D4F8142178
:10676000B0472570C4F8105170BDA068401EA060ED
:10677000F7D070BD885A00202E2E5C2E2E5C2E2E57
:106780005C54686972645F70617274795C6C77697B
:10679000702D312E342E315C7372635C636F7265C1
:1067A0005C646E732E630000617272617920696EA1
:1067B000646578206F7574206F6620626F756E64F3
:1067C00073000000417373657274696F6E20222537
:1067D0007322206661696C6564206174206C696E47
:1067E0006520256420696E2025730D0A00000000D5
:1067F000756E6B6E6F776E20646E735F7461626C22
:106800006520656E7472792073746174653A000056
:10681000480200202DE9F0472B4F82469146002088
:106820003A782A4B06460546C5EBC50404EB8404BA
:1068300003EBC40494F800C0BCF1000F0FD0BCF10E
:10684000030F08D194F804C0A2EB0C0CB44502DD90
:106850000CF0FF0628466D1CEDB2042DE4D3042D88
:1068600010D1042807D2C0EBC00404EB840413F851
:106870003450032D03D04FF0FF30BDE8F0870546BC
:1068800003EBC404012020702271521C3A70C4E949
:1068900044195046FBF747FDFF2803D25046FBF74B
:1068A00042FD00E0FF2006460246514604F10C007E
:1068B000FBF7EDFCA119002008732846FFF7F0FE56
:1068C0006FF00400D9E700003C020020885A002045
:1068D0002DE9F047054621489846914640680E4606
:1068E00040B13EB135B1287820B12846FBF71BFDF9
:1068F000FF2803D96FF00D00BDE8F087284604F0AB
:10690000BFFC411C20D1164F002400BFC4EBC400C3
:1069100000EB800017F83010032906D107EBC00107
:1069200028460C31FBF706FD20B1641CE4B2042CB0
:10693000ECD30CE0C4EBC40000EB800007EBC0001C
:10694000D0F80C01411C02D030600020D4E7424650
:1069500049462846BDE8F047FFF75CBF3C020020EF
:10696000885A002038B50F480F4C20F00300A06073
:106970000EA004F085FC00906068002811D111F091
:10698000D7FA606000280CD000220C4911F006F9FB
:1069900000220B49606811F0D8FA6946002000F027
:1069A000B3F938BDEB5E00203C0200203230382EB7
:1069B00036372E3232322E3232320000CC9A010873
:1069C000E96900085FF0030210F8011BB2EB911FA8
:1069D00008D002E0491EC9B2401C0029FAD1017852
:1069E0000029F1D1401C70472DE9FE4F164612894F
:1069F000B2F5007F71D81A2A6FD3544C0023304669
:106A0000A16808F0F5FD3189884266D1A768A046E3
:106A1000388805F0CBFC04285FD2C0EBC00000EB47
:106A200080014B4800EBC1042078022855D14FF07B
:106A3000030984F80090F87800F00F006071B888BE
:106A400005F0B4FC8346F88805F0B0FC0546B8783C
:106A50004FF0000A000666D56079E8BBBBF1010F74
:106A600061D1D8F8080004F10C010C308B460346C4
:106A70004FEA090710F8012BB7EB921F10D009E07D
:106A800091F800C090F80080C4454CD1521E401CC3
:106A9000D2B2491C002AF3D10278491C002AE9D15C
:106AA0001846FFF78FFF4FF480784FF48069001D80
:106AB00037E000BFFFF786FF074600680090786860
:106AC0000190BDF800103889ADF80800414520D18B
:106AD000BDF80210414501E025E031E019D1BDF8D3
:106AE0000800484515D1019805F0A6FC1949A06099
:106AF000884200D9A160D7F80A00C4F80C01D4F884
:106B00001031EBB104F586715846D4F8142198473A
:106B100016E0BDF8080005F049FC6D1E3844ADB222
:106B20000A30002DC6D1D4F810312BB1002104F168
:106B30000C00D4F81421984784F800A0C4F810A1E0
:106B40003046BDE8FE4F08F0E3BD00003C020020E7
:106B5000885A0020803A09002DE9F04790460E46F9
:106B60000446022806D33AA34FF40F7244A14AA068
:106B7000FCF77AFD534810EB840703D050F824004B
:106B8000002806D132A340F23D224FA142A0FCF7DB
:106B90006BFD00224FF48871104608F0D3F9050010
:106BA00051D0286830B12AA340F243224FA13AA025
:106BB000FCF75AFD6C684FF000094046C4F800909D
:106BC000C4F80490C4F8089005F0F0FB24F8020B18
:106BD000012004F8020B010224F8081B761E23464C
:106BE000641C002004E000BF401C04F8012BC0B26C
:106BF00016F8012F2E2A01D0002AF5D1187030780E
:106C00000028ECD104F8019B61F30F0861F31F48E1
:106C1000C4F80080A888201A001D81B2284608F018
:106C2000A3FE284C39460C3C3522606811F048F828
:106C30003A4635232946606811F0A4F904462846EF
:106C400008F066FD01E04FF0FF342046BDE8F08714
:106C50002E2E5C2E2E5C2E2E5C54686972645F7042
:106C6000617274795C6C7769702D312E342E315CD1
:106C70007372635C636F72655C646E732E63000095
:106C8000646E7320736572766572206F7574206F01
:106C90006620617272617900417373657274696F05
:106CA0006E2022257322206661696C656420617400
:106CB000206C696E6520256420696E2025730D0A9D
:106CC0000000000048020020646E73207365727635
:106CD000657220686173206E6F2049502061646482
:106CE00072657373207365740000000070627566CE
:106CF000206D75737420626520696E206F6E65204B
:106D0000706965636500000002280CD2064A52686B
:106D1000002A08D0002906D00968002903D0024AB9
:106D20000C3242F8201070473C02002010B500F0F1
:106D30000BF8BDE81040002202494FF47A700CF0C5
:106D40003BBA00002D6D0008064810B540680028C9
:106D500007D000242046FFF7A3FC641CE4B2042CF7
:106D6000F8D310BD3C02002010B50446006890F92D
:106D7000081011F1090F01DA21711DE0FA212171CA
:106D80004368CBB1007800F0F00010280ED0202826
:106D900006D0402810D11846A16809F03FFB0AE050
:106DA000A2891846A16810F0F9FE04E0A2891846ED
:106DB000A1680CF089FC20712068BDE810400C30FF
:106DC0000CF0D0B910B504460068417800290DD008
:106DD00002290BD00078102806D01CA340F2B15233
:106DE00027A12FA0FCF740FCFB2014E0426812B161
:106DF0000278102A01D0FA200DE0227A032A01D06D
:106E0000022907D0D10701D007F026F82068816A4F
:106E100051B907E0F32020712068BDE810400C3024
:106E20000CF0A0B9406A30B108A340F2BC5227A1CF
:106E30001BA0FCF719FC21680420487020688462BC
:106E40002068BDE8104000F04FB800002E2E5C2EE8
:106E50002E5C2E2E5C54686972645F706172747966
:106E60005C6C7769702D312E342E315C7372635CEB
:106E70006170695C6170695F6D73672E630000000B
:106E80006D73672D3E636F6E6E2D3E747970652055
:106E90003D3D204E4554434F4E4E5F5443500000FD
:106EA000417373657274696F6E20222573222066A8
:106EB00061696C6564206174206C696E652025646D
:106EC00020696E2025730D0A00000000616C726558
:106ED0006164792077726974696E67206F722063CC
:106EE0006C6F73696E6700002DE9F041040006D1F4
:106EF00052A34FF43C725EA161A0FCF7B5FB207871
:106F0000102806D04DA340F2F12268A15CA0FCF746
:106F1000ABFB6078042806D048A340F2F2226BA1B4
:106F200057A0FCF7A1FB606830B944A340F2F322FC
:106F30006FA153A0FCF798FBA06A30B93FA34FF4B0
:106F40003D7270A14EA0FCF78FFBA06A007A00F0A2
:106F5000010700F0020603281FD000256068017EAB
:106F6000012920D037B100210EF0BEFD002160685C
:106F70000CF027FB1EB1002160680EF0F9FFBDB1D7
:106F80000422002160680DF0C5FF002160680CF04C
:106F9000F7FF60680CF0D6FC0FE001250021606867
:106FA0000CF090FBDAE700210CF00BFB002DF0D188
:106FB0003246394660680FF01DFA20B16068007EE5
:106FC000012821D027E0A16A00200871A06260702A
:106FD00035B16060E36A1BB1002204212046984766
:106FE0002FB1E36A1BB100221146204698472EB10B
:106FF000E36A1BB1002202212046984704F10C00ED
:10700000BDE8F0410CF0AEB80CA340F22D3244A123
:107010001BA0FCF729FB4B4960680EF0A9FF042276
:10702000494960680DF076FF484960680CF0A8FF98
:1070300021466068BDE8F0410CF044BB2E2E5C2E6A
:107040002E5C2E2E5C54686972645F706172747974
:107050005C6C7769702D312E342E315C7372635CF9
:107060006170695C6170695F6D73672E6300000019
:10707000696E76616C696420636F6E6E000000005B
:10708000417373657274696F6E20222573222066C6
:1070900061696C6564206174206C696E652025648B
:1070A00020696E2025730D0A000000007468697362
:1070B00020697320666F7220746370206E6574633C
:1070C0006F6E6E73206F6E6C79000000636F6E6E72
:1070D000206D75737420626520696E20737461740D
:1070E00065204E4554434F4E4E5F434C4F53450031
:1070F00070636220616C726561647920636C6F7388
:1071000065640000636F6E6E2D3E63757272656E0E
:10711000745F6D736720213D204E554C4C0000007C
:10712000436C6F73696E672061206C697374656E60
:1071300020706362206D6179206E6F7420666169D2
:107140006C210000C9220108FDFD0008D18500085E
:1071500010B5044600684368002B11D0017801F097
:10716000F001102919D0202911D040290AD021A3DB
:1071700040F203422CA132A0FCF776FAFA202BE071
:10718000F42029E01846A16809F04DF924E0A2890D
:107190001846A16810F094FD1EE0417809B1F7206F
:1071A0001AE00BF07FF92068A289A16840682F4B94
:1071B0000CF0AAFC207180B92168032291F820000C
:1071C0004A70C0F340000028206810F8201F0AD041
:1071D00041F004010170FB2020712068BDE81040DF
:1071E0000C300BF0BFBF21F00401017020688462F5
:1071F00010BD00002E2E5C2E2E5C2E2E5C54686975
:1072000072645F70617274795C6C7769702D312E75
:10721000342E315C7372635C6170695C6170695FAC
:107220006D73672E63000000496E76616C6964209F
:107230006E6574636F6E6E20747970650000000077
:10724000417373657274696F6E2022257322206604
:1072500061696C6564206174206C696E65202564C9
:1072600020696E2025730D0A00000000717200086D
:1072700070B5154604000CD06078032806D023A30F
:1072800040F2B6322EA136A0FCF7EEF9A06A18B192
:107290000FE06FF0050070BD94F82000400709D49E
:1072A0001AA340F2B73239A12DA0FCF7DDF9A06A8C
:1072B00000B105712078102803D115B920460BF0D4
:1072C000F1F894F82000002640F3800520F0040037
:1072D00084F82000A66266706D1C09D10BF0B5FE23
:1072E00094F9081011F1090F00DB26720BF0D3FEA0
:1072F000E36A1BB100220221204698471DB104F128
:107300000C000BF02FFF002070BD00002E2E5C2E15
:107310002E5C2E2E5C54686972645F7061727479A1
:107320005C6C7769702D312E342E315C7372635C26
:107330006170695C6170695F6D73672E6300000046
:10734000636F6E6E2D3E7374617465203D3D204EFB
:107350004554434F4E4E5F434F4E4E4543540000FD
:10736000417373657274696F6E20222573222066E3
:1073700061696C6564206174206C696E65202564A8
:1073800020696E2025730D0A0000000028636F6ECF
:107390006E2D3E63757272656E745F6D736720212A
:1073A0003D204E554C4C29207C7C20636F6E6E2D09
:1073B0003E696E5F6E6F6E5F626C6F636B696E6766
:1073C0005F636F6E6E6563740000000070B50168E6
:1073D0000446487800281BD0022819D003280CD076
:1073E0000878102806D030A340F247323BA143A0D2
:1073F000FCF73AF9FB20207131E091F820004007BA
:1074000006D429A340F24A3247A13CA0FCF72CF94C
:10741000206806F021FD20684168A1B1027802F0E1
:10742000F002102A27D00025202A05D0402A08D1B2
:10743000084609F051F804E0CD612068406810F07A
:1074400087FD206845602068C36A43B10022114669
:1074500098472068C36A13B1002202219847206828
:107460000C300BF085FE00281CD02068BDE8704071
:107470000C300BF077BE816A09B9406A30B10AA3BB
:1074800040F25F3230A11DA0FCF7EEF82168042025
:10749000487003202072206884622068BDE8704034
:1074A000FFF722BD70BD00002E2E5C2E2E5C2E2E0E
:1074B0005C54686972645F70617274795C6C77693E
:1074C000702D312E342E315C7372635C6170695C97
:1074D0006170695F6D73672E630000006D73672DC7
:1074E0003E636F6E6E2D3E74797065203D3D204E7B
:1074F0004554434F4E4E5F544350000041737365F3
:107500007274696F6E2022257322206661696C6532
:1075100064206174206C696E6520256420696E208A
:1075200025730D0A00000000626C6F636B696E6763
:1075300020636F6E6E65637420696E2070726F6772
:107540007265737300000000616C7265616479207C
:1075500077726974696E67206F7220636C6F7369EC
:107560006E67000070B514460D461268014610465D
:10757000FAF7E0FE002806D00BA340F2FA5217A15A
:107580001FA0FCF771F855B1E16800200870606831
:1075900029680160A068BDE870400BF0E3BDE168B8
:1075A000FA200870F6E700002E2E5C2E2E5C2E2EA0
:1075B0005C54686972645F70617274795C6C77693D
:1075C000702D312E342E315C7372635C6170695C96
:1075D0006170695F6D73672E63000000444E532035
:1075E000726573706F6E736520666F722077726F4D
:1075F0006E6720686F7374206E616D650000000017
:10760000417373657274696F6E2022257322206640
:1076100061696C6564206174206C696E6520256405
:1076200020696E2025730D0A0000000010B5044685
:1076300000686FF00C014068002825D0227C002AE9
:10764000A26801D0006800E040681060002020714E
:107650002068027802F0F002102A21D0202A15D0EA
:10766000402A0CD013A340F29B521FA124A0FBF789
:10767000FBFF2068BDE810400C300BF073BD227C8E
:1076800012B14068007C11E02171F2E7227C406871
:107690000AB1408A0AE0027C5207F5D5808A05E0EB
:1076A000217C406809B1408B00E0808BE168088054
:1076B000DFE700002E2E5C2E2E5C2E2E5C546869B7
:1076C00072645F70617274795C6C7769702D312EB1
:1076D000342E315C7372635C6170695C6170695FE8
:1076E0006D73672E63000000696E76616C696420BB
:1076F0006E6574636F6E6E5F747970650000000074
:10770000417373657274696F6E202225732220663F
:1077100061696C6564206174206C696E6520256404
:1077200020696E2025730D0A0000000010B5044684
:107730002346D4E90001074AFFF7CAF80146E0688A
:107740000170491D04D0A068BDE810400BF00ABDCF
:1077500010BD00006575000870B50446006890F91A
:10776000081011F1090F01DA217144E0F3212171B0
:1077700042681AB30178102901D0F2201DE0407848
:10778000E0B9FF2110460CF0A1FF050014D02068DD
:1077900010300BF0BFFC38B1206810300BF084FCC7
:1077A000206810300BF0A5FC0026267120681430EC
:1077B0000BF0B0FC18B108E0FF2020711BE020683E
:1077C000002114300BF07AFC2071207928B1284672
:1077D0000CF0B8F8206846600DE02168022048707F
:1077E000216828464D6021680BF06CFF2068054930
:1077F00040680BF0E6FE2068BDE870400C300BF0EE
:10780000B1BC0000453B000810B5044600202071C3
:107810002068406810B9204608F080F92068BDE86B
:1078200010400C300BF09EBC2DE9F04105460020C5
:1078300028712868416891B1007810280FD1AC6890
:1078400007034FF6FF78BC4201D3464600E0A6B2DC
:107850002868314640680EF0ABF9A41BF3D12868C4
:10786000BDE8F0410C300BF07DBC70B504460068FB
:1078700090F9081011F1090F01DA217117E0F321D5
:10788000217145689DB1007800F0F000202819D0E2
:1078900040280CD1A06810F1080F0ED0816861B1AA
:1078A00000F108020168284608F030FE20712068C7
:1078B000BDE870400C300BF055BC0168284608F05C
:1078C00021FEF3E7A06810F1080F09D0816839B1F3
:1078D000838900F108020168284610F053FBE5E7B0
:1078E0000168284610F04AFBE0E7000010B50446A6
:1078F000006890F9081011F1090F07DB01781029D1
:1079000001D0FA2102E0417831B1FB212171BDE8BB
:1079100010400C300BF026BC4168002920D001211A
:1079200041702068816A09B9406A30B10DA340F204
:107930004C5219A11FA0FBF797FEE06830B909A3CC
:1079400040F24E5226A11BA0FBF78EFE20688462F7
:107950002168002048622068BDE8104000F04AB865
:10796000F321D3E72E2E5C2E2E5C2E2E5C546869FC
:1079700072645F70617274795C6C7769702D312EFE
:10798000342E315C7372635C6170695C6170695F35
:107990006D73672E63000000616C7265616479200D
:1079A00077726974696E67206F7220636C6F736998
:1079B0006E670000417373657274696F6E202225D3
:1079C0007322206661696C6564206174206C696E45
:1079D0006520256420696E2025730D0A00000000D3
:1079E0006D73672D3E6D73672E772E6C656E20214B
:1079F0003D2030002DE9F047044690F82000A16AB0
:107A00004FF0000880070E7C01D4700701D50127D4
:107A100000E0002734B959A340F2C34264A168A032
:107A2000FBF722FE6078012806D054A340F2C4423E
:107A30006EA163A0FBF718FEA06A30B94FA340F215
:107A4000C54272A15EA0FBF70FFE606830B94BA380
:107A500040F2C64274A15AA0FBF706FED4E9090120
:107A6000C968884206D345A340F2C74274A154A016
:107A7000FBF7FAFDA06A616A826802EB010AC2683C
:107A8000501AB0F5803F04D34FF6FF7546F002065A
:107A900000E085B260684FF00009B0F86600A842C7
:107AA00007D205461FB125B96FF0060616E046F06D
:107AB00002064819904206D930A340F2F5426DA162
:107AC0003FA0FBF7D1FD33462A46514660680EF0D1
:107AD000D9FF060001D0701C3BD187B1A06AC068F5
