:020000040800F2
:102000005827012009220008F72B00087B2B000825
:10201000F52B00085B290008192F000800000000BC
:102020000000000000000000000000006521000822
:102030001D22000800000000A92100086D2C0008E6
:10204000232200082322000823220008232200085C
:10205000232200082322000823220008232200084C
:10206000232200082322000823220008232200083C
:10207000232200082322000823220008232200082C
:10208000232200082322000823220008232200081C
:10209000232200082322000823220008612A0008C6
:1020A00023220008232200082322000823220008FC
:1020B00023220008232200082322000823220008EC
:1020C00023220008232200082322000823220008DC
:1020D00023220008F12D0008892E00082322000881
:1020E000F1290008232200082322000823220008E7
:1020F00023220008232200082322000800000000F9
:10210000232200080000000023220008F92B000809
:10211000D12C0008612D000823220008232200088A
:10212000232200082322000823220008232200087B
:1021300023220008A92900082322000823220008DE
:10214000232200082322000823220008232200085B
:10215000DFF80CD000F020FA0048004729AE000854
:1021600058270120204B19680868B0E8F00F80F369
:102170000988BFF36F8F4FF0000080F311884EF095
:102180000D0E70470000000006480068006880F3EC
:10219000088862B661B6BFF34F8FBFF36F8F00DF61
:1021A00000BF00BF08ED00E0EFF30980BFF36F8FC1
:1021B0000D4B1A6820E9F00F106008B54FF02000B1
:1021C00080F3118812F022FE4FF0000080F3118896
:1021D000BDE8084019680868B0E8F00F80F3098886
:1021E000BFF36F8F704700BF88020020EFF31180AC
:1021F0004FF0200181F31188704780F311887047F8
:10220000EFF3058070470000064880470648004706
:10221000FEE7FEE7FEE7FEE7FEE7FEE7FEE7FEE796
:10222000FEE7FEE7912C0008512100082DE9F05F40
:102230000546002092469B46884606468146402435
:102240001BE0284641464746224600F04CF95346DB
:102250005A46C01A914110D311461846224600F042
:1022600033F92D1A67EB01084F4622460120002161
:1022700000F02AF917EB00094E41201EA4F10104D9
:10228000DFDC484631462A464346BDE8F09F40EA37
:1022900001039B0703D009E008C9121F08C0042AE4
:1022A000FAD203E011F8013B00F8013B521EF9D2CB
:1022B0007047D2B201E000F8012B491EFBD27047F3
:1022C0000022F6E710B513460A4604461946FFF702
:1022D000F0FF204610BD421C10F8011B0029FBD165
:1022E000801A704710B5002200E0521C835C8C5CA1
:1022F000A34201D1002BF8D1D8B2E1B2401A10BDEF
:1023000030B504460020034600E05B1C934203D234
:10231000E05CCD5C401BF8D030BD2DE9F0410E46AD
:102320000546002400E0641C285D00F0ECF8074638
:10233000305D00F0E8F8381A02D1295D0029F2D1A9
:10234000BDE8F0810FB400B58DB010A909900B90D5
:1023500000914FF0FF300A9000200C900548069045
:10236000054807906A4609A80F9900F0E7F80DB0F4
:102370005DF814FB59250008772500082DE9FF5F5B
:102380001D464FF0FF3BD5E9014691465F464FF0B1
:102390000008A9697F1C01988847296A82468847F6
:1023A0000028F6D1BAF1FF3F0CD024F4C064002E0F
:1023B00019DD600614D5BAF12B0F09D0BAF12D0F33
:1023C0000ED103E0584604B0BDE8F09F44F48064A9
:1023D000A9697F1C01988847761E8246002E02DD7F
:1023E000BAF1300F03D0B9F1000F26D032E0A9695D
:1023F000761E44F400747F1C019888478246002EA4
:1024000005DDBAF1780F06D0BAF1580F03D0B9F153
:10241000000F10D01EE0B9F1000F02D0B9F1100F7B
:1024200018D1A969761E24F400747F1C019888478E
:102430008246102002E0082000E00A20814609E0E0
:1024400008FB0908A969761E44F400747F1C0198F2
:1024500088478246002E05DD4946504600F059F86F
:102460000028EDDAE96901988847A00502D46FF0E9
:102470000100A8E7E00725D1600613D5600502D565
:10248000C8F1000000E0404629680A1D2A6009687A
:10249000220501D5087015E0220701D5088011E05A
:1024A00008600FE02868011D29600068210502D539
:1024B00080F8008006E0210702D5A0F8008001E046
:1024C000C0F8008038467EE7202A04DB203A00FA74
:1024D00002F1002070479140C2F1200320FA03F37B
:1024E000194390407047202A04DB203A21FA02F079
:1024F0000021704721FA02F3D040C2F1200291403E
:10250000084319467047A0F14101192900D820302D
:1025100070473A2800D2303820F02002412A01D3F7
:10252000A2F13700884201D34FF0FF30704700001E
:10253000026811441378016018467047D16004495D
:1025400051610449116200211161114600F044B843
:1025500031250008C5250008426842B1016811F81C
:10256000013B23B1521EC0E90012184670470121F9
:10257000C160881E704742685AB1C368016843B998
:1025800083688B4205D0491E521CC0E9001200200E
:1025900070474FF0FF307047064C074D06E0E0688B
:1025A00040F0010394E8070098471034AC42F6D39A
:1025B000FFF7D2FD745F0108945F0108004870477F
:1025C000345C010810B50446FFF7F8FF0068005DB1
:1025D00000F0010010BD00002DE9F34F8BB04FF06B
:1025E000000801F10C000C464FF0010B46460DF1BE
:1025F000080A01906269012101989047051E2DD0BB
:10260000252D2CD0216A8847C0B16269012101982B
:102610009047216A88470028F7D1411E62690198D6
:10262000904700E0761CA1690B988847216A88478B
:102630000028F7D1E1690B988847DBE7A1690B987F
:1026400088470746A84201D1761CD3E7E1690B9879
:1026500088477F1C02D1B8F1000F6FD046E10027F8
:1026600062693D463946019890472A2804D162693B
:102670000121019890470125DFF8849262690121C8
:1026800001989047A0F130010A290AD24F45E5DCB4
:1026900007EB870100EB4107303FDFD445F0100521
:1026A000ECE7E90601D46FF000476C280AD04C280B
:1026B00014D0682815D06A280DD074281CD07A2828
:1026C0001AD01DE062690121019890476C2802D060
:1026D00045F0040514E045F002050DE045F0200545
:1026E0000AE06269012101989047682802D045F00C
:1026F000080505E045F400656269012101989047ED
:10270000C4E9015765283DD019DC58287AD00CDC83
:10271000452837D004DC252826D0412831D131E0A6
:1027200046282FD047282CD12CE05B2877D0612871
:1027300028D063287CD0642823D15AE0D0E06F28C9
:1027400048D008DC66281DD067281BD0692821D016
:102750006E2816D127E0702845D0732868D07528D8
:1027600047D078280DD14DE0A1690B9888470546E0
:1027700025283FF469AFE1690B9888476D1C3FF449
:102780006AAFB3E023466A466FF001000B99AFF3DE
:1027900000809EE045F040006060A80723464FF0AF
:1027A000000236D43EE0E8077FF447AF2068011D01
:1027B00021600068290501D506701BE7290701D5AE
:1027C000068017E7A90703D5F117C0E9006111E7F3
:1027D00006600FE745F040006060A80723464FF011
:1027E000080216D41EE040F60E0125EA01006060E2
:1027F00016E045F040006060A80723464FF00A024B
:1028000007D40FE045F040006060A80708D52346D4
:1028100010226FF001000B99AFF3008059E007E040
:10282000234610226FF001000B99FFF7A7FD50E03F
:102830004FF000094F464B46632802D05B2806D074
:1028400040E0E80601D40120A06001273AE0626977
:102850000121019890475E2805D14FF00109626976
:10286000494601989047216939B900210A465346E3
:1028700043F82120491C0829FADBB0B3216969B962
:10288000C11700EBD16253110AEB830122F01F0242
:10289000821A01200B68904003430B60626901219A
:1028A000019890475D28E8D1B9F1000F09D00020C8
:1028B000514651F82020D24341F82020401C0828DE
:1028C000F7DB02AB224600976FF001000B99AFF3E4
:1028D000008000280CDA401C08D1BBF1000F05D0A5
:1028E0004FF0FF300DB0BDE8F08FFFE74046F9E74D
:1028F000E90701D108F1010806444FF0000B79E621
:10290000CCCCCC0C70B58C1810F8015B15F007031B
:1029100001D110F8013B2A1106D110F8012B03E078
:1029200010F8016B01F8016B5B1EF9D12B0705D480
:102930000023521E0DD401F8013BFAE710F8013BC9
:10294000CB1A921C03E013F8015B01F8015B521EE5
:10295000F9D5A142D8D3002070BDFEE7F0B50446FA
:1029600000200BA502460F4E0CE000BF02EBD27315
:102970005B10D707E35C09D003F00F03EB5C584012
:10298000521C305CB2EB410FF0DBF0BD1B09F5E7E8
:1029900030313233343536373839616263646566D5
:1029A00000000000D459010838B500200D4C0090FB
:1029B000204604F0B5FA012804D10B4869460068A6
:1029C00012F0B8FC204604F09FFA06480A3004F0E2
:1029D0009BFA0098002803D004494FF0805008600B
:1029E00038BD0000060504007C02002004ED00E074
:1029F00070B54FF48065284605F03CFE164E174C26
:102A000060B12946304606F016F9012820681BD02F
:102A100020F008002060284605F026FE4FF480458F
:102A2000284605F027FE002814D02946304606F037
:102A300002F9012820680AD020F010002060284602
:102A4000BDE8704005F010BE40F00800E2E740F03D
:102A50001000F3E770BD0000000C01406C00002086
:102A60002DE9F041402005F005FE2F4E2F4C60B1BE
:102A70004021304606F0DFF80128206839D020F0E8
:102A800020002060402005F0EFFD4FF480752846BF
:102A900005F0F0FD264FB0B12946384606F0CBF8D8
:102AA000012820682ED020F0020020602946304600
:102AB00006F0C1F80128206827D020F0010020602E
:102AC000284605F0D1FD4FF40075284605F0D2FDEB
:102AD000002826D02946384606F0ADF8012820689F
:102AE0001CD020F0040020602846BDE8F04105F02D
:102AF000BBBD40F02000206000221146052000F000
:102B0000A9FDBFE740F00200CFE740F001002060E0
:102B100000221146052000F09DFDD1E740F00400A1
:102B2000E1E7BDE8F0810000001001406C000020EA
:102B3000000C01402DE9F04791460F4604464FF046
:102B4000010805F047FE40F20736304605F0DCFD8F
:102B50000025B246E61909E059F82510204605F08F
:102B600055FE5046241D6D1C05F0CEFDA642F3D83F
:102B700005F0D8FD4046BDE8F087FEE770B51B4D77
:102B8000044600F001024FF48041284605F0C2FFE0
:102B9000C4F340024FF40041284605F0BBFFC4F3E4
:102BA00080020121284605F0B5FFC4F3C0020221CE
:102BB000284605F0AFFF0E4DC4F3001280212846D1
:102BC00005F0A8FFC4F34012A915284605F0A2FF9E
:102BD000C4F380126915284605F09CFFE209291507
:102BE0002846BDE8704005F095BF00000014014084
:102BF00000180140FEE770472DE9F041154F002114
:102C000038460CF057FE012808D1134E3078134C8B
:102C1000002528B1124807E035706560BDE8F081F5
:102C2000104E307870B110486168006830F81110AB
:102C300038460CF0BCFD6068401C6060218888420A
:102C4000EAD0EBE738466560BDE8F04100210CF0C2
:102C5000AEBD0000003C00403900002018000020FC
:102C6000640000203A0000206800002010B5FFF743
:102C7000BDFA12F0A1FC18B104494FF08050086071
:102C8000BDE810400020FFF7B8BA000004ED00E0F6
:102C90000C48016841F4700101600B48016841F083
:102CA0000101016000214160C1620168074A1140D1
:102CB00001604FF47F018160016821F4802101608F
:102CC0000DF07AB888ED00E000100240FFFFF6EA50
:102CD00070B51E4E1C49304611F0BEFC1C4C98B11C
:102CE000304611F0D5FB1B4A11786318491C11704E
:102CF00083F8200094F841001178884204D840F20B
:102D00000531304611F094FC1349304611F0A4FC13
:102D1000002818D0114D28782118401C28700978F7
:102D2000304611F0B9FB94F84000297888420AD85F
:102D30000020287084F840003046BDE8704040F222
:102D4000073111F075BC70BD05030500004C004053
:102D50002C05002025000020070307002400002088
:102D600070B51E4E1C49304611F076FC1C4C98B1D3
:102D7000304611F08DFB1B4A11786318491C117005
:102D800083F8200094F841001178884204D840F27A
:102D90000531304611F04CFC1349304611F05CFC13
:102DA000002818D0114D28782118401C2870097867
:102DB000304611F071FB94F84000297888420AD817
:102DC0000020287084F840003046BDE8704040F292
:102DD000073111F02DBC70BD050305000050004007
:102DE0006E050020270000200703070026000020B2
:102DF00070B51F4E1D49304611F02EFC1D4CA0B180
:102E0000304611F045FB1C4A11786318491C1170BB
:102E10001A4983F8200094F841000978884204D8C0
:102E200040F20531304611F003FC1549304611F0EF
:102E300013FC002818D0134D28782118401C287046
:102E40000978304611F028FB94F840002978884230
:102E50000AD80020287084F840003046BDE8704051
:102E600040F2073111F0E4BB70BD0000050305001E
:102E700000380140A8040020210000202300002089
:102E8000070307002000002070B51E4E1C49304685
:102E900011F0E2FB1C4C98B1304611F0F9FA1B4AD4
:102EA00011786318491C117083F8200094F84100D0
:102EB0001178884204D840F20531304611F0B8FB51
:102EC0001349304611F0C8FB002818D0114D28785E
:102ED0002118401C28700978304611F0DDFA94F86A
:102EE0004000297888420AD80020287084F84000E1
:102EF0003046BDE8704040F2073111F099BB70BD1B
:102F00000503050000440040EA04002023000020DF
:102F10000703070022000020FEE7000070B5064608
:102F200011F09EFF104C00224FF40061204605F086
:102F3000F1FD0022A114204605F0ECFD0122D5038D
:102F40002946204605F0E6FD3046FFF717FE012032
:102F500011F008FE00222946204605F0DBFDBDE801
:102F60007040012011F0FEBD001801400FB4054B68
:102F700010B503A9044A029800F02CF810BC5DF8C3
:102F800014FB000081880008F40200200FB4084BF5
:102F900010B504A902AA039800F01CF8044602A97F
:102FA000002000F048FA204610BC5DF814FB000039
:102FB0003734000802E008C8121F08C1002AFAD1FD
:102FC00070477047002001E001C1121F002AFBD1A9
:102FD000704700002DE9FF4F8DB00F4605460026D3
:102FE00006E025280BD0DDE90F1290476D1C761CFA
:102FF00028780028F5D111B03046BDE8F08F0024C4
:10300000A246A1460122EC4900E0044315F8013F25
:10301000203B02FA03F00842F7D128782A2810D082
:103020006FF02F022878A0F13001092914D80AEB9B
:103030008A0102EB410144F0020400EB010A6D1C1D
:10304000F0E701CF5FEA000A03D544F40054CAF167
:10305000000A44F002046D1C28782E2817D115F8B8
:10306000010F44F004042A280ED06FF02F022878B4
:10307000A0F1300109290AD809EB890102EB4101CD
:1030800000EB01096D1CF2E757F8049B6D1C2878D2
:103090006C280FD006DC4C2817D068280DD06A2881
:1030A00014D104E0742810D07A280FD10DE044F434
:1030B00000140AE044F4801401E044F440146978F8
:1030C000814202D104F580146D1C6D1C2A786E2A91
:1030D0001FD00CDC632A31D004DC002A8BD0582AA4
:1030E00011D1A3E0642A68D0692A0CD165E0732A63
:1030F0002ED004DC6F2A73D0702A04D19BE0752A8D
:103100006FD0782A6ED01046DDE90F129047761CFA
:1031100050E1C4F30250022806D0032809D0042845
:1031200001CF09D0066045E101CFF117C0E9006188
:1031300040E101CF06803DE106703BE117F8040B4A
:103140008DF8000000208DF80100EB46012003E01F
:1031500057F804BB4FF0FF3061074FF0000102D475
:103160000DE008F10101884649450FDA8045F8DB9A
:103170001BF808100029F4D108E008F10101884685
:103180008142FADB1BF808100029F6D1DDE90F2394
:10319000AAEB08008146214600F036F9304400EBE6
:1031A000080604E0DDE90F121BF8010B9047B8F1A7
:1031B0000108F7D221464846F7E00A21C4F302533A
:1031C0004FF0000B0891022B04D001CFC117032B45
:1031D00009D00AE0FF1D27F00707F7E8020108E021
:1031E00032E01FE020E000B2C117042B01D140B251
:1031F000C117031E71F1000307DA4FF0000CD0EB8A
:103200000C006CEB01012D2302E0230504D52B23D8
:103210008DF82430012303E0E30701D02023F7E7F2
:10322000984658E00A2110E010210EE010204FF0DF
:10323000000B08900CE010214FF0000B44F0040448
:103240004FF00809089103E008214FF0000B0891A6
:10325000C4F30253022B04D001CF0021032B06D06C
:1032600006E0FF1D27F00707F7E8020103E080B240
:10327000042B00D1C0B24FF0000823072BD5702AD1
:1032800007D0DDF820C08CF0100C5CEA0B0C05D0E8
:103290000EE040238DF82430012308E050EA0103BA
:1032A00006D030238DF824308DF82520022398464F
:1032B000DDF820C08CF0080C5CEA0B0C0BD150EA56
:1032C000010301D1630706D530238DF824304FF078
:1032D0000108A9F10109582A04D038A20B9208AAC2
:1032E0000A920BE03AA2F9E75B46089AFEF79EFFC6
:1032F0000B9B9B5C0A9A521E0A92137050EA0102C1
:10330000F2D10A98ADEB000000F1200B600702D566
:1033100024F4803401E04FF00109D94502DDA9EB26
:103320000B0000E0002000EB0B0141440890AAEBE9
:10333000010AE00306D4DDE90F232146504600F0E0
:1033400063F806444FF0000908E009A911F80900E4
:10335000DDE90F12904709F10109761CC145F4DB44
:10336000E0030CD5DDE90F232146504600F04CF870
:10337000064404E0DDE90F1230209047761C0899DE
:10338000481E08900029F5DC08E00A980A990078A0
:10339000491C0A91DDE90F129047761CBBF1000130
:1033A000ABF1010BF1DC21465046DDE90F2300F0C3
:1033B00019F806446D1C1BE6092801003031323330
:1033C0003435363738396162636465660000000061
:1033D000303132333435363738394142434445464B
:1033E000000000002DE9F041044600251E46174666
:1033F000880404D405E039462020B0476D1C641EC3
:10340000F9D52846BDE8F0812DE9F04104460025B4
:103410001E469046C80301D5302700E020278804C7
:1034200004D505E041463846B0476D1C641EF9D509
:103430002846BDE8F0810A68531C0B601070704785
:103440002DE9F047054614301646884681460CF0B3
:1034500061FBC0B32878E96A08F074FA04004FF001
:10346000FF372DD02046C4F804800BF0F7FF2672FA
:10347000214648460CF040FB48B3656800212846C9
:103480000CF020FE002128460FF02EF800212846DF
:103490000FF06EFA0422002128460EF03BFA0021BC
:1034A00028460DF06DFA0020606004F1100005461A
:1034B0000CF0FAFA28460CF01CFB204608F0F4FB4E
:1034C0003846BDE8F087FFE76FF00500F9E7EB6AE3
:1034D0001BB100221146284698470020F1E7000062
:1034E0003EB50FA20C4607CA8DE8070009226946BF
:1034F000D02005F0B1FE01280FD1BDF8010040BA7F
:103500002060BDF8030040BA6060BDF8050040BA15
:10351000A060BDF8070040BAE06000203EBD00009A
:10352000FFFFFFFFFFFFFFFFFF00000010B50E4988
:1035300004460122086840F030000860002006F0D0
:10354000D3FD4FF4967011F00DFB002211460420BC
:1035500000F080F820460BF06FFF0022BDE810401D
:103560001146012000F076B8E40000202DE9F0417A
:10357000884606460024154D0CF067FA04EB44011A
:1035800055F8311041B10CF086FA641C042CF3DBC1
:103590004FF0FF30BDE8F08104EB440745F8376099
:1035A0000CF079FA05EBC7010020486008814881DA
:1035B0003278102A02D15FEA080200D001228A8103
:1035C000C881086148612046E4E70000C0A80020E7
:1035D00010B504F075FDBDE810400022024941F22B
:1035E00088300CF0E9BA0000D135000870B540F21F
:1035F00005600AF047FF144D4FF480542346032220
:103600001021284605F0C4FA00222146284605F07C
:1036100081FA02220021332009F0B6F90CF0EEF80D
:103620000A48E110828810200CF09AF840F20660F7
:103630000AF028FF012303221021054805F0A8FA0B
:1036400003F092FE002070BD0014014038000020FD
:103650000018014070B51F4D1F4C062838D2DFE816
:1036600000F003102A2D323400200CF065F903F02D
:10367000F9FE002128460CF0F9F800206070A070D7
:1036800026E01548217810304FF4806250F8211060
:103690001248A1F580610BF009FF0120607003F072
:1036A00025FF002128460CF0F3F801200CF044F926
:1036B0000AF052FF0CE003F04BFF09E008780649DE
:1036C0000831087104E0012000E0002000F008F853
:1036D000002070BD003C004038000020B0050020F4
:1036E00002464FF48051014805F014BA001401401D
:1036F00010B50AF07BFDBDE810400AF06FBD000078
:1037000010B5094C0021A0F10B0304EB80021F2B24
:1037100002D8B2F8141C04E0401E092801D8B2F8FF
:10372000001C084610BD00000060004010B5084CA9
:10373000A0F10B0304EB80021F2B02D8A2F8141C8B
:1037400010BD401E0928FBD8A2F8001C10BD0000C7
:10375000006000400B4810B50178012201F0DF0144
:1037600001600146002006F0BFFC00221146104611
:10377000FFF770FF0022BDE8104011460520FFF75B
:1037800069BF0000E4000020014900200870704774
:10379000241000200149002008707047C810002044
:1037A00000B587B00020029003900490042202A983
:1037B0000590FFF795FEDDE90401CDE90001084819
:1037C000DDE9022303A10068FFF7E0FB07B000205A
:1037D00000BD0000256420256420256420256400A8
:1037E0007C0000201CB500210091019104466A462E
:1037F00015A1FEF7A7FD01280DD001AB6A4613A164
:103800002046FEF79FFD022810D012A116A0FFF758
:10381000ADFB01201CBD002211460098FFF71AFFE6
:1038200013A116A0009AFFF7A1FB0AE0012201A94B
:103830000098FFF70FFFDDE900230DA111A0FFF7AE
:1038400095FB00201CBD000025780000257825642C
:1038500000000000636D645F617564696F6374727A
:103860006C206572726F720025730D0A00000000F3
:10387000617564696F6374726C00000025733A258A
:10388000780D0A0025733A25782025640D0A00007A
:1038900010B5F6200AF036FE002010BD08B56A46C5
:1038A0000BA1FEF74FFD012805D00AA10FA0FFF7DD
:1038B0005DFB012008BD01220021009801F09CFE63
:1038C0000CA10FA0009AFFF751FB002008BD0000DB
:1038D00025780000636D645F646973706C6179635F
:1038E00074726C206572726F7200000025730D0A8D
:1038F00000000000646973706C61796374726C001D
:1039000025733A25780D0A0000B589B020220549B3
:103910006846FEF7BCFC694603A0FFF727FB09B029
:10392000002000BDB459010825730D0A00000000F5
:1039300010B500221146104606F05EFB024607480D
:1039400002A10068FFF722FB002010BD6B657966BD
:103950006C61672025303278000000007C00002078
:1039600008B5002100916A4608A1FEF7EBFC01288A
:1039700005D0084908A0FFF7F9FA012008BD012287
:103980006946002006F0B0FB002008BD307825789D
:1039900000000000AC59010825730D0A000000006A
:1039A00010B58AB000210491059106910791089104
:1039B000099106AC05AB04AA09A98DE81E0008AB65
:1039C00007AA0DA1FEF7BEFC062806D011A116A07D
:1039D000FFF7CCFA01200AB010BDDDE9050107AC04
:1039E000CDE9000194E80700049B10F033FA10F0D1
:1039F00059FA0020EFE70000307825303464253094
:103A0000326425303264253032642530326425300A
:103A100032640000636D645F74696D657365742062
:103A20006572726F7200000025730D0A00000000BD
:103A300010B510F037FA002010BD000010B507488F
:103A400003A205A10068FFF7A1FA002010BD000045
:103A500056312E302E300000257300007C000020EF
:103A60000246302005F080BC70B505464FF6FF7069
:103A700000224AF201040DE0AB5C58400023C60767
:103A80004FEA500000D060405B1CDBB2082BF6D33D
:103A9000521CD2B28A42EFD370BD00007CB50446FE
:103AA000FE218B48FEF70CFC894D14F8040F28709A
:103AB00060786870A078A870E078E8702079287144
:103AC00060796871A079A871E079E871207A28722C
:103AD000607A6872A07AA872E07AE872207B287314
:103AE000607B6873A07BA873E07BE873607C217CBB
:103AF00000EB01202883E07CA17C00EB012068839F
:103B0000607D217D00EB0120A883E07DA17D00EB9D
:103B10000120E883607E217E00EB01202884E07E86
:103B2000A17E00EB01206884607F217F00EB0120F3
:103B3000A884E07FA17F00EB0120E88494F82100B5
:103B400094F8201000EB0120288594F8230094F8C5
:103B5000221000EB0120688594F824200121002028
:103B6000241F012A7ED085F82C0000BF94F829205C
:103B7000012A78D085F82D0094F82A20012A73D0E4
:103B800085F82E0014F82B0F694608F05DFF9DF8AC
:103B9000000028759DF8010068759DF80200A87561
:103BA0009DF80300E8759DF8040028749DF8050051
:103BB00068749DF80600A8749DF80700E8746078A2
:103BC00085F82F00A07885F83000E07885F831007E
:103BD000207985F83200607985F83300A07985F87E
:103BE000340014F8070F000985F8350014F8010BAC
:103BF00000F00F0085F8360014F8010B000985F875
:103C0000370014F8010C00F00F0085F83800207818
:103C1000000985F8390014F8010B00F00F0085F851
:103C20003A002078000985F83B0014F8350900F0C7
:103C30000F0085F83C00002021182A1891F8361052
:103C4000401C82F83D102028F6DB002021182A189D
:103C500091F85610401C82F85D101028F6DB002009
:103C6000211802E02BE02DE02FE02A1891F86610D1
:103C7000401C82F86D101028F2DB002021182A1851
:103C800091F87610401C82F87D104028F6DB002069
:103C900021182A1891F8B610401C82F8BD1020286F
:103CA000F6DB002021182A1891F8D610401C82F863
:103CB000DD102028F6DB0748056028467CBD85F826
:103CC0002C1053E785F82D1056E785F82E1059E78C
:103CD0002C0E0020E800002010B504460078FF28D4
:103CE00013D16078AA2810D1E078A27800EB0220E6
:103CF00088420AD1491E89B22046FEF72FFE94F869
:103D00003611814201D1002010BD4FF0FF3010BDAF
:103D100058B1026A002A0FD0137B082B0CD1096816
:103D2000526A914208D100F095BA04A340F22532BC
:103D30000EA112A0FFF71AB9704700002E2E5C2EBC
:103D40002E5C2E2E5C54686972645F7061727479A7
:103D50005C6C7769702D312E342E315C7372635C2C
:103D6000636F72655C646863702E63006E6574696E
:103D70006620213D204E554C4C0000004173736578
:103D80007274696F6E2022257322206661696C65EA
:103D900064206174206C696E6520256420696E2042
:103DA00025730D0A000000002DE9FC41050017D025
:103DB0002C6AD4B1616B4FF03C034F1C4FF480363A
:103DC0004FF001024FF6FF7019D01E31B1FBF3F135
:103DD000B14200D301460904090CA1830ED00EE0C4
:103DE00028A34FF4697233A103E026A340F2A63260
:103DF00037A13DA0FFF7BAF8BDE8FC81A283A16B13
:103E00004F1C0AD01E31B1FBF3F1B14200D3014681
:103E10000904090CE18300D1E283A28BE18B8A4281
:103E200002D309B10021A183A17B09B1A06A09E0F5
:103E300094F824107F2901D8FF2003E0C02901D382
:103E40006FF07F400090E06A019028B9606A0099A5
:103E5000084040F08070019004F12401284608F0E9
:103E60004BFD6946284608F07BFD01A9284608F06D
:103E70003EFD284608F078FD0A21204601F0B8F9F9
:103E8000BAE700002E2E5C2E2E5C2E2E5C54686944
:103E900072645F70617274795C6C7769702D312E19
:103EA000342E315C7372635C636F72655C6468634B
:103EB000702E6300646863705F62696E643A206E9E
:103EC0006574696620213D204E554C4C0000000071
:103ED000646863705F62696E643A2064686370202E
:103EE000213D204E554C4C00417373657274696FCF
:103EF0006E2022257322206661696C6564206174DE
:103F0000206C696E6520256420696E2025730D0A7A
:103F10000000000070B5046A05460821204601F043
:103F200067F9002204F12401284603F0B9FE607B02
:103F30004FF4FA71401C607340F2E730B0FBF1F0CF
:103F4000608370BD164810B5046825E0216A11B37E
:103F5000C88B421ECA83012806D0226A918B481E54
:103F6000908301290CD016E0216A2046097B0129A3
:103F700003D00A2901D005290DD100F0D3FE0AE0B3
:103F8000216A2046097B012903D00A2901D005298D
:103F900001D101F077F82468002CD7D110BD0000C2
:103FA000F80100202DE9F04117460C4606002ED0FE
:103FB000002C37D02069002806D059A340F27E6239
:103FC00063A16DA0FEF7D2FF6069002806D054A35C
:103FD00040F27F6273A168A0FEF7C8FF00224FF491
:103FE0009A752946104608F0A1FD2061002823D0CB
:103FF0004089A84206D24AA340F2866273A15EA01D
:10400000FEF7B4FF617B8148002918D01AE044A371
:1040100040F27C627EA158A0FEF7A8FF6FF00D0071
:10402000BDE8F0813EA340F27D6281A152A0FEF77F
:104030009DFF6FF00500F3E74FF0FF30F0E70168F8
:10404000491C01600068206020690025416801204A
:104050006161087061694870616996F8260088702E
:104060006069C570206806F0B5FB6169082F48607B
:1040700060690581606945816069C56008D0042F69
:1040800006D0032F07D1207B052801D0042802D1B8
:1040900061697068C86060690561606945616069EF
:1040A0008561002096F82610814203D9311891F8D5
:1040B000271000E0002100F11C026369401C80B25F
:1040C00099541028EED3002000F12C016269401CA5
:1040D00080B255544028F7D35FF0000000F16C0126
:1040E0006269401C80B255548028F7D361695848F2
:1040F000C1F8EC0025830020626900F1F001505402
:10410000401C80B24428F7D301223521204600F01C
:1041100027FA3946204600F073FA002080E70000B5
:104120002E2E5C2E2E5C2E2E5C54686972645F709D
:10413000617274795C6C7769702D312E342E315C2C
:104140007372635C636F72655C646863702E630096
:10415000646863705F6372656174655F6D73673A0D
:1041600020646863702D3E705F6F7574203D3D2044
:104170004E554C4C00000000417373657274696FBA
:104180006E2022257322206661696C65642061744B
:10419000206C696E6520256420696E2025730D0AE8
:1041A00000000000646863705F6372656174655F3E
:1041B0006D73673A20646863702D3E6D73675F6F3F
:1041C0007574203D3D204E554C4C00006468637072
:1041D0005F6372656174655F6D73673A20636865DC
:1041E000636B2074686174206669727374207062F6
:1041F00075662063616E20686F6C642073747275DD
:10420000637420646863705F6D736700C40100208D
:10421000646863705F6372656174655F6D73673A4C
:10422000206E6574696620213D204E554C4C00007F
:10423000646863705F6372656174655F6D73673A2C
:10424000206468637020213D204E554C4C000000D6
:1042500063825363F8B5046A06460C21204600F0D9
:10426000C7FF042221463046FFF79CFE05001ED101
:1042700004223221204600F073F9606A06F0F2FA57
:104280000146204600F01EFA204600F0E5FA208B99
:10429000F03081B2206909F05BF9009643230A4AA5
:1042A0002169606810F01CF8204600F00FF8607B70
:1042B0004FF4FA71401C607342F60310B0FBF1F04A
:1042C00060832846F8BD0000605B010810B504005B
:1042D00003D02069002809D00FE0BDE8104010A3EA
:1042E00040F2C9621AA122A0FEF740BE0CA340F220
:1042F000CA622AA11EA0FEF739FE6069002806D115
:1043000007A340F2CB622FA119A0FEF72FFE206970
:1043100008B108F0F1FF00202061606110BD0000CD
:104320002E2E5C2E2E5C2E2E5C54686972645F709B
:10433000617274795C6C7769702D312E342E315C2A
:104340007372635C636F72655C646863702E630094
:10435000646863705F64656C6574655F6D73673A0C
:10436000206468637020213D204E554C4C000000B5
:10437000417373657274696F6E2022257322206603
:1043800061696C6564206174206C696E65202564C8
:1043900020696E2025730D0A0000000064686370B8
:1043A0005F64656C6574655F6D73673A206468630C
:1043B000702D3E705F6F757420213D204E554C4C22
:1043C00000000000646863705F64656C6574655F1D
:1043D0006D73673A20646863702D3E6D73675F6F1D
:1043E000757420213D204E554C4C0000F8B5046AF0
:1043F0000546002060620621204600F0F9FE0122F9
:1044000021462846FFF7CEFD060030D10222392191
:10441000204600F0A5F8A98C204600F0CFF9042230
:104420003721204600F09CF80121204600F0E8F8F2
:104430000321204600F0E4F81C21204600F0E0F8BB
:104440000621204600F0DCF8204600F005FA208B1B
:10445000F03081B2206909F07BF800954323114ABE
:10446000216960680FF03CFF2046FFF72FFF607B5B
:10447000401CC0B26073062802D20121814000E0D6
:104480003C2101EB4100C0EBC1104FF6FF7101EA86
:10449000C0004FF4FA7100F2F310B0FBF1F060834A
:1044A0003046F8BD605B010870B50B480025046814
:1044B0000EE0206A58B1418B012903D9A1F1010115
:1044C000418304E003D14583204600F0FBFF2468CC
:1044D000002CEED170BD0000F8010020F8B5046A90
:1044E00000201E4DA062E062E978A5F1280609B11E
:1044F000F1682163297909B1316901E0216B49082B
:104500006163697909B1716900E0216BA163A168F8
:1045100009696162A97921B1B06906F05BF9A0620D
:104520000120A073E87918B1F06906F053F9E06250
:1045300000240BE006EB8400006A06F04BF90090C3
:104540006946204601F0F8FA641CE4B22819007AA2
:10455000002801D0022CEDD3F8BD0000F851002056
:1045600070B50E460446018B901C0844154644283D
:1045700006D90BA340F2F642154916A0FEF7F6FC49
:10458000208B61690144401C208381F8F060208BFE
:1045900061690144401C208381F8F05070BD000027
:1045A0002E2E5C2E2E5C2E2E5C54686972645F7019
:1045B000617274795C6C7769702D312E342E315CA8
:1045C0007372635C636F72655C646863702E630012
:1045D000D45D0108417373657274696F6E20222582
:1045E0007322206661696C6564206174206C696E59
:1045F0006520256420696E2025730D0A00000000E7
:1046000070B50446008B0D46442806D307A340F23C
:10461000015212A120A0FEF7A9FC208B6169014480
:10462000401C208381F8F05070BD00002E2E5C2EBF
:104630002E5C2E2E5C54686972645F7061727479AE
:104640005C6C7769702D312E342E315C7372635C33
:10465000636F72655C646863702E63006468637086
:104660005F6F7074696F6E5F627974653A20646819
:1046700063702D3E6F7074696F6E735F6F75745FDA
:104680006C656E203C20444843505F4F5054494F66
:104690004E535F4C454E0000417373657274696FF1
:1046A0006E2022257322206661696C656420617426
:1046B000206C696E6520256420696E2025730D0AC3
:1046C0000000000070B50446008B0D46001D442814
:1046D00006D913A34FF4A2621DA12DA0FEF746FC3C
:1046E000208B6269290E0244401C208382F8F0105E
:1046F000208B6269290C0244401C208382F8F01050
:10470000208B6269290A0244401C208382F8F01041
:10471000208B61690144401C208381F8F05070BDFA
:104720002E2E5C2E2E5C2E2E5C54686972645F7097
:10473000617274795C6C7769702D312E342E315C26
:104740007372635C636F72655C646863702E630090
:10475000646863705F6F7074696F6E5F6C6F6E67B3
:104760003A20646863702D3E6F7074696F6E735F7A
:104770006F75745F6C656E202B2034203C3D2044A7
:104780004843505F4F5054494F4E535F4C454E0085
:10479000417373657274696F6E20222573222066DF
:1047A00061696C6564206174206C696E65202564A4
:1047B00020696E2025730D0A0000000070B50446C4
:1047C000008B0D46801C442806D90BA34FF4A16230
:1047D000154916A0FEF7CAFB208B6269290A02441C
:1047E000401C208382F8F010208B61690144401C3A
:1047F000208381F8F05070BD2E2E5C2E2E5C2E2E64
:104800005C54686972645F70617274795C6C77691A
:10481000702D312E342E315C7372635C636F726560
:104820005C646863702E6300905D0108417373657A
:104830007274696F6E2022257322206661696C652F
:1048400064206174206C696E6520256420696E2087
:1048500025730D0A0000000010B5040003D0606944
:10486000002809D00FE0BDE8104016A340F2DE6238
:1048700020A129A0FEF77ABB12A340F2DF6231A18A
:1048800025A0FEF773FB208B442806D30DA34FF41D
:10489000DC6237A120A0FEF769FB208B6269FF2153
:1048A0000244401C208382F8F010002105E0626978
:1048B0000244401C208382F8F010208B4428F6D359
:1048C00010BD00002E2E5C2E2E5C2E2E5C546869CE
:1048D00072645F70617274795C6C7769702D312ECF
:1048E000342E315C7372635C636F72655C64686301
:1048F000702E6300646863705F6F7074696F6E5FC1
:10490000747261696C65723A206468637020213D3D
:10491000204E554C4C000000417373657274696FF2
:104920006E2022257322206661696C6564206174A3
:10493000206C696E6520256420696E2025730D0A40
:1049400000000000646863705F6F7074696F6E5F71
:10495000747261696C65723A20646863702D3E6D93
:1049600073675F6F757420213D204E554C4C0A00D3
:10497000646863705F6F7074696F6E5F7472616991
:104980006C65723A20646863702D3E6F7074696F55
:104990006E735F6F75745F6C656E203C2044484396
:1049A000505F4F5054494F4E535F4C454E0A0000E4
:1049B0002DE9FE4F04460020894602900A219E48B8
:1049C000FDF77EFCB9F80A002C2814D3D9F80400AE
:1049D000A060B9F80800DFF86082F0254F4604E0D7
:1049E0006A1A401A3F6895B280B227B17989A94204
:1049F000F6D98346F1E06FF00100BDE8FE8F00BFFD
:104A0000A81C80B201907A89681C4FF0FF36824260
:104A100003D90AEB0500407803E0386808B1406824
:104A20000078342904465DD00CDC032935D004DC41
:104A3000002925D001290DD127E0062936D03329B8
:104A400008D146E0352955D036295CD03A2962D0C4
:104A50003B2968D000242844801C85B2002C0ED04D
:104A6000002000900A2E06D374A340F2AD527FA11D
:104A700083A0FEF77BFA18F8060000285BD09CE0C4
:104A800000206D1E0446ADB2E5E7042803D06BA3F9
:104A900040F27B5222E00626DDE70424042803D2FC
:104AA00066A34FF4B06210E00726D4E7810704D074
:104AB00062A340F285527DA16AE0082800D3082451
:104AC000A04204D25DA34FF4B1627CA160E008264D
:104AD000C1E7042804D059A340F28C527CA157E0CE
:104AE0000326B8E7012803D054A34FF4B26206E0CE
:104AF0000026B0E7012804D050A340F2945277A1D9
:104B000046E00126A7E7042803D04CA34FF4B36284
:104B1000E4E702269FE7042803D048A340F29C5212
:104B2000DCE7042697E7042803D044A34FF4B462DB
:104B3000D4E705268FE7042C01D2224600E00422A8
:104B400069463846019B08F047FB042C18D9A0079A
:104B500004D03AA340F2B35263A119E0012108F84E
:104B60000610009805F036FE3349241F2839E4B2B8
:104B700041F826000198001D80B2761C019071E773
:104B8000042C0BD0012C0DD02CA340F2BD525BA104
:104B90003BA0FEF7EBF96FF005002EE7009805F05B
:104BA00061FE01E09DF800000090012008F8060079
:104BB00021480099283840F826107889A84217D84B
:104BC000291AABEB00008DB21FFA80FB5D4517D2AE
:104BD000BBF1000F14D03F6817B1D7F804A008E06C
:104BE00016A340F2C9524AA125A0FEF7BFF907E07B
:104BF00037B11AF80510FF2902D05D45FFF400AF68
:104C000098F8000058B10C4800222838006888F84D
:104C1000002001280DD0022804D0032807D00298D4
:104C20000028BAD000202C2502906C20D6E6012066
:104C300002906C25EC20D1E6F85100202E2E5C2E3F
:104C40002E5C2E2E5C54686972645F706172747998
:104C50005C6C7769702D312E342E315C7372635C1D
:104C6000636F72655C646863702E6300636865637C
:104C70006B206465636F64655F69647800000000A1
:104C8000417373657274696F6E20222573222066EA
:104C900061696C6564206174206C696E65202564AF
:104CA00020696E2025730D0A000000006C656E20DF
:104CB000252034203D3D2030000000006C656E2032
:104CC0003E3D206465636F64655F6C656E00000047
:104CD0006C656E203D3D2034000000006C656E2048
:104CE0003D3D2031000000006465636F64655F6CCA
:104CF000656E20252034203D3D203000696E7661B0
:104D00006C6964206465636F64655F6C656E000048
:104D10006E657874207062756620776173206E7599
:104D20006C6C0000F8B5046A05460421204600F0CA
:104D30005FFA032221462846FFF734F906001BD10B
:104D4000022239212046FFF70BFCA98C2046FFF7F1
:104D500035FD2046FFF780FD208BF03081B22069C1
:104D600008F0F6FB009543230F4A216960680FF0B5
:104D7000B7FA2046FFF7AAFA607B401CC0B2607306
:104D80000A2804D24FF47A7110FB01F001E042F2DC
:104D9000107080B24FF4FA7100F2F310B0FBF1F032
:104DA00060833046F8BD0000605B0108F8B5046A16
:104DB00006460321204600F01BFA03222146304616
:104DC000FFF7F0F8050028D1022239212046FFF72D
:104DD000C7FB4FF410712046FFF7F0FC042232218C
:104DE0002046FFF7BDFB606A05F03CFD014620460A
:104DF000FFF768FC2046FFF72FFD208BF03081B2D3
:104E0000206908F0A5FB009643230F4A21696068DA
:104E10000FF066FA2046FFF759FA607B401CC0B2DB
:104E200060730A2804D24FF47A7110FB01F001E09C
:104E300042F2107080B24FF4FA7100F2F310B0FB3E
:104E4000F1F060832846F8BD605B01082DE9F04170
:104E5000056A04465768A868164630B142A340F276
:104E600011624DA151A0FEF781F870894FF0000842
:104E70002C2872D3387802286FD1002094F826109D
:104E800008E022183B1892F827201B7F9A4264D131
:104E9000401CC0B28142F4D8786805F0E3FC296870
:104EA00088425AD131462846FFF782FD00BB4A4965
:104EB0004878E8B1A1F128021079052804D0062825
:104EC00017D0022836D048E0287B012806D00328D6
:104ED0000BD0042809D0052807D03EE02046FFF774
:104EE000FDFA2046FFF716F837E02046FEF75CFF94
:104EF00033E0287B032805D0012803D0042801D003
:104F000005282AD12046276A07F0E4FC33492046C9
:104F100007F0F2FC3149204607F0E9FC2F49204612
:104F200007F01EFD0C21384600F062F92046FFF71D
:104F30005DFA12E0287B06280FD1A5F81A802746D3
:104F4000246A887848B1906805F044FC2062A06823
:104F500000696062384600F0D7F83046C5F808802E
:104F6000BDE8F04108F0C8B92E2E5C2E2E5C2E2E26
:104F70005C54686972645F70617274795C6C7769A3
:104F8000702D312E342E315C7372635C636F7265E9
:104F90005C646863702E63007265706C7920776161
:104FA000736E2774206672656564000041737365D3
:104FB0007274696F6E2022257322206661696C65A8
:104FC00064206174206C696E6520256420696E2000
:104FD00025730D0A00000000F85100205C5B0108F9
:104FE000F8B5046A05460021204600F001F90020CA
:104FF00020626062A062E062A063606320630722B7
:1050000021462846FEF7CEFF060013D12046FFF7C3
:1050100023FC208BF03081B2206908F099FA0095CA
:10502000432304F12002216960680FF059F92046FA
:10503000FFF74CF9607B401CC0B260730A2804D2B1
:105040004FF47A7110FB01F001E042F2107080B26F
:105050004FF4FA7100F2F310B0FBF1F060832846D0
:1050600007F038FC0649284607F046FC0449284664
:1050700007F03DFC0249284607F072FC3046F8BDB7
:105080005C5B0108F8B5046A05460521204600F07E
:10509000AFF8032221462846FEF784FF06001CD104
:1050A000022239212046FFF75BFAA98C2046FFF740
:1050B00085FB2046FFF7D0FB208BF03081B22069C2
:1050C00008F046FA0095432304F120022169606844
:1050D0000FF006F92046FFF7F9F8607B401CC0B2DC
:1050E00060730A2804D24FF4FA6110FB01F001E06A
:1050F00044F6206080B24FF4FA7100F2F310B0FB76
:10510000F1F060833046F8BDF8B5046A0546012128
:10511000204600F06DF8032221462846FEF742FFA4
:10512000060048D1022239212046FFF719FAA98C3E
:105130002046FFF743FB042232212046FFF710FAF6
:10514000606A05F08FFB01462046FFF7BBFA042298
:1051500036212046FFF704FA206A05F083FB01465A
:105160002046FFF7AFFA042237212046FFF7F8F96F
:1051700001212046FFF744FA03212046FFF740FAB9
:105180001C212046FFF73CFA06212046FFF738FA9B
:105190002046FFF761FB208BF03081B2206908F0D8
:1051A000D7F900954323114A216960680FF098F8F8
:1051B0002046FFF78BF8607B401CC0B26073062866
:1051C00002D20121814000E03C2101EB4100C0EB13
:1051D000C1104FF6FF7101EAC0004FF4FA7100F2FE
:1051E000F310B0FBF1F060833046F8BD605B01085E
:1051F000027B8A4203D001730021417341837047CF
:1052000070B505006FF00D0649D095F82D002C6A99
:1052100020F0080085F82D0080064FD5A88C3611A7
:10522000B0F5107F4AD3002C41D0606808B10FF070
:1052300029F8206930B125A340F29E222FA135A084
:10524000FDF794FEA06830B120A340F29F223CA15C
:1052500030A0FDF78BFE3C212046FDF731F80FF022
:1052600001F86060002829D0017A442241F0200131
:105270000172384960680EF02BFE432235496068A0
:105280000EF0B8FE2A46344960680EF0F8FF284652
:10529000FFF7ACF8A0B1284600F068F80EE00BA3C9
:1052A00040F27A222DA11BA0FDF760FE06E03C2013
:1052B00005F0F0FE040001D02C62CCE7304670BD52
:1052C00015F82D1F41F00801297070BD2E2E5C2E9F
:1052D0002E5C2E2E5C54686972645F706172747902
:1052E0005C6C7769702D312E342E315C7372635C87
:1052F000636F72655C646863702E630070627566CC
:1053000020705F6F7574207761736E2774206672EA
:1053100065656400417373657274696F6E20222540
:105320007322206661696C6564206174206C696E0B
:105330006520256420696E2025730D0A0000000099
:105340007265706C79207761736E27742066726560
:10535000656400005C5B01084D4E00086E65746971
:105360006620213D204E554C4C00000010B5002811
:105370001CD050F8204F417B002C21F008014173D4
:105380001DD0606818B10EF07DFF00206060A0683D
:1053900030B10BA340F2DA4215A11AA0FDF7E6FDE9
:1053A0002046BDE810400021FFF722BFBDE81040B5
:1053B00003A340F2C7421EA112A0FDF7D7BD10BD46
:1053C0002E2E5C2E2E5C2E2E5C54686972645F70EB
:1053D000617274795C6C7769702D312E342E315C7A
:1053E0007372635C636F72655C646863702E6300E4
:1053F0007265706C79207761736E277420667265B0
:1054000065640000417373657274696F6E202225B4
:105410007322206661696C6564206174206C696E1A
:105420006520256420696E2025730D0A00000000A8
:10543000646863705F73746F703A206E6574696638
:1054400020213D204E554C4C000000000EB5012699
:10545000184D194CDFF86490DFF864B002274FF064
:1054600003086FF07F4A207810B101281DD104E0B5
:105470001048FFF7C5FE267017E0686820B1277056
:105480000C48FFF773FF10E0286A407B04280CD912
:1054900084F800800748FFF769FF8DE8000E02AB33
:1054A00001AA6946034807F0FEF9FA200FF05AFBFB
:1054B000D9E70000D80D0020D0000020C0A81F644C
:1054C000C0A81F0110B5026A0446117B0C2913D035
:1054D000062911D0012913D008291ED0052928D06A
:1054E00004292AD0032930D1507B022813D2204628
:1054F000BDE81040FFF75ABCBDE81040FEF776BF8C
:10550000507B052804D82046BDE81040FFF7FCBDBD
:105510002046FFF765FD2046EEE7507B0128204638
:1055200003D8BDE81040FEF7F5BCBDE81040FEF71B
:105530003BBCBDE81040FFF7A5BD507B0828E7D86D
:105540002046BDE81040FFF7EDBB10BD10B5FEF7DB
:10555000F9FCBDE81040002202494EF660200AF036
:105560002BBB00004D55000810B5FEF79DFFBDE8B0
:105570001040002202494FF4FA700AF01DBB0000EF
:105580006955000810B50AF0DFF90120FDF7C6FCE7
:10559000184A0021012004F03DFD164A0521153A64
:1055A000012004F037FD134A0121273A022004F0BC
:1055B00031FD104A04210A32022004F02BFD0D4A6D
:1055C0000121213A032004F025FD0A4A05210E3A63
:1055D000032004F01FFD074A01211B3A042004F0B8
:1055E00019FD044A0521D21F042004F013FD0020F8
:1055F00010BD0000D758010810B5012802D00228BC
:1056000004D008E00120FDF789FC04E0034A0021F2
:10561000012004F0FFFC002010BD0000385C0108F0
:1056200070B50646C0EBC600324900EB800001EBC6
:10563000C004042E06D330A340F281223AA141A037
:10564000FDF794FC2078002842D0C6EBC601294B18
:1056500001EB810103EBC103002501220C3301287A
:105660000CD0022811D003283FD0BDE8704022A3FF
:1056700040F2C5223EA133A0FDF778BC0220207085
:105680006570A2702846E5700DE0A078401E10F00D
:10569000FF00A0701CD1E078401CC0B2E07004286C
:1056A00007D0A07060783246BDE87040194600F01F
:1056B0006BB960780146401C02280AD2344E06EBD2
:1056C00081010E1D05D0496819B16070A270E570A6
:1056D00070BDD4F8106126B100211846D4F8142109
:1056E000B0472570C4F8105170BDA068401EA0607E
:1056F000F7D070BD045200202E2E5C2E2E5C2E2E74
:105700005C54686972645F70617274795C6C77690B
:10571000702D312E342E315C7372635C636F726551
:105720005C646E732E630000617272617920696E31
:10573000646578206F7574206F6620626F756E6483
:1057400073000000417373657274696F6E202225C7
:105750007322206661696C6564206174206C696ED7
:105760006520256420696E2025730D0A0000000065
:10577000756E6B6E6F776E20646E735F7461626CB2
:105780006520656E7472792073746174653A0000E7
:10579000D401002038B50F480F4C20F00300A06062
:1057A0000EA004F0E7FA00906068002811D10EF016
:1057B00059FD606000280CD000220C490EF088FBD7
:1057C00000220B4960680EF05AFD6946002000F087
:1057D000B3F938BD67560020C80100203230382E9A
:1057E00036372E3232322E32323200005C5B010804
:1057F000195800085FF0030210F8011BB2EB911F6B
:1058000008D002E0491EC9B2401C0029FAD1017833
:105810000029F1D1401C70472DE9FE4F1646128930
:10582000B2F5007F71D81A2A6FD3544C002330464A
:10583000A16807F0D1FC3189884266D1A768A046EB
:10584000388804F0C9FF04285FD2C0EBC00000EB29
:1058500080014B4800EBC1042078022855D14FF05D
:10586000030984F80090F87800F00F006071B888A0
:1058700004F0B2FF8346F88804F0AEFF0546B8781E
:105880004FF0000A000666D56079E8BBBBF1010F56
:1058900061D1D8F8080004F10C010C308B460346A6
:1058A0004FEA090710F8012BB7EB921F10D009E05F
:1058B00091F800C090F80080C4454CD1521E401CA5
:1058C000D2B2491C002AF3D10278491C002AE9D13E
:1058D0001846FFF78FFF4FF480784FF48069001D62
:1058E00037E000BFFFF786FF074600680090786842
:1058F0000190BDF800103889ADF80800414520D16D
:10590000BDF80210414501E025E031E019D1BDF8B4
:105910000800484515D1019804F0A4FF1949A0607A
:10592000884200D9A160D7F80A00C4F80C01D4F865
:105930001031EBB104F586715846D4F8142198471C
:1059400016E0BDF8080004F047FF6D1E3844ADB204
:105950000A30002DC6D1D4F810312BB1002104F14A
:105960000C00D4F81421984784F800A0C4F810A1C2
:105970003046BDE8FE4F07F0BFBC0000C801002064
:1059800004520020803A09002DE9F04790460E4667
:105990000446022806D33AA34FF40F7244A14AA04A
:1059A000FDF7E4FA534810EB840703D050F82400C5
:1059B000002806D132A340F23D224FA142A0FDF7BC
:1059C000D5FA00224FF48871104607F0AFF80500B1
:1059D00051D0286830B12AA340F243224FA13AA007
:1059E000FDF7C4FA6C684FF000094046C4F8009017
:1059F000C4F80490C4F8089004F0EEFE24F8020BFA
:105A0000012004F8020B010224F8081B761E23462D
:105A1000641C002004E000BF401C04F8012BC0B24D
:105A200016F8012F2E2A01D0002AF5D118703078EF
:105A30000028ECD104F8019B61F30F0861F31F48C3
:105A4000C4F80080A888201A001D81B2284607F0FB
:105A50007FFD284C39460C3C352260680EF0CAFAAE
:105A60003A463523294660680EF026FC044628464F
:105A700007F042FC01E04FF0FF342046BDE8F0871C
:105A80002E2E5C2E2E5C2E2E5C54686972645F7024
:105A9000617274795C6C7769702D312E342E315CB3
:105AA0007372635C636F72655C646E732E63000077
:105AB000646E7320736572766572206F7574206FE3
:105AC0006620617272617900417373657274696FE7
:105AD0006E2022257322206661696C6564206174E2
:105AE000206C696E6520256420696E2025730D0A7F
:105AF00000000000D4010020646E7320736572768C
:105B0000657220686173206E6F2049502061646463
:105B100072657373207365740000000070627566AF
:105B2000206D75737420626520696E206F6E65202C
:105B3000706965636500000002280CD2064A52684D
:105B4000002A08D0002906D00968002903D0024A9B
:105B50000C3242F820107047C801002010B500F048
:105B60000BF8BDE81040002202494FF47A700AF0A9
:105B700023B800005D5B0008064810B540680028A7
:105B800007D000242046FFF74BFD641CE4B2042C30
:105B9000F8D310BDC801002010B50446006890F984
:105BA000081011F1090F01DA21711DE0FA212171AC
:105BB0004368CBB1007800F0F00010280ED0202808
:105BC00006D0402810D11846A16808F0F3F90AE081
:105BD000A2891846A1680EF07BF904E0A289184654
:105BE000A1680AF071FA20712068BDE810400C30FD
:105BF00009F0B8BF2DE9F041040006D152A34FF4DB
:105C00003C725EA161A0FDF7B1F92078102806D0A2
:105C10004DA340F2F12268A15CA0FDF7A7F96078DE
:105C2000042806D048A340F2F2226BA157A0FDF74A
:105C30009DF9606830B944A340F2F3226FA153A0EC
:105C4000FDF794F9A06A30B93FA34FF43D7270A1FB
:105C50004EA0FDF78BF9A06A007A00F0010700F072
:105C6000020603281FD000256068017E012920D08C
:105C700037B100210CF038FC002160680AF0A1F96E
:105C80001EB1002160680CF073FEBDB1042200213A
:105C900060680BF03FFE002160680AF071FE6068EA
:105CA0000AF050FB0FE00125002160680AF00AFAB3
:105CB000DAE700210AF085F9002DF0D132463946A5
:105CC00060680CF0A7FE20B16068007E012821D03A
:105CD00027E0A16A00200871A062607035B16060A1
:105CE000E36A1BB100220421204698472FB1E36AE2
:105CF0001BB100221146204698472EB1E36A1BB122
:105D0000002202212046984704F10C00BDE8F04132
:105D100009F028BF0CA340F22D3244A11BA0FDF7CF
:105D200025F94B4960680CF023FE0422494960685C
:105D30000BF0F0FD484960680AF022FE21466068D9
:105D4000BDE8F0410AF0BEB92E2E5C2E2E5C2E2E40
:105D50005C54686972645F70617274795C6C7769B5
:105D6000702D312E342E315C7372635C6170695C0E
:105D70006170695F6D73672E63000000696E766104
:105D80006C696420636F6E6E000000004173736580
:105D90007274696F6E2022257322206661696C65BA
:105DA00064206174206C696E6520256420696E2012
:105DB00025730D0A00000000746869732069732060
:105DC000666F7220746370206E6574636F6E6E739D
:105DD000206F6E6C79000000636F6E6E206D7573BE
:105DE0007420626520696E207374617465204E456D
:105DF00054434F4E4E5F434C4F53450070636220F7
:105E0000616C726561647920636C6F736564000016
:105E1000636F6E6E2D3E63757272656E745F6D7327
:105E20006720213D204E554C4C000000436C6F73A1
:105E3000696E672061206C697374656E207063629F
:105E4000206D6179206E6F74206661696C2100009D
:105E500049F30008A5D90008E971000810B5044607
:105E600000684368002B11D0017801F0F00110297F
:105E700019D0202911D040290AD021A340F2034291
:105E80002CA132A0FDF772F8FA202BE0F42029E0D3
:105E90001846A16808F093F824E0A2891846A16882
:105EA0000EF0A8F81EE0417809B1F7201AE009F0D9
:105EB000D5FA2068A289A16840682F4B0AF024FB1C
:105EC000207180B92168032291F820004A70C0F344
:105ED00040000028206810F8201F0AD041F004017B
:105EE0000170FB2020712068BDE810400C3009F0E3
:105EF00039BE21F0040101702068846210BD0000E9
:105F00002E2E5C2E2E5C2E2E5C54686972645F709F
:105F1000617274795C6C7769702D312E342E315C2E
:105F20007372635C6170695C6170695F6D73672E29
:105F300063000000496E76616C6964206E6574636D
:105F40006F6E6E2074797065000000004173736598
:105F50007274696F6E2022257322206661696C65F8
:105F600064206174206C696E6520256420696E2050
:105F700025730D0A000000007D5F000870B515460E
:105F800004000CD06078032806D023A340F2B63278
:105F90002EA136A0FCF7EAFFA06A18B10FE06FF05F
:105FA000050070BD94F82000400709D41AA340F200
:105FB000B73239A12DA0FCF7D9FFA06A00B1057155
:105FC0002078102803D115B9204609F047FA94F833
:105FD0002000002640F3800520F0040084F8200013
:105FE000A66266706D1C09D109F02FFD94F90810A6
:105FF00011F1090F00DB267209F04DFDE36A1BB1B8
:1060000000220221204698471DB104F10C0009F03E
:10601000A9FD002070BD00002E2E5C2E2E5C2E2EC1
:106020005C54686972645F70617274795C6C7769E2
:10603000702D312E342E315C7372635C6170695C3B
:106040006170695F6D73672E63000000636F6E6E31
:106050002D3E7374617465203D3D204E4554434F81
:106060004E4E5F434F4E4E4543540000417373659F
:106070007274696F6E2022257322206661696C65D7
:1060800064206174206C696E6520256420696E202F
:1060900025730D0A0000000028636F6E6E2D3E63AD
:1060A000757272656E745F6D736720213D204E5569
:1060B0004C4C29207C7C20636F6E6E2D3E696E5F98
:1060C0006E6F6E5F626C6F636B696E675F636F6E3E
:1060D0006E6563740000000070B50168044648787E
:1060E00000281BD0022819D003280CD008781028CB
:1060F00006D030A340F247323BA143A0FCF736FF65
:10610000FB20207131E091F82000400706D429A33C
:1061100040F24A3247A13CA0FCF728FF206805F076
:1061200023FD20684168A1B1027802F0F002102A34
:1061300027D00025202A05D0402A08D1084607F09C
:1061400097FF04E0CD61206840680EF09BF820685E
:1061500045602068C36A43B1002211469847206811
:10616000C36A13B100220221984720680C3009F05D
:10617000FFFC00281CD02068BDE870400C3009F0FE
:10618000F1BC816A09B9406A30B10AA340F25F32BA
:1061900030A11DA0FCF7EAFE21680420487003200E
:1061A0002072206884622068BDE87040FFF722BD3D
:1061B00070BD00002E2E5C2E2E5C2E2E5C54686965
:1061C00072645F70617274795C6C7769702D312EC6
:1061D000342E315C7372635C6170695C6170695FFD
:1061E0006D73672E630000006D73672D3E636F6EE5
:1061F0006E2D3E74797065203D3D204E4554434FD1
:106200004E4E5F5443500000417373657274696F62
:106210006E2022257322206661696C65642061749A
:10622000206C696E6520256420696E2025730D0A37
:1062300000000000626C6F636B696E6720636F6EB5
:106240006E65637420696E2070726F677265737318
:1062500000000000616C7265616479207772697476
:10626000696E67206F7220636C6F73696E670000E0
:1062700010B5044600686FF00C014068002825D076
:10628000227C002AA26801D0006800E0406810600B
:10629000002020712068027802F0F002102A21D03C
:1062A000202A15D0402A0CD013A340F29B521FA1E4
:1062B00024A0FCF75BFE2068BDE810400C3009F01C
:1062C00051BC227C12B14068007C11E02171F2E7E0
:1062D000227C40680AB1408A0AE0027C5207F5D568
:1062E000808A05E0217C406809B1408B00E0808B0A
:1062F000E1680880DFE700002E2E5C2E2E5C2E2E3B
:106300005C54686972645F70617274795C6C7769FF
:10631000702D312E342E315C7372635C6170695C58
:106320006170695F6D73672E63000000696E76614E
:106330006C6964206E6574636F6E6E5F74797065EE
:1063400000000000417373657274696F6E2022252E
:106350007322206661696C6564206174206C696ECB
:106360006520256420696E2025730D0A0000000059
:1063700070B50446006890F9081011F1090F01DAB0
:10638000217144E0F321217142681AB30178102988
:1063900001D0F2201DE04078E0B9FF2110460AF05C
:1063A00095FE050014D02068103009F0B3FB38B119
:1063B0002068103009F078FB2068103009F099FB54
:1063C000002626712068143009F0A4FB18B108E0FB
:1063D000FF2020711BE020680021143009F06EFBC3
:1063E0002071207928B1284609F0ACFF206846606A
:1063F0000DE0216802204870216828464D60216820
:1064000009F060FE20680549406809F0DAFD20685F
:10641000BDE870400C3009F0A5BB00004134000815
:1064200010B50446002020712068406810B920464D
:1064300007F068F92068BDE810400C3009F092BB05
:106440002DE9F0410546002028712868416891B186
:10645000007810280FD1AC6807034FF6FF78BC42D4
:1064600001D3464600E0A6B22868314640680CF0E9
:106470009FF8A41BF3D12868BDE8F0410C3009F067
:1064800071BB70B50446006890F9081011F1090F4E
:1064900001DA217117E0F321217145689DB100787F
:1064A00000F0F000202819D040280CD1A06810F18D
:1064B000080F0ED0816861B100F10802016828461A
:1064C00007F0F0FD20712068BDE870400C3009F045
:1064D00049BB0168284607F0E1FDF3E7A06810F129
:1064E000080F09D0816839B1838900F10802016879
:1064F00028460DF0E1FEE5E7016828460DF0D8FEDC
:10650000E0E7000010B50446006890F9081011F1AA
:10651000090F07DB0178102901D0FA2102E0417848
:1065200031B1FB212171BDE810400C3009F01ABBDC
:106530004168002920D0012141702068816A09B991
:10654000406A30B10DA340F24C5219A11FA0FCF7D4
:106550000DFDE06830B909A340F24E5226A11BA000
:10656000FCF704FD206884622168002048622068EE
:10657000BDE8104000F04AB8F321D3E72E2E5C2E80
:106580002E5C2E2E5C54686972645F70617274793F
:106590005C6C7769702D312E342E315C7372635CC4
:1065A0006170695C6170695F6D73672E63000000E4
:1065B000616C72656164792077726974696E6720B5
:1065C0006F7220636C6F73696E670000417373654F
:1065D0007274696F6E2022257322206661696C6572
:1065E00064206174206C696E6520256420696E20CA
:1065F00025730D0A000000006D73672D3E6D7367F3
:106600002E772E6C656E20213D2030002DE9F0475D
:10661000044690F82000A16A4FF0000880070E7C25
:1066200001D4700701D5012700E0002734B959A330
:1066300040F2C34264A168A0FCF798FC607801288E
:1066400006D054A340F2C4426EA163A0FCF78EFCB6
:10665000A06A30B94FA340F2C54272A15EA0FCF718
:1066600085FC606830B94BA340F2C64274A15AA0C1
:10667000FCF77CFCD4E90901C968884206D345A32C
:1066800040F2C74274A154A0FCF770FCA06A616A92
:10669000826802EB010AC268501AB0F5803F04D349
:1066A0004FF6FF7546F0020600E085B260684FF0D5
:1066B0000009B0F86600A84207D205461FB125B907
:1066C0006FF0060616E046F002064819904206D919
:1066D00030A340F2F5426DA13FA0FCF747FC3346E2
:1066E0002A46514660680CF0DDFC060001D0701CA3
:1066F0003BD187B1A06AC068A8420CD9E36A1BB13C
:106700002A4603212046984794F8200040F01000C4
:1067100084F8200010E0606840F66732B0F8661038
:10672000914203D9B0F86800052805D3E36A1BB18C
:106730002A4603212046984716B1701C14D014E055
:10674000606A28446062A16ACA68904200D027B19A
:10675000C8604FF00108C4F8249060680AF07CFD1E
:10676000B8F1000F04D10DE07FB1A16AC1F80C901F
:10677000A06A0671C4F8289084F8019004F10C0016
:1067800009F0F0F90020BDE8F08760680AF064FDC8
:10679000F8E700002E2E5C2E2E5C2E2E5C546869CD
:1067A00072645F70617274795C6C7769702D312EE0
:1067B000342E315C7372635C6170695C6170695F17
:1067C0006D73672E63000000636F6E6E20213D20A5
:1067D0004E554C4C00000000417373657274696F34
:1067E0006E2022257322206661696C6564206174C5
:1067F000206C696E6520256420696E2025730D0A62
:1068000000000000636F6E6E2D3E7374617465202E
:106810003D3D204E4554434F4E4E5F5752495445DF
:1068200000000000636F6E6E2D3E63757272656EC0
:10683000745F6D736720213D204E554C4C00000065
:10684000636F6E6E2D3E7063622E74637020213D07
:10685000204E554C4C000000636F6E6E2D3E7772DB
:106860006974655F6F6666736574203C20636F6E44
:106870006E2D3E63757272656E745F6D73672D3E2B
:106880006D73672E772E6C656E000000646F5F7706
:10689000726974656D6F72653A20696E76616C69B4
:1068A00064206C656E6774682100000010B540F6C6
:1068B0000E24204607F002FE204607F0F1FDBDE859
:1068C000104000F0F7BA08B50028009001D0401E33
:1068D000FAE708BD02464FF0FF30062907D2DFE88D
:1068E00001F01D1B0B03071B9088C0F30C007047C1
:1068F0005068C0F30C4070471168C1F30D40042884
:1069000008D9084A1268001F9201F4D58906F2D509
:10691000001D704700207047906870471078C0F3E2
:10692000C300704700800240F0B50022DFF874E039
:10693000DFF874C0154640F2F454B0F5E00F20D0F3
:106940001A49052301F1A007DE0744F2F455CEF8F9
:106950000C10CCF810100020CCF80400CCF800008B
:10696000A3F1010C01EB021002FB047EC0F808E069
:10697000C0E9006562450FD200F1100EC0F80CE0CE
:106980000BE00A490A4F503105234FF48016CEF828
:106990001010CCF80C10DEE7C160521C9A42E1D313
:1069A000F0BD000000900240F0000020A81500207B
:1069B0000C34002000B500F0CFFB5DF804EB00F0D4
:1069C00061BB0000F0B51F4A002416693568002D30
:1069D0002ADBC0B12B0427D4EB0525D5AB0523D585
:1069E000194FC5F30D433F681B1FBF0102D5AD060C
:1069F00000D51B1D8B4217D803E0B168095D015516
:106A0000641C9C42F9D311694FF0004008600F48A4
:106A100043691B0603D580234361002383604B68D1
:106A20005C0403D5C8680AE00020F0BD1B0401D552
:106A3000C06804E00068C0F38400084410301061AE
:106A40000120F0BDF00000200080024000900240D4
:106A500070B51B4A0023D4682568002D03DB40F283
:106A6000F455A94201D9002070BD20B905E0A668FF
:106A7000C55CF5545B1C8B42F9D3D3685960186828
:106A800040F0304018600F484169446901F004014A
:106A900004F02004214302D04161002141601968C3
:106AA000CC0201D5D86808E0890201D5006904E06C
:106AB0000068C0F3840018441030D060012070BD1D
:106AC000F00000200090024070B540F2026007F034
:106AD000D9FC40F2036007F0D5FC40F2046007F0F7
:106AE000D1FC40F2056007F0CDFC40F2066007F0F3
:106AF000C9FC4FF4C06007F0C5FC01214FF0201025
:106B000002F09EF8354C4FF480752B460322182175
:106B1000204602F03DF8402303221021304802F0C5
:106B200037F82F484022143002602E490120401CC3
:106B30008842FCD32A48103002600222521C8A424A
:106B4000FCD34FF4004007F0C7FC1C2007F010FCFA
:106B50001C2007F01BFC4FF0306007F04FFB4FF498
:106B6000000001F0DDFF022303220421204602F091
:106B70000FF8042303221821204602F009F81A4CCA
:106B80002B4603220421204602F002F8174DE3149D
:106B900003221821284601F0FBFFA3140322182129
:106BA000284601F0F5FF631403221821284601F05E
:106BB000EFFF0223032218210D4801F0E9FF6315BE
:106BC00003220421204601F0E3FF23152046BDE8FF
:106BD00070400322042101F0DBBF000000080140E7
:106BE00000180140FFFF050000140140000C0140A7
:106BF000001001402DE9F74F002582B00F460646F0
:106C0000A846ADF80050AB4600F0A8F930B99C4852
:106C1000FFF759FE00F0A2F900287DD0DFF864925A
:106C2000D9F80010984A1140C9F80010C9F804803A
:106C3000C9F80880C9F80C80D9F818104FF6417AC5
:106C400001EA0A0141F08001C9F818108F4C4FF495
:106C5000A852C4F88020C9F81C8041F00870A061D7
:106C600020688B482060012E7ED0A0154FF4005183
:106C700000EAD60001EA56010143ADF800106B4668
:106C800000220121022000F0C5F90028C5D06FF0D4
:106C90007F40FFF718FED9F80010484621F4B041B4
:106CA0003143C9F8001079050AD5016841F48061C3
:106CB0000160A16921F0806207F080611143A16148
:106CC0004168049A11434160724A1168CB070FD0A2
:106CD00053680568704E3540F6431E4035430560E5
:106CE000A56903F4407325F0C00545EA9303A36149
:106CF0008B0705D595682368684E33402B43236086
:106D00004B0705D5D5682368654E33402B43236078
:106D10000B0708D5156900E0AFE023684CF20206C6
:106D2000B3432B432360CB0605D55569A3695D4E5C
:106D300033402B43A3618B060ED59369A5695A4E48
:106D40003540F6431E403543A561256803F08003B6
:106D500025F080051D4325604B0607D5D569C3691D
:106D60006FF310032B4300E040E0C3610B0610D526
:106D7000136A856923EA0A0605EA0A05354385612F
:106D800054F8805F03F4EE4325F0770545EA1323BA
:106D90002360CB0501D5536A83608B0501D5936AC7
:106DA000C3604B0506D5D46A436840F2DE75AB4339
:106DB000234343600B0505D5146B03683B4D2B4003
:106DC00023430360CB0405D5546B036823F44003CD
:106DD00023430360890405D5926B016821F4602187
:106DE00011430160012005B0BDE8F08F304E012253
:106DF0006B461146002000F00DF9BDF8000005F1CA
:106E0000010510F00400ADF8000001D1B542EED349
:106E1000B54232D04FF480500025ADF800006B46EB
:106E20002A460121022000F0F5F830B301226B461A
:106E30001146002000F0EEF8BDF8000005F1010554
:106E400010F02000ADF8000001D1B542EED3B542FC
:106E500013D000226B460121104600F0DBF8BDF88C
:106E60000000C10502D54FF4006600E00026800452
:106E70007FF511AF46F480460DE75846B3E70000B2
:106E8000FFFF8F00008002400F8130FD0090024024
:106E90000060C1026C1500207FFFFFFDFFFFFEF8C0
:106EA000FFC001FFE73FDEFDFBFFFFFE8FDDFEFFC2
:106EB000FFFF040008480021016041608160C1605B
:106EC000016141618161C161016241628162C162AE
:106ED00001634163816370476C15002010B5094C54
:106EE00000F01F020121914041F21C0304EB9012BB
:106EF000B3EB901F106801D1084300E08843106095
:106F000010BD00000080024000F01F0201219140EE
:106F1000024A02EB901001607047000000800240BE
:106F2000064A02EB9011096800F01F020120904010
:106F3000014201D0012070470020704700800240CC
:106F4000054A8B88104403640A78D1F8011042EA9C
:106F5000012141647047000000800240F8B5224ED4
:106F60000025306920F01C04012007F051F91F4969
:106F70001F4A0144914202D244F0080416E01D4920
:106F80001D4A0144914202D244F00C040EE01B4918
:106F90001B4A0144914209D31A491B4A01449142B8
:106FA00002D31A4988421CD144F0040434614FF4DE
:106FB0000040ADF800006B4600220121022000F0E5
:106FC00029F870B11248FFF77EFC00226B460121C0
:106FD000104600F01FF820B1BDF80000000400D4F6
:106FE00001252846F8BD00000080024000D3CEFEF7
:106FF000C0E1E40040F1E9FD40787D0100796CFCDE
:10700000005A6202001F0AFA00990D04007A030A6E
:10701000FFFF0400F0B5164C0026374625694FF6F1
:10702000C37C25EA0C054FF4F86C0CEA82124FF68B
:10703000FF7C02430CEAC1210A432A4342F00101CA
:10704000022801D11A88626121610A4A216906F188
:10705000010611F0010F01D09642F7D12169C9074D
:1070600000D1012708B9606918803846F0BD0000DA
:1070700000800240FFFF0400416821F000414160B0
:10708000704700000548016841F0040101600448B0
:10709000816941F002018161704700000080024077
:1070A000009002400A4A10B500211368084643F0D8
:1070B00001031360074C136801F1010113F0010F84
:1070C00001D0A142F7D11168C90700D1012010BD3C
:1070D00000900240FFFF040010B54FF400518803F8
:1070E00005F0A6FC002202213D2005F04DFCFFF733
:1070F000EBFC40F20E5007F0C5F940F20F5007F0DC
:10710000C1F94FF4A26007F0BDF9FFF7CFFBFFF71D
:10711000C9FF88B1002211460120FFF76BFD074926
:107120000860086848B10648FFF7D8FE0448BDE883
:1071300010400A38FFF7D2BEFEE7FEE71400002039
:1071400010070400002805D0026822F440020A4318
:107150000260012070470000064800B5016841F058
:107160000801016000F00AF80348816941F4005108
:10717000816100BD0080024000900240094910B5C5
:1071800000228B69104643F480138B61064C8B6997
:1071900002F1010213F4801F02D0A242F7D310BD06
:1071A000012010BD00900240FFFF04002DE9F041D6
:1071B00006464FF0006000EBC12501F00BFB40F2EA
:1071C0000737384601F0A0FA002409E0284601F00C
:1071D000BDFA384605F5006501F096FA641CA4B2C4
:1071E000B442F3D3BDE8F0812DE9F0410E4604002E
:1071F00006D133A34FF4B1723EA142A0FBF7B6FE15
:107200000027676008F021FC267208F044FC6578CE
:107210006770E36A7BB10022042120469847E36A45
:107220004BB10022114620469847E36A1BB1002269
:1072300002212046984704F11000804608F06AFCBD
:1072400018B10021404608F057FC04F114008046B4
:1072500008F060FC18B10021404608F04DFC012DFB
:107260000FD0042D0DD0032D0BD0A06A002824D000
:10727000BDE8F04112A34FF4C9722DA121A0FBF784
:1072800075BE94F82010C1F3800021F0040184F849
:107290002010002811D1A06A30B909A340F28B1246
:1072A0002AA118A0FBF762FEA06A067104F10C0087
:1072B000A762BDE8F04108F055BCBDE8F0810000D0
:1072C0002E2E5C2E2E5C2E2E5C54686972645F70CC
:1072D000617274795C6C7769702D312E342E315C5B
:1072E0007372635C6170695C6170695F6D73672E56
:1072F00063000000636F6E6E20213D204E554C4CA4
:1073000000000000417373657274696F6E2022255E
:107310007322206661696C6564206174206C696EFB
:107320006520256420696E2025730D0A0000000089
:10733000636F6E6E2D3E63757272656E745F6D73F2
:1073400067203D3D204E554C4C000000636F6E6E33
:107350002D3E63757272656E745F6D736720213D9B
:10736000204E554C4C00000010B500214520FCF784
:1073700077FB30210120FCF773FB10210220FCF782
:107380006FFB00210220FCF76BFB10210320FCF7B0
:1073900067FB24211620FCF763FB20210420FCF767
:1073A0005FFB00210520FCF75BFB03210620FCF7B7
:1073B00057FB00210720FCF753FBFF210820FCF7B7
:1073C0004FFB0C210920FCF74BFB0C210A20FCF79A
:1073D00047FB00210B20FCF743FB00210C20FCF7AE
:1073E0003FFB1F211020FCF73BFB7F211120FCF706
:1073F00037FB80210020FCF733FB01210D20FCF737
:107400002FFB3F210120FCF72BFB00211420FCF770
:1074100027FB00211220FCF723FB00211320FCF79F
:107420001FFB02210E20FCF71BFB5B210F20FCF74A
:1074300017FB00211520FCF713FB0A211B20FCF78A
:107440000FFB6A211C20FCF70BFB48213720FCF7BF
:1074500007FB03480179BDE810403220FCF700BB70
:107460004000002010B500213220FCF7F9FA00217D
:107470001720FCF7F5FAFF210E20FCF7F1FA0221A4
:107480001220FCF7EDFA00211420FCF7E9FAFA21AA
:107490000D20FCF7E5FA00211520FCF7E1FA0821A0
:1074A0003720FCF7DDFA10210220FCF7D9FA002181
:1074B0000846FCF7D5FA1F210020FCF7D1FA30214D
:1074C0000120FCF7CDFA00210120FCF7C9FA0021C8
:1074D0004520FCF7C5FAFC210D20FCF7C1FA00217C
:1074E000BDE810400220FCF7BBBA000010B5012136
:1074F0000D20FCF7B5FA00214520FCF7B1FA3F2139
:107500000120FCF7ADFA80210020FCF7A9FA002148
:107510000220FCF7A5FA48213720FCF7A1FA002148
:107520001520FCF79DFA10211420FCF799FA002190
:107530001220FCF795FA02210E20FCF791FA03487D
:107540000179BDE810403220FCF78ABA40000020E3
:1075500010B500213220FCF783FA00211720FCF738
:107560007FFAFF210E20FCF77BFA02211220FCF7A4
:1075700077FA00211420FCF773FAFA210D20FCF7AA
:107580006FFA00211520FCF76BFA08213720FCF771
:1075900067FA10210220FCF763FA00210846FCF785
:1075A0005FFA1F210020FCF75BFA30210120FCF775
:1075B00057FA00210120FCF753FA0021BDE81040E2
:1075C0004520FCF74DBA00002DE9F84F904689465A
:1075D000050010D0B8F80A002A286DD3D8F8046046
:1075E0004FF4807A344634F80E0F504564D1207938
:1075F000062861D108E032A340F2BB223DA141A0A0
:10760000FBF7B4FCBDE8F88F6079042854D160889A
:10761000082851D1D4F80E000090A169281D06D089
:10762000686820B1814202D101273B4601E0002772
:10763000022304F108026946284600F065FDE0884F
:10764000504503D0B0F5007F36D131E0002F33D064
:10765000022003F0C1F8E080D4F80E00A061686851
:10766000C4F80E0095F82600062806D014A340F2B0
:1076700011322F4923A0FBF779FCA068C4F812004F
:10768000A089E082A0683060A089B080D9F800109D
:10769000A160B9F80400A081D9F80010C6F806105E
:1076A000B9F804007081AA6941462846904703E072
:1076B00069462846FCF72CFB404605F01DFEA1E775
:1076C0002E2E5C2E2E5C2E2E5C54686972645F70C8
:1076D000617274795C6C7769702D312E342E315C57
:1076E0007372635C6E657469665C65746861727000
:1076F0002E6300006E6574696620213D204E554C56
:107700004C000000417373657274696F6E2022250E
:107710007322206661696C6564206174206C696EF7
:107720006520256420696E2025730D0A0000000085
:10773000EC5E010870B50A4D0646002404EB840097
:1077400005EB8000817C29B18068B04202D12046DF
:1077500000F034F9641CE4B20A2CEFD370BD0000D1
:1077600020A900202DE9F34F85B04FF00A0B00242B
:107770000646DA465F460294D9460194CDF80040A9
:107780004F4904EB840001EB8008039098F81250F5
:107790000A2F16D0002D24D0012D08D0022D06D29C
:1077A00048A340F22B1254A163A0FBF7DFFB66B1A4
:1077B0003168D8F80400814207D160B207B0BDE853
:1077C000F08F002DE8D167B20BE0012D17D0022D0C
:1077D00007D398F813000199884202D34FFA84FA2C
:1077E0000190641CE4B20A2CCAD3069881074FF0BA
:1077F000FF30E3D40A2F18D01ADAFCB242E0304846
:10780000039950F82100002898F8130006D0009939
:107810008842E6D34FFA84F90090E2E70299884261
:10782000DFD34FFA84FB0290DBE70699C907C5D086
:10783000BAF10A0F0FDA0AF0FF04214804EB8401C1
:1078400050F8210090B11FA340F2711245A13AA057
:10785000FBF78CFB0AE0BBF10A0F02DA0BF0FF0426
:1078600004E0B9F10A0FA9DA09F0FF040A2C06D3E3
:1078700014A340F2831241A12FA0FBF777FB20460F
:1078800000F09CF80A2C06D30EA340F287123BA10D
:1078900029A0FBF76BFB0A4804EB840100EB810590
:1078A000A87C30B107A34FF4C47239A122A0FBF722
:1078B0005DFB0EB1306868600020E8747DE7000071
:1078C00020A900202E2E5C2E2E5C2E2E5C54686982
:1078D00072645F70617274795C6C7769702D312E9F
:1078E000342E315C7372635C6E657469665C6574BA
:1078F000686172702E6300007374617465203D3D91
:10790000204554484152505F53544154455F5045BF
:107910004E44494E47207C7C207374617465203E40
:107920003D204554484152505F53544154455F53A4
:107930005441424C45000000417373657274696F95
:107940006E2022257322206661696C656420617453
:10795000206C696E6520256420696E2025730D0AF0
:10796000000000006172705F7461626C655B695D4C
:107970002E71203D3D204E554C4C000069203C208E
:107980004152505F5441424C455F53495A450000B3
:107990006172705F7461626C655B695D2E737461A6
:1079A0007465203D3D204554484152505F53544139
:1079B00054455F454D5054590000000070B50C4DC2
:1079C00000EB8006002455F8260018B105F094FC61
:1079D00045F8264005EB860006498474C47484602B
:1079E0004460D1F80620C2604989018270BD000060
:1079F00020A90020A45B01082DE9FC4115460E4694
:107A0000040006D146A340F2753252A155A0FBF7FF
:107A1000ADFA36B942A340F276325DA151A0FBF730
:107A2000A5FA35B93EA340F277325CA14DA0FBF731
:107A30009DFA0E21304605F0F9FC18B16FF00100F7
:107A4000BDE8FC812146286801F0A0FF08B1574B32
:107A50003CE02868C0F303110E2922D0A1686368B6
:107A600000EA01020B409A420BD080B2A0F57E41A1
:107A7000A93906D014F10C0F2FD0E06868B304F1D7
:107A80000C054B4A4B49137803EB830001EB800054
:107A9000877C022F24D32F684068874220D11A4662
:107AA0002EE001208DF8000000208DF801005E20FE
:107AB0008DF8020068786B4600F07F008DF80300B7
:107AC000A8788DF80400E8788DF8050004F1270205
:107AD0003146204600F09EFAB2E76FF00300AFE7B0
